{
	"contracts/ExampleMessenger.sol": {
		"BlockchainMessenger": {
			"abi": [
				{
					"inputs": [],
					"stateMutability": "nonpayable",
					"type": "constructor"
				},
				{
					"inputs": [],
					"name": "changeCounter",
					"outputs": [
						{
							"internalType": "uint256",
							"name": "",
							"type": "uint256"
						}
					],
					"stateMutability": "view",
					"type": "function"
				},
				{
					"inputs": [],
					"name": "message",
					"outputs": [
						{
							"internalType": "string",
							"name": "",
							"type": "string"
						}
					],
					"stateMutability": "view",
					"type": "function"
				},
				{
					"inputs": [],
					"name": "owner",
					"outputs": [
						{
							"internalType": "address",
							"name": "",
							"type": "address"
						}
					],
					"stateMutability": "view",
					"type": "function"
				},
				{
					"inputs": [
						{
							"internalType": "string",
							"name": "_newMessage",
							"type": "string"
						}
					],
					"name": "updateTheMessage",
					"outputs": [],
					"stateMutability": "nonpayable",
					"type": "function"
				}
			],
			"devdoc": {
				"kind": "dev",
				"methods": {},
				"version": 1
			},
			"evm": {
				"assembly": "    /* \"contracts/ExampleMessenger.sol\":59:387  contract BlockchainMessenger{... */\n  mstore(0x40, 0x80)\n    /* \"contracts/ExampleMessenger.sol\":166:206  constructor(){... */\n  callvalue\n  dup1\n  iszero\n  tag_1\n  jumpi\n  0x00\n  dup1\n  revert\ntag_1:\n  pop\n    /* \"contracts/ExampleMessenger.sol\":193:203  msg.sender */\n  caller\n    /* \"contracts/ExampleMessenger.sol\":185:190  owner */\n  0x01\n  0x00\n    /* \"contracts/ExampleMessenger.sol\":185:203  owner = msg.sender */\n  0x0100\n  exp\n  dup2\n  sload\n  dup2\n  0xffffffffffffffffffffffffffffffffffffffff\n  mul\n  not\n  and\n  swap1\n  dup4\n  0xffffffffffffffffffffffffffffffffffffffff\n  and\n  mul\n  or\n  swap1\n  sstore\n  pop\n    /* \"contracts/ExampleMessenger.sol\":59:387  contract BlockchainMessenger{... */\n  dataSize(sub_0)\n  dup1\n  dataOffset(sub_0)\n  0x00\n  codecopy\n  0x00\n  return\nstop\n\nsub_0: assembly {\n        /* \"contracts/ExampleMessenger.sol\":59:387  contract BlockchainMessenger{... */\n      mstore(0x40, 0x80)\n      callvalue\n      dup1\n      iszero\n      tag_1\n      jumpi\n      0x00\n      dup1\n      revert\n    tag_1:\n      pop\n      jumpi(tag_2, lt(calldatasize, 0x04))\n      shr(0xe0, calldataload(0x00))\n      dup1\n      0x6a394434\n      eq\n      tag_3\n      jumpi\n      dup1\n      0x8da5cb5b\n      eq\n      tag_4\n      jumpi\n      dup1\n      0xaaf4389a\n      eq\n      tag_5\n      jumpi\n      dup1\n      0xe21f37ce\n      eq\n      tag_6\n      jumpi\n    tag_2:\n      0x00\n      dup1\n      revert\n        /* \"contracts/ExampleMessenger.sol\":208:383  function updateTheMessage(string memory _newMessage) public {... */\n    tag_3:\n      tag_7\n      0x04\n      dup1\n      calldatasize\n      sub\n      dup2\n      add\n      swap1\n      tag_8\n      swap2\n      swap1\n      tag_9\n      jump\t// in\n    tag_8:\n      tag_10\n      jump\t// in\n    tag_7:\n      stop\n        /* \"contracts/ExampleMessenger.sol\":120:140  address public owner */\n    tag_4:\n      tag_11\n      tag_12\n      jump\t// in\n    tag_11:\n      mload(0x40)\n      tag_13\n      swap2\n      swap1\n      tag_14\n      jump\t// in\n    tag_13:\n      mload(0x40)\n      dup1\n      swap2\n      sub\n      swap1\n      return\n        /* \"contracts/ExampleMessenger.sol\":92:117  uint public changeCounter */\n    tag_5:\n      tag_15\n      tag_16\n      jump\t// in\n    tag_15:\n      mload(0x40)\n      tag_17\n      swap2\n      swap1\n      tag_18\n      jump\t// in\n    tag_17:\n      mload(0x40)\n      dup1\n      swap2\n      sub\n      swap1\n      return\n        /* \"contracts/ExampleMessenger.sol\":142:163  string public message */\n    tag_6:\n      tag_19\n      tag_20\n      jump\t// in\n    tag_19:\n      mload(0x40)\n      tag_21\n      swap2\n      swap1\n      tag_22\n      jump\t// in\n    tag_21:\n      mload(0x40)\n      dup1\n      swap2\n      sub\n      swap1\n      return\n        /* \"contracts/ExampleMessenger.sol\":208:383  function updateTheMessage(string memory _newMessage) public {... */\n    tag_10:\n        /* \"contracts/ExampleMessenger.sol\":295:300  owner */\n      0x01\n      0x00\n      swap1\n      sload\n      swap1\n      0x0100\n      exp\n      swap1\n      div\n      0xffffffffffffffffffffffffffffffffffffffff\n      and\n        /* \"contracts/ExampleMessenger.sol\":281:300  msg.sender == owner */\n      0xffffffffffffffffffffffffffffffffffffffff\n      and\n        /* \"contracts/ExampleMessenger.sol\":281:291  msg.sender */\n      caller\n        /* \"contracts/ExampleMessenger.sol\":281:300  msg.sender == owner */\n      0xffffffffffffffffffffffffffffffffffffffff\n      and\n      sub\n        /* \"contracts/ExampleMessenger.sol\":278:377  if(msg.sender == owner) {... */\n      tag_24\n      jumpi\n        /* \"contracts/ExampleMessenger.sol\":326:337  _newMessage */\n      dup1\n        /* \"contracts/ExampleMessenger.sol\":316:323  message */\n      0x02\n        /* \"contracts/ExampleMessenger.sol\":316:337  message = _newMessage */\n      swap1\n      dup2\n      tag_25\n      swap2\n      swap1\n      tag_26\n      jump\t// in\n    tag_25:\n      pop\n        /* \"contracts/ExampleMessenger.sol\":351:364  changeCounter */\n      0x00\n      dup1\n        /* \"contracts/ExampleMessenger.sol\":351:366  changeCounter++ */\n      dup2\n      sload\n      dup1\n      swap3\n      swap2\n      swap1\n      tag_27\n      swap1\n      tag_28\n      jump\t// in\n    tag_27:\n      swap2\n      swap1\n      pop\n      sstore\n      pop\n        /* \"contracts/ExampleMessenger.sol\":278:377  if(msg.sender == owner) {... */\n    tag_24:\n        /* \"contracts/ExampleMessenger.sol\":208:383  function updateTheMessage(string memory _newMessage) public {... */\n      pop\n      jump\t// out\n        /* \"contracts/ExampleMessenger.sol\":120:140  address public owner */\n    tag_12:\n      0x01\n      0x00\n      swap1\n      sload\n      swap1\n      0x0100\n      exp\n      swap1\n      div\n      0xffffffffffffffffffffffffffffffffffffffff\n      and\n      dup2\n      jump\t// out\n        /* \"contracts/ExampleMessenger.sol\":92:117  uint public changeCounter */\n    tag_16:\n      sload(0x00)\n      dup2\n      jump\t// out\n        /* \"contracts/ExampleMessenger.sol\":142:163  string public message */\n    tag_20:\n      0x02\n      dup1\n      sload\n      tag_29\n      swap1\n      tag_30\n      jump\t// in\n    tag_29:\n      dup1\n      0x1f\n      add\n      0x20\n      dup1\n      swap2\n      div\n      mul\n      0x20\n      add\n      mload(0x40)\n      swap1\n      dup2\n      add\n      0x40\n      mstore\n      dup1\n      swap3\n      swap2\n      swap1\n      dup2\n      dup2\n      mstore\n      0x20\n      add\n      dup3\n      dup1\n      sload\n      tag_31\n      swap1\n      tag_30\n      jump\t// in\n    tag_31:\n      dup1\n      iszero\n      tag_32\n      jumpi\n      dup1\n      0x1f\n      lt\n      tag_33\n      jumpi\n      0x0100\n      dup1\n      dup4\n      sload\n      div\n      mul\n      dup4\n      mstore\n      swap2\n      0x20\n      add\n      swap2\n      jump(tag_32)\n    tag_33:\n      dup3\n      add\n      swap2\n      swap1\n      0x00\n      mstore\n      keccak256(0x00, 0x20)\n      swap1\n    tag_34:\n      dup2\n      sload\n      dup2\n      mstore\n      swap1\n      0x01\n      add\n      swap1\n      0x20\n      add\n      dup1\n      dup4\n      gt\n      tag_34\n      jumpi\n      dup3\n      swap1\n      sub\n      0x1f\n      and\n      dup3\n      add\n      swap2\n    tag_32:\n      pop\n      pop\n      pop\n      pop\n      pop\n      dup2\n      jump\t// out\n        /* \"#utility.yul\":7:82   */\n    tag_35:\n        /* \"#utility.yul\":40:46   */\n      0x00\n        /* \"#utility.yul\":73:75   */\n      0x40\n        /* \"#utility.yul\":67:76   */\n      mload\n        /* \"#utility.yul\":57:76   */\n      swap1\n      pop\n        /* \"#utility.yul\":7:82   */\n      swap1\n      jump\t// out\n        /* \"#utility.yul\":88:205   */\n    tag_36:\n        /* \"#utility.yul\":197:198   */\n      0x00\n        /* \"#utility.yul\":194:195   */\n      dup1\n        /* \"#utility.yul\":187:199   */\n      revert\n        /* \"#utility.yul\":211:328   */\n    tag_37:\n        /* \"#utility.yul\":320:321   */\n      0x00\n        /* \"#utility.yul\":317:318   */\n      dup1\n        /* \"#utility.yul\":310:322   */\n      revert\n        /* \"#utility.yul\":334:451   */\n    tag_38:\n        /* \"#utility.yul\":443:444   */\n      0x00\n        /* \"#utility.yul\":440:441   */\n      dup1\n        /* \"#utility.yul\":433:445   */\n      revert\n        /* \"#utility.yul\":457:574   */\n    tag_39:\n        /* \"#utility.yul\":566:567   */\n      0x00\n        /* \"#utility.yul\":563:564   */\n      dup1\n        /* \"#utility.yul\":556:568   */\n      revert\n        /* \"#utility.yul\":580:682   */\n    tag_40:\n        /* \"#utility.yul\":621:627   */\n      0x00\n        /* \"#utility.yul\":672:674   */\n      0x1f\n        /* \"#utility.yul\":668:675   */\n      not\n        /* \"#utility.yul\":663:665   */\n      0x1f\n        /* \"#utility.yul\":656:661   */\n      dup4\n        /* \"#utility.yul\":652:666   */\n      add\n        /* \"#utility.yul\":648:676   */\n      and\n        /* \"#utility.yul\":638:676   */\n      swap1\n      pop\n        /* \"#utility.yul\":580:682   */\n      swap2\n      swap1\n      pop\n      jump\t// out\n        /* \"#utility.yul\":688:868   */\n    tag_41:\n        /* \"#utility.yul\":736:813   */\n      0x4e487b7100000000000000000000000000000000000000000000000000000000\n        /* \"#utility.yul\":733:734   */\n      0x00\n        /* \"#utility.yul\":726:814   */\n      mstore\n        /* \"#utility.yul\":833:837   */\n      0x41\n        /* \"#utility.yul\":830:831   */\n      0x04\n        /* \"#utility.yul\":823:838   */\n      mstore\n        /* \"#utility.yul\":857:861   */\n      0x24\n        /* \"#utility.yul\":854:855   */\n      0x00\n        /* \"#utility.yul\":847:862   */\n      revert\n        /* \"#utility.yul\":874:1155   */\n    tag_42:\n        /* \"#utility.yul\":957:984   */\n      tag_83\n        /* \"#utility.yul\":979:983   */\n      dup3\n        /* \"#utility.yul\":957:984   */\n      tag_40\n      jump\t// in\n    tag_83:\n        /* \"#utility.yul\":949:955   */\n      dup2\n        /* \"#utility.yul\":945:985   */\n      add\n        /* \"#utility.yul\":1087:1093   */\n      dup2\n        /* \"#utility.yul\":1075:1085   */\n      dup2\n        /* \"#utility.yul\":1072:1094   */\n      lt\n        /* \"#utility.yul\":1051:1069   */\n      0xffffffffffffffff\n        /* \"#utility.yul\":1039:1049   */\n      dup3\n        /* \"#utility.yul\":1036:1070   */\n      gt\n        /* \"#utility.yul\":1033:1095   */\n      or\n        /* \"#utility.yul\":1030:1118   */\n      iszero\n      tag_84\n      jumpi\n        /* \"#utility.yul\":1098:1116   */\n      tag_85\n      tag_41\n      jump\t// in\n    tag_85:\n        /* \"#utility.yul\":1030:1118   */\n    tag_84:\n        /* \"#utility.yul\":1138:1148   */\n      dup1\n        /* \"#utility.yul\":1134:1136   */\n      0x40\n        /* \"#utility.yul\":1127:1149   */\n      mstore\n        /* \"#utility.yul\":917:1155   */\n      pop\n        /* \"#utility.yul\":874:1155   */\n      pop\n      pop\n      jump\t// out\n        /* \"#utility.yul\":1161:1290   */\n    tag_43:\n        /* \"#utility.yul\":1195:1201   */\n      0x00\n        /* \"#utility.yul\":1222:1242   */\n      tag_87\n      tag_35\n      jump\t// in\n    tag_87:\n        /* \"#utility.yul\":1212:1242   */\n      swap1\n      pop\n        /* \"#utility.yul\":1251:1284   */\n      tag_88\n        /* \"#utility.yul\":1279:1283   */\n      dup3\n        /* \"#utility.yul\":1271:1277   */\n      dup3\n        /* \"#utility.yul\":1251:1284   */\n      tag_42\n      jump\t// in\n    tag_88:\n        /* \"#utility.yul\":1161:1290   */\n      swap2\n      swap1\n      pop\n      jump\t// out\n        /* \"#utility.yul\":1296:1604   */\n    tag_44:\n        /* \"#utility.yul\":1358:1362   */\n      0x00\n        /* \"#utility.yul\":1448:1466   */\n      0xffffffffffffffff\n        /* \"#utility.yul\":1440:1446   */\n      dup3\n        /* \"#utility.yul\":1437:1467   */\n      gt\n        /* \"#utility.yul\":1434:1490   */\n      iszero\n      tag_90\n      jumpi\n        /* \"#utility.yul\":1470:1488   */\n      tag_91\n      tag_41\n      jump\t// in\n    tag_91:\n        /* \"#utility.yul\":1434:1490   */\n    tag_90:\n        /* \"#utility.yul\":1508:1537   */\n      tag_92\n        /* \"#utility.yul\":1530:1536   */\n      dup3\n        /* \"#utility.yul\":1508:1537   */\n      tag_40\n      jump\t// in\n    tag_92:\n        /* \"#utility.yul\":1500:1537   */\n      swap1\n      pop\n        /* \"#utility.yul\":1592:1596   */\n      0x20\n        /* \"#utility.yul\":1586:1590   */\n      dup2\n        /* \"#utility.yul\":1582:1597   */\n      add\n        /* \"#utility.yul\":1574:1597   */\n      swap1\n      pop\n        /* \"#utility.yul\":1296:1604   */\n      swap2\n      swap1\n      pop\n      jump\t// out\n        /* \"#utility.yul\":1610:1758   */\n    tag_45:\n        /* \"#utility.yul\":1708:1714   */\n      dup3\n        /* \"#utility.yul\":1703:1706   */\n      dup2\n        /* \"#utility.yul\":1698:1701   */\n      dup4\n        /* \"#utility.yul\":1685:1715   */\n      calldatacopy\n        /* \"#utility.yul\":1749:1750   */\n      0x00\n        /* \"#utility.yul\":1740:1746   */\n      dup4\n        /* \"#utility.yul\":1735:1738   */\n      dup4\n        /* \"#utility.yul\":1731:1747   */\n      add\n        /* \"#utility.yul\":1724:1751   */\n      mstore\n        /* \"#utility.yul\":1610:1758   */\n      pop\n      pop\n      pop\n      jump\t// out\n        /* \"#utility.yul\":1764:2189   */\n    tag_46:\n        /* \"#utility.yul\":1842:1847   */\n      0x00\n        /* \"#utility.yul\":1867:1933   */\n      tag_95\n        /* \"#utility.yul\":1883:1932   */\n      tag_96\n        /* \"#utility.yul\":1925:1931   */\n      dup5\n        /* \"#utility.yul\":1883:1932   */\n      tag_44\n      jump\t// in\n    tag_96:\n        /* \"#utility.yul\":1867:1933   */\n      tag_43\n      jump\t// in\n    tag_95:\n        /* \"#utility.yul\":1858:1933   */\n      swap1\n      pop\n        /* \"#utility.yul\":1956:1962   */\n      dup3\n        /* \"#utility.yul\":1949:1954   */\n      dup2\n        /* \"#utility.yul\":1942:1963   */\n      mstore\n        /* \"#utility.yul\":1994:1998   */\n      0x20\n        /* \"#utility.yul\":1987:1992   */\n      dup2\n        /* \"#utility.yul\":1983:1999   */\n      add\n        /* \"#utility.yul\":2032:2035   */\n      dup5\n        /* \"#utility.yul\":2023:2029   */\n      dup5\n        /* \"#utility.yul\":2018:2021   */\n      dup5\n        /* \"#utility.yul\":2014:2030   */\n      add\n        /* \"#utility.yul\":2011:2036   */\n      gt\n        /* \"#utility.yul\":2008:2120   */\n      iszero\n      tag_97\n      jumpi\n        /* \"#utility.yul\":2039:2118   */\n      tag_98\n      tag_39\n      jump\t// in\n    tag_98:\n        /* \"#utility.yul\":2008:2120   */\n    tag_97:\n        /* \"#utility.yul\":2129:2183   */\n      tag_99\n        /* \"#utility.yul\":2176:2182   */\n      dup5\n        /* \"#utility.yul\":2171:2174   */\n      dup3\n        /* \"#utility.yul\":2166:2169   */\n      dup6\n        /* \"#utility.yul\":2129:2183   */\n      tag_45\n      jump\t// in\n    tag_99:\n        /* \"#utility.yul\":1848:2189   */\n      pop\n        /* \"#utility.yul\":1764:2189   */\n      swap4\n      swap3\n      pop\n      pop\n      pop\n      jump\t// out\n        /* \"#utility.yul\":2209:2549   */\n    tag_47:\n        /* \"#utility.yul\":2265:2270   */\n      0x00\n        /* \"#utility.yul\":2314:2317   */\n      dup3\n        /* \"#utility.yul\":2307:2311   */\n      0x1f\n        /* \"#utility.yul\":2299:2305   */\n      dup4\n        /* \"#utility.yul\":2295:2312   */\n      add\n        /* \"#utility.yul\":2291:2318   */\n      slt\n        /* \"#utility.yul\":2281:2403   */\n      tag_101\n      jumpi\n        /* \"#utility.yul\":2322:2401   */\n      tag_102\n      tag_38\n      jump\t// in\n    tag_102:\n        /* \"#utility.yul\":2281:2403   */\n    tag_101:\n        /* \"#utility.yul\":2439:2445   */\n      dup2\n        /* \"#utility.yul\":2426:2446   */\n      calldataload\n        /* \"#utility.yul\":2464:2543   */\n      tag_103\n        /* \"#utility.yul\":2539:2542   */\n      dup5\n        /* \"#utility.yul\":2531:2537   */\n      dup3\n        /* \"#utility.yul\":2524:2528   */\n      0x20\n        /* \"#utility.yul\":2516:2522   */\n      dup7\n        /* \"#utility.yul\":2512:2529   */\n      add\n        /* \"#utility.yul\":2464:2543   */\n      tag_46\n      jump\t// in\n    tag_103:\n        /* \"#utility.yul\":2455:2543   */\n      swap2\n      pop\n        /* \"#utility.yul\":2271:2549   */\n      pop\n        /* \"#utility.yul\":2209:2549   */\n      swap3\n      swap2\n      pop\n      pop\n      jump\t// out\n        /* \"#utility.yul\":2555:3064   */\n    tag_9:\n        /* \"#utility.yul\":2624:2630   */\n      0x00\n        /* \"#utility.yul\":2673:2675   */\n      0x20\n        /* \"#utility.yul\":2661:2670   */\n      dup3\n        /* \"#utility.yul\":2652:2659   */\n      dup5\n        /* \"#utility.yul\":2648:2671   */\n      sub\n        /* \"#utility.yul\":2644:2676   */\n      slt\n        /* \"#utility.yul\":2641:2760   */\n      iszero\n      tag_105\n      jumpi\n        /* \"#utility.yul\":2679:2758   */\n      tag_106\n      tag_36\n      jump\t// in\n    tag_106:\n        /* \"#utility.yul\":2641:2760   */\n    tag_105:\n        /* \"#utility.yul\":2827:2828   */\n      0x00\n        /* \"#utility.yul\":2816:2825   */\n      dup3\n        /* \"#utility.yul\":2812:2829   */\n      add\n        /* \"#utility.yul\":2799:2830   */\n      calldataload\n        /* \"#utility.yul\":2857:2875   */\n      0xffffffffffffffff\n        /* \"#utility.yul\":2849:2855   */\n      dup2\n        /* \"#utility.yul\":2846:2876   */\n      gt\n        /* \"#utility.yul\":2843:2960   */\n      iszero\n      tag_107\n      jumpi\n        /* \"#utility.yul\":2879:2958   */\n      tag_108\n      tag_37\n      jump\t// in\n    tag_108:\n        /* \"#utility.yul\":2843:2960   */\n    tag_107:\n        /* \"#utility.yul\":2984:3047   */\n      tag_109\n        /* \"#utility.yul\":3039:3046   */\n      dup5\n        /* \"#utility.yul\":3030:3036   */\n      dup3\n        /* \"#utility.yul\":3019:3028   */\n      dup6\n        /* \"#utility.yul\":3015:3037   */\n      add\n        /* \"#utility.yul\":2984:3047   */\n      tag_47\n      jump\t// in\n    tag_109:\n        /* \"#utility.yul\":2974:3047   */\n      swap2\n      pop\n        /* \"#utility.yul\":2770:3057   */\n      pop\n        /* \"#utility.yul\":2555:3064   */\n      swap3\n      swap2\n      pop\n      pop\n      jump\t// out\n        /* \"#utility.yul\":3070:3196   */\n    tag_48:\n        /* \"#utility.yul\":3107:3114   */\n      0x00\n        /* \"#utility.yul\":3147:3189   */\n      0xffffffffffffffffffffffffffffffffffffffff\n        /* \"#utility.yul\":3140:3145   */\n      dup3\n        /* \"#utility.yul\":3136:3190   */\n      and\n        /* \"#utility.yul\":3125:3190   */\n      swap1\n      pop\n        /* \"#utility.yul\":3070:3196   */\n      swap2\n      swap1\n      pop\n      jump\t// out\n        /* \"#utility.yul\":3202:3298   */\n    tag_49:\n        /* \"#utility.yul\":3239:3246   */\n      0x00\n        /* \"#utility.yul\":3268:3292   */\n      tag_112\n        /* \"#utility.yul\":3286:3291   */\n      dup3\n        /* \"#utility.yul\":3268:3292   */\n      tag_48\n      jump\t// in\n    tag_112:\n        /* \"#utility.yul\":3257:3292   */\n      swap1\n      pop\n        /* \"#utility.yul\":3202:3298   */\n      swap2\n      swap1\n      pop\n      jump\t// out\n        /* \"#utility.yul\":3304:3422   */\n    tag_50:\n        /* \"#utility.yul\":3391:3415   */\n      tag_114\n        /* \"#utility.yul\":3409:3414   */\n      dup2\n        /* \"#utility.yul\":3391:3415   */\n      tag_49\n      jump\t// in\n    tag_114:\n        /* \"#utility.yul\":3386:3389   */\n      dup3\n        /* \"#utility.yul\":3379:3416   */\n      mstore\n        /* \"#utility.yul\":3304:3422   */\n      pop\n      pop\n      jump\t// out\n        /* \"#utility.yul\":3428:3650   */\n    tag_14:\n        /* \"#utility.yul\":3521:3525   */\n      0x00\n        /* \"#utility.yul\":3559:3561   */\n      0x20\n        /* \"#utility.yul\":3548:3557   */\n      dup3\n        /* \"#utility.yul\":3544:3562   */\n      add\n        /* \"#utility.yul\":3536:3562   */\n      swap1\n      pop\n        /* \"#utility.yul\":3572:3643   */\n      tag_116\n        /* \"#utility.yul\":3640:3641   */\n      0x00\n        /* \"#utility.yul\":3629:3638   */\n      dup4\n        /* \"#utility.yul\":3625:3642   */\n      add\n        /* \"#utility.yul\":3616:3622   */\n      dup5\n        /* \"#utility.yul\":3572:3643   */\n      tag_50\n      jump\t// in\n    tag_116:\n        /* \"#utility.yul\":3428:3650   */\n      swap3\n      swap2\n      pop\n      pop\n      jump\t// out\n        /* \"#utility.yul\":3656:3733   */\n    tag_51:\n        /* \"#utility.yul\":3693:3700   */\n      0x00\n        /* \"#utility.yul\":3722:3727   */\n      dup2\n        /* \"#utility.yul\":3711:3727   */\n      swap1\n      pop\n        /* \"#utility.yul\":3656:3733   */\n      swap2\n      swap1\n      pop\n      jump\t// out\n        /* \"#utility.yul\":3739:3857   */\n    tag_52:\n        /* \"#utility.yul\":3826:3850   */\n      tag_119\n        /* \"#utility.yul\":3844:3849   */\n      dup2\n        /* \"#utility.yul\":3826:3850   */\n      tag_51\n      jump\t// in\n    tag_119:\n        /* \"#utility.yul\":3821:3824   */\n      dup3\n        /* \"#utility.yul\":3814:3851   */\n      mstore\n        /* \"#utility.yul\":3739:3857   */\n      pop\n      pop\n      jump\t// out\n        /* \"#utility.yul\":3863:4085   */\n    tag_18:\n        /* \"#utility.yul\":3956:3960   */\n      0x00\n        /* \"#utility.yul\":3994:3996   */\n      0x20\n        /* \"#utility.yul\":3983:3992   */\n      dup3\n        /* \"#utility.yul\":3979:3997   */\n      add\n        /* \"#utility.yul\":3971:3997   */\n      swap1\n      pop\n        /* \"#utility.yul\":4007:4078   */\n      tag_121\n        /* \"#utility.yul\":4075:4076   */\n      0x00\n        /* \"#utility.yul\":4064:4073   */\n      dup4\n        /* \"#utility.yul\":4060:4077   */\n      add\n        /* \"#utility.yul\":4051:4057   */\n      dup5\n        /* \"#utility.yul\":4007:4078   */\n      tag_52\n      jump\t// in\n    tag_121:\n        /* \"#utility.yul\":3863:4085   */\n      swap3\n      swap2\n      pop\n      pop\n      jump\t// out\n        /* \"#utility.yul\":4091:4190   */\n    tag_53:\n        /* \"#utility.yul\":4143:4149   */\n      0x00\n        /* \"#utility.yul\":4177:4182   */\n      dup2\n        /* \"#utility.yul\":4171:4183   */\n      mload\n        /* \"#utility.yul\":4161:4183   */\n      swap1\n      pop\n        /* \"#utility.yul\":4091:4190   */\n      swap2\n      swap1\n      pop\n      jump\t// out\n        /* \"#utility.yul\":4196:4365   */\n    tag_54:\n        /* \"#utility.yul\":4280:4291   */\n      0x00\n        /* \"#utility.yul\":4314:4320   */\n      dup3\n        /* \"#utility.yul\":4309:4312   */\n      dup3\n        /* \"#utility.yul\":4302:4321   */\n      mstore\n        /* \"#utility.yul\":4354:4358   */\n      0x20\n        /* \"#utility.yul\":4349:4352   */\n      dup3\n        /* \"#utility.yul\":4345:4359   */\n      add\n        /* \"#utility.yul\":4330:4359   */\n      swap1\n      pop\n        /* \"#utility.yul\":4196:4365   */\n      swap3\n      swap2\n      pop\n      pop\n      jump\t// out\n        /* \"#utility.yul\":4371:4510   */\n    tag_55:\n        /* \"#utility.yul\":4460:4466   */\n      dup3\n        /* \"#utility.yul\":4455:4458   */\n      dup2\n        /* \"#utility.yul\":4450:4453   */\n      dup4\n        /* \"#utility.yul\":4444:4467   */\n      mcopy\n        /* \"#utility.yul\":4501:4502   */\n      0x00\n        /* \"#utility.yul\":4492:4498   */\n      dup4\n        /* \"#utility.yul\":4487:4490   */\n      dup4\n        /* \"#utility.yul\":4483:4499   */\n      add\n        /* \"#utility.yul\":4476:4503   */\n      mstore\n        /* \"#utility.yul\":4371:4510   */\n      pop\n      pop\n      pop\n      jump\t// out\n        /* \"#utility.yul\":4516:4893   */\n    tag_56:\n        /* \"#utility.yul\":4604:4607   */\n      0x00\n        /* \"#utility.yul\":4632:4671   */\n      tag_126\n        /* \"#utility.yul\":4665:4670   */\n      dup3\n        /* \"#utility.yul\":4632:4671   */\n      tag_53\n      jump\t// in\n    tag_126:\n        /* \"#utility.yul\":4687:4758   */\n      tag_127\n        /* \"#utility.yul\":4751:4757   */\n      dup2\n        /* \"#utility.yul\":4746:4749   */\n      dup6\n        /* \"#utility.yul\":4687:4758   */\n      tag_54\n      jump\t// in\n    tag_127:\n        /* \"#utility.yul\":4680:4758   */\n      swap4\n      pop\n        /* \"#utility.yul\":4767:4832   */\n      tag_128\n        /* \"#utility.yul\":4825:4831   */\n      dup2\n        /* \"#utility.yul\":4820:4823   */\n      dup6\n        /* \"#utility.yul\":4813:4817   */\n      0x20\n        /* \"#utility.yul\":4806:4811   */\n      dup7\n        /* \"#utility.yul\":4802:4818   */\n      add\n        /* \"#utility.yul\":4767:4832   */\n      tag_55\n      jump\t// in\n    tag_128:\n        /* \"#utility.yul\":4857:4886   */\n      tag_129\n        /* \"#utility.yul\":4879:4885   */\n      dup2\n        /* \"#utility.yul\":4857:4886   */\n      tag_40\n      jump\t// in\n    tag_129:\n        /* \"#utility.yul\":4852:4855   */\n      dup5\n        /* \"#utility.yul\":4848:4887   */\n      add\n        /* \"#utility.yul\":4841:4887   */\n      swap2\n      pop\n        /* \"#utility.yul\":4608:4893   */\n      pop\n        /* \"#utility.yul\":4516:4893   */\n      swap3\n      swap2\n      pop\n      pop\n      jump\t// out\n        /* \"#utility.yul\":4899:5212   */\n    tag_22:\n        /* \"#utility.yul\":5012:5016   */\n      0x00\n        /* \"#utility.yul\":5050:5052   */\n      0x20\n        /* \"#utility.yul\":5039:5048   */\n      dup3\n        /* \"#utility.yul\":5035:5053   */\n      add\n        /* \"#utility.yul\":5027:5053   */\n      swap1\n      pop\n        /* \"#utility.yul\":5099:5108   */\n      dup2\n        /* \"#utility.yul\":5093:5097   */\n      dup2\n        /* \"#utility.yul\":5089:5109   */\n      sub\n        /* \"#utility.yul\":5085:5086   */\n      0x00\n        /* \"#utility.yul\":5074:5083   */\n      dup4\n        /* \"#utility.yul\":5070:5087   */\n      add\n        /* \"#utility.yul\":5063:5110   */\n      mstore\n        /* \"#utility.yul\":5127:5205   */\n      tag_131\n        /* \"#utility.yul\":5200:5204   */\n      dup2\n        /* \"#utility.yul\":5191:5197   */\n      dup5\n        /* \"#utility.yul\":5127:5205   */\n      tag_56\n      jump\t// in\n    tag_131:\n        /* \"#utility.yul\":5119:5205   */\n      swap1\n      pop\n        /* \"#utility.yul\":4899:5212   */\n      swap3\n      swap2\n      pop\n      pop\n      jump\t// out\n        /* \"#utility.yul\":5218:5398   */\n    tag_57:\n        /* \"#utility.yul\":5266:5343   */\n      0x4e487b7100000000000000000000000000000000000000000000000000000000\n        /* \"#utility.yul\":5263:5264   */\n      0x00\n        /* \"#utility.yul\":5256:5344   */\n      mstore\n        /* \"#utility.yul\":5363:5367   */\n      0x22\n        /* \"#utility.yul\":5360:5361   */\n      0x04\n        /* \"#utility.yul\":5353:5368   */\n      mstore\n        /* \"#utility.yul\":5387:5391   */\n      0x24\n        /* \"#utility.yul\":5384:5385   */\n      0x00\n        /* \"#utility.yul\":5377:5392   */\n      revert\n        /* \"#utility.yul\":5404:5724   */\n    tag_30:\n        /* \"#utility.yul\":5448:5454   */\n      0x00\n        /* \"#utility.yul\":5485:5486   */\n      0x02\n        /* \"#utility.yul\":5479:5483   */\n      dup3\n        /* \"#utility.yul\":5475:5487   */\n      div\n        /* \"#utility.yul\":5465:5487   */\n      swap1\n      pop\n        /* \"#utility.yul\":5532:5533   */\n      0x01\n        /* \"#utility.yul\":5526:5530   */\n      dup3\n        /* \"#utility.yul\":5522:5534   */\n      and\n        /* \"#utility.yul\":5553:5571   */\n      dup1\n        /* \"#utility.yul\":5543:5624   */\n      tag_134\n      jumpi\n        /* \"#utility.yul\":5609:5613   */\n      0x7f\n        /* \"#utility.yul\":5601:5607   */\n      dup3\n        /* \"#utility.yul\":5597:5614   */\n      and\n        /* \"#utility.yul\":5587:5614   */\n      swap2\n      pop\n        /* \"#utility.yul\":5543:5624   */\n    tag_134:\n        /* \"#utility.yul\":5671:5673   */\n      0x20\n        /* \"#utility.yul\":5663:5669   */\n      dup3\n        /* \"#utility.yul\":5660:5674   */\n      lt\n        /* \"#utility.yul\":5640:5658   */\n      dup2\n        /* \"#utility.yul\":5637:5675   */\n      sub\n        /* \"#utility.yul\":5634:5718   */\n      tag_135\n      jumpi\n        /* \"#utility.yul\":5690:5708   */\n      tag_136\n      tag_57\n      jump\t// in\n    tag_136:\n        /* \"#utility.yul\":5634:5718   */\n    tag_135:\n        /* \"#utility.yul\":5455:5724   */\n      pop\n        /* \"#utility.yul\":5404:5724   */\n      swap2\n      swap1\n      pop\n      jump\t// out\n        /* \"#utility.yul\":5730:5871   */\n    tag_58:\n        /* \"#utility.yul\":5779:5783   */\n      0x00\n        /* \"#utility.yul\":5802:5805   */\n      dup2\n        /* \"#utility.yul\":5794:5805   */\n      swap1\n      pop\n        /* \"#utility.yul\":5825:5828   */\n      dup2\n        /* \"#utility.yul\":5822:5823   */\n      0x00\n        /* \"#utility.yul\":5815:5829   */\n      mstore\n        /* \"#utility.yul\":5859:5863   */\n      0x20\n        /* \"#utility.yul\":5856:5857   */\n      0x00\n        /* \"#utility.yul\":5846:5864   */\n      keccak256\n        /* \"#utility.yul\":5838:5864   */\n      swap1\n      pop\n        /* \"#utility.yul\":5730:5871   */\n      swap2\n      swap1\n      pop\n      jump\t// out\n        /* \"#utility.yul\":5877:5970   */\n    tag_59:\n        /* \"#utility.yul\":5914:5920   */\n      0x00\n        /* \"#utility.yul\":5961:5963   */\n      0x20\n        /* \"#utility.yul\":5956:5958   */\n      0x1f\n        /* \"#utility.yul\":5949:5954   */\n      dup4\n        /* \"#utility.yul\":5945:5959   */\n      add\n        /* \"#utility.yul\":5941:5964   */\n      div\n        /* \"#utility.yul\":5931:5964   */\n      swap1\n      pop\n        /* \"#utility.yul\":5877:5970   */\n      swap2\n      swap1\n      pop\n      jump\t// out\n        /* \"#utility.yul\":5976:6083   */\n    tag_60:\n        /* \"#utility.yul\":6020:6028   */\n      0x00\n        /* \"#utility.yul\":6070:6075   */\n      dup3\n        /* \"#utility.yul\":6064:6068   */\n      dup3\n        /* \"#utility.yul\":6060:6076   */\n      shl\n        /* \"#utility.yul\":6039:6076   */\n      swap1\n      pop\n        /* \"#utility.yul\":5976:6083   */\n      swap3\n      swap2\n      pop\n      pop\n      jump\t// out\n        /* \"#utility.yul\":6089:6482   */\n    tag_61:\n        /* \"#utility.yul\":6158:6164   */\n      0x00\n        /* \"#utility.yul\":6208:6209   */\n      0x08\n        /* \"#utility.yul\":6196:6206   */\n      dup4\n        /* \"#utility.yul\":6192:6210   */\n      mul\n        /* \"#utility.yul\":6231:6328   */\n      tag_141\n        /* \"#utility.yul\":6261:6327   */\n      0xffffffffffffffffffffffffffffffffffffffffffffffffffffffffffffffff\n        /* \"#utility.yul\":6250:6259   */\n      dup3\n        /* \"#utility.yul\":6231:6328   */\n      tag_60\n      jump\t// in\n    tag_141:\n        /* \"#utility.yul\":6349:6388   */\n      tag_142\n        /* \"#utility.yul\":6379:6387   */\n      dup7\n        /* \"#utility.yul\":6368:6377   */\n      dup4\n        /* \"#utility.yul\":6349:6388   */\n      tag_60\n      jump\t// in\n    tag_142:\n        /* \"#utility.yul\":6337:6388   */\n      swap6\n      pop\n        /* \"#utility.yul\":6421:6425   */\n      dup1\n        /* \"#utility.yul\":6417:6426   */\n      not\n        /* \"#utility.yul\":6410:6415   */\n      dup5\n        /* \"#utility.yul\":6406:6427   */\n      and\n        /* \"#utility.yul\":6397:6427   */\n      swap4\n      pop\n        /* \"#utility.yul\":6470:6474   */\n      dup1\n        /* \"#utility.yul\":6460:6468   */\n      dup7\n        /* \"#utility.yul\":6456:6475   */\n      and\n        /* \"#utility.yul\":6449:6454   */\n      dup5\n        /* \"#utility.yul\":6446:6476   */\n      or\n        /* \"#utility.yul\":6436:6476   */\n      swap3\n      pop\n        /* \"#utility.yul\":6165:6482   */\n      pop\n      pop\n        /* \"#utility.yul\":6089:6482   */\n      swap4\n      swap3\n      pop\n      pop\n      pop\n      jump\t// out\n        /* \"#utility.yul\":6488:6548   */\n    tag_62:\n        /* \"#utility.yul\":6516:6519   */\n      0x00\n        /* \"#utility.yul\":6537:6542   */\n      dup2\n        /* \"#utility.yul\":6530:6542   */\n      swap1\n      pop\n        /* \"#utility.yul\":6488:6548   */\n      swap2\n      swap1\n      pop\n      jump\t// out\n        /* \"#utility.yul\":6554:6696   */\n    tag_63:\n        /* \"#utility.yul\":6604:6613   */\n      0x00\n        /* \"#utility.yul\":6637:6690   */\n      tag_145\n        /* \"#utility.yul\":6655:6689   */\n      tag_146\n        /* \"#utility.yul\":6664:6688   */\n      tag_147\n        /* \"#utility.yul\":6682:6687   */\n      dup5\n        /* \"#utility.yul\":6664:6688   */\n      tag_51\n      jump\t// in\n    tag_147:\n        /* \"#utility.yul\":6655:6689   */\n      tag_62\n      jump\t// in\n    tag_146:\n        /* \"#utility.yul\":6637:6690   */\n      tag_51\n      jump\t// in\n    tag_145:\n        /* \"#utility.yul\":6624:6690   */\n      swap1\n      pop\n        /* \"#utility.yul\":6554:6696   */\n      swap2\n      swap1\n      pop\n      jump\t// out\n        /* \"#utility.yul\":6702:6777   */\n    tag_64:\n        /* \"#utility.yul\":6745:6748   */\n      0x00\n        /* \"#utility.yul\":6766:6771   */\n      dup2\n        /* \"#utility.yul\":6759:6771   */\n      swap1\n      pop\n        /* \"#utility.yul\":6702:6777   */\n      swap2\n      swap1\n      pop\n      jump\t// out\n        /* \"#utility.yul\":6783:7052   */\n    tag_65:\n        /* \"#utility.yul\":6893:6932   */\n      tag_150\n        /* \"#utility.yul\":6924:6931   */\n      dup4\n        /* \"#utility.yul\":6893:6932   */\n      tag_63\n      jump\t// in\n    tag_150:\n        /* \"#utility.yul\":6954:7045   */\n      tag_151\n        /* \"#utility.yul\":7003:7044   */\n      tag_152\n        /* \"#utility.yul\":7027:7043   */\n      dup3\n        /* \"#utility.yul\":7003:7044   */\n      tag_64\n      jump\t// in\n    tag_152:\n        /* \"#utility.yul\":6995:7001   */\n      dup5\n        /* \"#utility.yul\":6988:6992   */\n      dup5\n        /* \"#utility.yul\":6982:6993   */\n      sload\n        /* \"#utility.yul\":6954:7045   */\n      tag_61\n      jump\t// in\n    tag_151:\n        /* \"#utility.yul\":6948:6952   */\n      dup3\n        /* \"#utility.yul\":6941:7046   */\n      sstore\n        /* \"#utility.yul\":6859:7052   */\n      pop\n        /* \"#utility.yul\":6783:7052   */\n      pop\n      pop\n      pop\n      jump\t// out\n        /* \"#utility.yul\":7058:7131   */\n    tag_66:\n        /* \"#utility.yul\":7103:7106   */\n      0x00\n        /* \"#utility.yul\":7058:7131   */\n      swap1\n      jump\t// out\n        /* \"#utility.yul\":7137:7326   */\n    tag_67:\n        /* \"#utility.yul\":7214:7246   */\n      tag_155\n      tag_66\n      jump\t// in\n    tag_155:\n        /* \"#utility.yul\":7255:7320   */\n      tag_156\n        /* \"#utility.yul\":7313:7319   */\n      dup2\n        /* \"#utility.yul\":7305:7311   */\n      dup5\n        /* \"#utility.yul\":7299:7303   */\n      dup5\n        /* \"#utility.yul\":7255:7320   */\n      tag_65\n      jump\t// in\n    tag_156:\n        /* \"#utility.yul\":7190:7326   */\n      pop\n        /* \"#utility.yul\":7137:7326   */\n      pop\n      pop\n      jump\t// out\n        /* \"#utility.yul\":7332:7518   */\n    tag_68:\n        /* \"#utility.yul\":7392:7512   */\n    tag_158:\n        /* \"#utility.yul\":7409:7412   */\n      dup2\n        /* \"#utility.yul\":7402:7407   */\n      dup2\n        /* \"#utility.yul\":7399:7413   */\n      lt\n        /* \"#utility.yul\":7392:7512   */\n      iszero\n      tag_160\n      jumpi\n        /* \"#utility.yul\":7463:7502   */\n      tag_161\n        /* \"#utility.yul\":7500:7501   */\n      0x00\n        /* \"#utility.yul\":7493:7498   */\n      dup3\n        /* \"#utility.yul\":7463:7502   */\n      tag_67\n      jump\t// in\n    tag_161:\n        /* \"#utility.yul\":7436:7437   */\n      0x01\n        /* \"#utility.yul\":7429:7434   */\n      dup2\n        /* \"#utility.yul\":7425:7438   */\n      add\n        /* \"#utility.yul\":7416:7438   */\n      swap1\n      pop\n        /* \"#utility.yul\":7392:7512   */\n      jump(tag_158)\n    tag_160:\n        /* \"#utility.yul\":7332:7518   */\n      pop\n      pop\n      jump\t// out\n        /* \"#utility.yul\":7524:8067   */\n    tag_69:\n        /* \"#utility.yul\":7625:7627   */\n      0x1f\n        /* \"#utility.yul\":7620:7623   */\n      dup3\n        /* \"#utility.yul\":7617:7628   */\n      gt\n        /* \"#utility.yul\":7614:8060   */\n      iszero\n      tag_163\n      jumpi\n        /* \"#utility.yul\":7659:7697   */\n      tag_164\n        /* \"#utility.yul\":7691:7696   */\n      dup2\n        /* \"#utility.yul\":7659:7697   */\n      tag_58\n      jump\t// in\n    tag_164:\n        /* \"#utility.yul\":7743:7772   */\n      tag_165\n        /* \"#utility.yul\":7761:7771   */\n      dup5\n        /* \"#utility.yul\":7743:7772   */\n      tag_59\n      jump\t// in\n    tag_165:\n        /* \"#utility.yul\":7733:7741   */\n      dup2\n        /* \"#utility.yul\":7729:7773   */\n      add\n        /* \"#utility.yul\":7926:7928   */\n      0x20\n        /* \"#utility.yul\":7914:7924   */\n      dup6\n        /* \"#utility.yul\":7911:7929   */\n      lt\n        /* \"#utility.yul\":7908:7957   */\n      iszero\n      tag_166\n      jumpi\n        /* \"#utility.yul\":7947:7955   */\n      dup2\n        /* \"#utility.yul\":7932:7955   */\n      swap1\n      pop\n        /* \"#utility.yul\":7908:7957   */\n    tag_166:\n        /* \"#utility.yul\":7970:8050   */\n      tag_167\n        /* \"#utility.yul\":8026:8048   */\n      tag_168\n        /* \"#utility.yul\":8044:8047   */\n      dup6\n        /* \"#utility.yul\":8026:8048   */\n      tag_59\n      jump\t// in\n    tag_168:\n        /* \"#utility.yul\":8016:8024   */\n      dup4\n        /* \"#utility.yul\":8012:8049   */\n      add\n        /* \"#utility.yul\":7999:8010   */\n      dup3\n        /* \"#utility.yul\":7970:8050   */\n      tag_68\n      jump\t// in\n    tag_167:\n        /* \"#utility.yul\":7629:8060   */\n      pop\n      pop\n        /* \"#utility.yul\":7614:8060   */\n    tag_163:\n        /* \"#utility.yul\":7524:8067   */\n      pop\n      pop\n      pop\n      jump\t// out\n        /* \"#utility.yul\":8073:8190   */\n    tag_70:\n        /* \"#utility.yul\":8127:8135   */\n      0x00\n        /* \"#utility.yul\":8177:8182   */\n      dup3\n        /* \"#utility.yul\":8171:8175   */\n      dup3\n        /* \"#utility.yul\":8167:8183   */\n      shr\n        /* \"#utility.yul\":8146:8183   */\n      swap1\n      pop\n        /* \"#utility.yul\":8073:8190   */\n      swap3\n      swap2\n      pop\n      pop\n      jump\t// out\n        /* \"#utility.yul\":8196:8365   */\n    tag_71:\n        /* \"#utility.yul\":8240:8246   */\n      0x00\n        /* \"#utility.yul\":8273:8324   */\n      tag_171\n        /* \"#utility.yul\":8321:8322   */\n      0x00\n        /* \"#utility.yul\":8317:8323   */\n      not\n        /* \"#utility.yul\":8309:8314   */\n      dup5\n        /* \"#utility.yul\":8306:8307   */\n      0x08\n        /* \"#utility.yul\":8302:8315   */\n      mul\n        /* \"#utility.yul\":8273:8324   */\n      tag_70\n      jump\t// in\n    tag_171:\n        /* \"#utility.yul\":8269:8325   */\n      not\n        /* \"#utility.yul\":8354:8358   */\n      dup1\n        /* \"#utility.yul\":8348:8352   */\n      dup4\n        /* \"#utility.yul\":8344:8359   */\n      and\n        /* \"#utility.yul\":8334:8359   */\n      swap2\n      pop\n        /* \"#utility.yul\":8247:8365   */\n      pop\n        /* \"#utility.yul\":8196:8365   */\n      swap3\n      swap2\n      pop\n      pop\n      jump\t// out\n        /* \"#utility.yul\":8370:8665   */\n    tag_72:\n        /* \"#utility.yul\":8446:8450   */\n      0x00\n        /* \"#utility.yul\":8592:8621   */\n      tag_173\n        /* \"#utility.yul\":8617:8620   */\n      dup4\n        /* \"#utility.yul\":8611:8615   */\n      dup4\n        /* \"#utility.yul\":8592:8621   */\n      tag_71\n      jump\t// in\n    tag_173:\n        /* \"#utility.yul\":8584:8621   */\n      swap2\n      pop\n        /* \"#utility.yul\":8654:8657   */\n      dup3\n        /* \"#utility.yul\":8651:8652   */\n      0x02\n        /* \"#utility.yul\":8647:8658   */\n      mul\n        /* \"#utility.yul\":8641:8645   */\n      dup3\n        /* \"#utility.yul\":8638:8659   */\n      or\n        /* \"#utility.yul\":8630:8659   */\n      swap1\n      pop\n        /* \"#utility.yul\":8370:8665   */\n      swap3\n      swap2\n      pop\n      pop\n      jump\t// out\n        /* \"#utility.yul\":8670:10065   */\n    tag_26:\n        /* \"#utility.yul\":8787:8824   */\n      tag_175\n        /* \"#utility.yul\":8820:8823   */\n      dup3\n        /* \"#utility.yul\":8787:8824   */\n      tag_53\n      jump\t// in\n    tag_175:\n        /* \"#utility.yul\":8889:8907   */\n      0xffffffffffffffff\n        /* \"#utility.yul\":8881:8887   */\n      dup2\n        /* \"#utility.yul\":8878:8908   */\n      gt\n        /* \"#utility.yul\":8875:8931   */\n      iszero\n      tag_176\n      jumpi\n        /* \"#utility.yul\":8911:8929   */\n      tag_177\n      tag_41\n      jump\t// in\n    tag_177:\n        /* \"#utility.yul\":8875:8931   */\n    tag_176:\n        /* \"#utility.yul\":8955:8993   */\n      tag_178\n        /* \"#utility.yul\":8987:8991   */\n      dup3\n        /* \"#utility.yul\":8981:8992   */\n      sload\n        /* \"#utility.yul\":8955:8993   */\n      tag_30\n      jump\t// in\n    tag_178:\n        /* \"#utility.yul\":9040:9107   */\n      tag_179\n        /* \"#utility.yul\":9100:9106   */\n      dup3\n        /* \"#utility.yul\":9092:9098   */\n      dup3\n        /* \"#utility.yul\":9086:9090   */\n      dup6\n        /* \"#utility.yul\":9040:9107   */\n      tag_69\n      jump\t// in\n    tag_179:\n        /* \"#utility.yul\":9134:9135   */\n      0x00\n        /* \"#utility.yul\":9158:9162   */\n      0x20\n        /* \"#utility.yul\":9145:9162   */\n      swap1\n      pop\n        /* \"#utility.yul\":9190:9192   */\n      0x1f\n        /* \"#utility.yul\":9182:9188   */\n      dup4\n        /* \"#utility.yul\":9179:9193   */\n      gt\n        /* \"#utility.yul\":9207:9208   */\n      0x01\n        /* \"#utility.yul\":9202:9820   */\n      dup2\n      eq\n      tag_181\n      jumpi\n        /* \"#utility.yul\":9864:9865   */\n      0x00\n        /* \"#utility.yul\":9881:9887   */\n      dup5\n        /* \"#utility.yul\":9878:9955   */\n      iszero\n      tag_182\n      jumpi\n        /* \"#utility.yul\":9930:9939   */\n      dup3\n        /* \"#utility.yul\":9925:9928   */\n      dup8\n        /* \"#utility.yul\":9921:9940   */\n      add\n        /* \"#utility.yul\":9915:9941   */\n      mload\n        /* \"#utility.yul\":9906:9941   */\n      swap1\n      pop\n        /* \"#utility.yul\":9878:9955   */\n    tag_182:\n        /* \"#utility.yul\":9981:10048   */\n      tag_183\n        /* \"#utility.yul\":10041:10047   */\n      dup6\n        /* \"#utility.yul\":10034:10039   */\n      dup3\n        /* \"#utility.yul\":9981:10048   */\n      tag_72\n      jump\t// in\n    tag_183:\n        /* \"#utility.yul\":9975:9979   */\n      dup7\n        /* \"#utility.yul\":9968:10049   */\n      sstore\n        /* \"#utility.yul\":9837:10059   */\n      pop\n        /* \"#utility.yul\":9172:10059   */\n      jump(tag_180)\n        /* \"#utility.yul\":9202:9820   */\n    tag_181:\n        /* \"#utility.yul\":9254:9258   */\n      0x1f\n        /* \"#utility.yul\":9250:9259   */\n      not\n        /* \"#utility.yul\":9242:9248   */\n      dup5\n        /* \"#utility.yul\":9238:9260   */\n      and\n        /* \"#utility.yul\":9288:9325   */\n      tag_184\n        /* \"#utility.yul\":9320:9324   */\n      dup7\n        /* \"#utility.yul\":9288:9325   */\n      tag_58\n      jump\t// in\n    tag_184:\n        /* \"#utility.yul\":9347:9348   */\n      0x00\n        /* \"#utility.yul\":9361:9569   */\n    tag_185:\n        /* \"#utility.yul\":9375:9382   */\n      dup3\n        /* \"#utility.yul\":9372:9373   */\n      dup2\n        /* \"#utility.yul\":9369:9383   */\n      lt\n        /* \"#utility.yul\":9361:9569   */\n      iszero\n      tag_187\n      jumpi\n        /* \"#utility.yul\":9454:9463   */\n      dup5\n        /* \"#utility.yul\":9449:9452   */\n      dup10\n        /* \"#utility.yul\":9445:9464   */\n      add\n        /* \"#utility.yul\":9439:9465   */\n      mload\n        /* \"#utility.yul\":9431:9437   */\n      dup3\n        /* \"#utility.yul\":9424:9466   */\n      sstore\n        /* \"#utility.yul\":9505:9506   */\n      0x01\n        /* \"#utility.yul\":9497:9503   */\n      dup3\n        /* \"#utility.yul\":9493:9507   */\n      add\n        /* \"#utility.yul\":9483:9507   */\n      swap2\n      pop\n        /* \"#utility.yul\":9552:9554   */\n      0x20\n        /* \"#utility.yul\":9541:9550   */\n      dup6\n        /* \"#utility.yul\":9537:9555   */\n      add\n        /* \"#utility.yul\":9524:9555   */\n      swap5\n      pop\n        /* \"#utility.yul\":9398:9402   */\n      0x20\n        /* \"#utility.yul\":9395:9396   */\n      dup2\n        /* \"#utility.yul\":9391:9403   */\n      add\n        /* \"#utility.yul\":9386:9403   */\n      swap1\n      pop\n        /* \"#utility.yul\":9361:9569   */\n      jump(tag_185)\n    tag_187:\n        /* \"#utility.yul\":9597:9603   */\n      dup7\n        /* \"#utility.yul\":9588:9595   */\n      dup4\n        /* \"#utility.yul\":9585:9604   */\n      lt\n        /* \"#utility.yul\":9582:9761   */\n      iszero\n      tag_188\n      jumpi\n        /* \"#utility.yul\":9655:9664   */\n      dup5\n        /* \"#utility.yul\":9650:9653   */\n      dup10\n        /* \"#utility.yul\":9646:9665   */\n      add\n        /* \"#utility.yul\":9640:9666   */\n      mload\n        /* \"#utility.yul\":9698:9746   */\n      tag_189\n        /* \"#utility.yul\":9740:9744   */\n      0x1f\n        /* \"#utility.yul\":9732:9738   */\n      dup10\n        /* \"#utility.yul\":9728:9745   */\n      and\n        /* \"#utility.yul\":9717:9726   */\n      dup3\n        /* \"#utility.yul\":9698:9746   */\n      tag_71\n      jump\t// in\n    tag_189:\n        /* \"#utility.yul\":9690:9696   */\n      dup4\n        /* \"#utility.yul\":9683:9747   */\n      sstore\n        /* \"#utility.yul\":9605:9761   */\n      pop\n        /* \"#utility.yul\":9582:9761   */\n    tag_188:\n        /* \"#utility.yul\":9807:9808   */\n      0x01\n        /* \"#utility.yul\":9803:9804   */\n      0x02\n        /* \"#utility.yul\":9795:9801   */\n      dup9\n        /* \"#utility.yul\":9791:9805   */\n      mul\n        /* \"#utility.yul\":9787:9809   */\n      add\n        /* \"#utility.yul\":9781:9785   */\n      dup9\n        /* \"#utility.yul\":9774:9810   */\n      sstore\n        /* \"#utility.yul\":9209:9820   */\n      pop\n      pop\n      pop\n        /* \"#utility.yul\":9172:10059   */\n    tag_180:\n      pop\n        /* \"#utility.yul\":8762:10065   */\n      pop\n      pop\n      pop\n        /* \"#utility.yul\":8670:10065   */\n      pop\n      pop\n      jump\t// out\n        /* \"#utility.yul\":10071:10251   */\n    tag_73:\n        /* \"#utility.yul\":10119:10196   */\n      0x4e487b7100000000000000000000000000000000000000000000000000000000\n        /* \"#utility.yul\":10116:10117   */\n      0x00\n        /* \"#utility.yul\":10109:10197   */\n      mstore\n        /* \"#utility.yul\":10216:10220   */\n      0x11\n        /* \"#utility.yul\":10213:10214   */\n      0x04\n        /* \"#utility.yul\":10206:10221   */\n      mstore\n        /* \"#utility.yul\":10240:10244   */\n      0x24\n        /* \"#utility.yul\":10237:10238   */\n      0x00\n        /* \"#utility.yul\":10230:10245   */\n      revert\n        /* \"#utility.yul\":10257:10490   */\n    tag_28:\n        /* \"#utility.yul\":10296:10299   */\n      0x00\n        /* \"#utility.yul\":10319:10343   */\n      tag_192\n        /* \"#utility.yul\":10337:10342   */\n      dup3\n        /* \"#utility.yul\":10319:10343   */\n      tag_51\n      jump\t// in\n    tag_192:\n        /* \"#utility.yul\":10310:10343   */\n      swap2\n      pop\n        /* \"#utility.yul\":10365:10431   */\n      0xffffffffffffffffffffffffffffffffffffffffffffffffffffffffffffffff\n        /* \"#utility.yul\":10358:10363   */\n      dup3\n        /* \"#utility.yul\":10355:10432   */\n      sub\n        /* \"#utility.yul\":10352:10455   */\n      tag_193\n      jumpi\n        /* \"#utility.yul\":10435:10453   */\n      tag_194\n      tag_73\n      jump\t// in\n    tag_194:\n        /* \"#utility.yul\":10352:10455   */\n    tag_193:\n        /* \"#utility.yul\":10482:10483   */\n      0x01\n        /* \"#utility.yul\":10475:10480   */\n      dup3\n        /* \"#utility.yul\":10471:10484   */\n      add\n        /* \"#utility.yul\":10464:10484   */\n      swap1\n      pop\n        /* \"#utility.yul\":10257:10490   */\n      swap2\n      swap1\n      pop\n      jump\t// out\n\n    auxdata: 0xa264697066735822122021ec80ccafc77619e02b552e28b31fc9442bd665c499b4bf2c62a9ef37524aef64736f6c634300081a0033\n}\n",
				"bytecode": {
					"linkReferences": {},
					"object": "6080604052348015600e575f80fd5b503360015f6101000a81548173ffffffffffffffffffffffffffffffffffffffff021916908373ffffffffffffffffffffffffffffffffffffffff1602179055506108088061005c5f395ff3fe608060405234801561000f575f80fd5b506004361061004a575f3560e01c80636a3944341461004e5780638da5cb5b1461006a578063aaf4389a14610088578063e21f37ce146100a6575b5f80fd5b61006860048036038101906100639190610345565b6100c4565b005b610072610142565b60405161007f91906103cb565b60405180910390f35b610090610167565b60405161009d91906103fc565b60405180910390f35b6100ae61016c565b6040516100bb9190610475565b60405180910390f35b60015f9054906101000a900473ffffffffffffffffffffffffffffffffffffffff1673ffffffffffffffffffffffffffffffffffffffff163373ffffffffffffffffffffffffffffffffffffffff160361013f578060029081610127919061068f565b505f808154809291906101399061078b565b91905055505b50565b60015f9054906101000a900473ffffffffffffffffffffffffffffffffffffffff1681565b5f5481565b60028054610179906104c2565b80601f01602080910402602001604051908101604052809291908181526020018280546101a5906104c2565b80156101f05780601f106101c7576101008083540402835291602001916101f0565b820191905f5260205f20905b8154815290600101906020018083116101d357829003601f168201915b505050505081565b5f604051905090565b5f80fd5b5f80fd5b5f80fd5b5f80fd5b5f601f19601f8301169050919050565b7f4e487b71000000000000000000000000000000000000000000000000000000005f52604160045260245ffd5b61025782610211565b810181811067ffffffffffffffff8211171561027657610275610221565b5b80604052505050565b5f6102886101f8565b9050610294828261024e565b919050565b5f67ffffffffffffffff8211156102b3576102b2610221565b5b6102bc82610211565b9050602081019050919050565b828183375f83830152505050565b5f6102e96102e484610299565b61027f565b9050828152602081018484840111156103055761030461020d565b5b6103108482856102c9565b509392505050565b5f82601f83011261032c5761032b610209565b5b813561033c8482602086016102d7565b91505092915050565b5f6020828403121561035a57610359610201565b5b5f82013567ffffffffffffffff81111561037757610376610205565b5b61038384828501610318565b91505092915050565b5f73ffffffffffffffffffffffffffffffffffffffff82169050919050565b5f6103b58261038c565b9050919050565b6103c5816103ab565b82525050565b5f6020820190506103de5f8301846103bc565b92915050565b5f819050919050565b6103f6816103e4565b82525050565b5f60208201905061040f5f8301846103ed565b92915050565b5f81519050919050565b5f82825260208201905092915050565b8281835e5f83830152505050565b5f61044782610415565b610451818561041f565b935061046181856020860161042f565b61046a81610211565b840191505092915050565b5f6020820190508181035f83015261048d818461043d565b905092915050565b7f4e487b71000000000000000000000000000000000000000000000000000000005f52602260045260245ffd5b5f60028204905060018216806104d957607f821691505b6020821081036104ec576104eb610495565b5b50919050565b5f819050815f5260205f209050919050565b5f6020601f8301049050919050565b5f82821b905092915050565b5f6008830261054e7fffffffffffffffffffffffffffffffffffffffffffffffffffffffffffffffff82610513565b6105588683610513565b95508019841693508086168417925050509392505050565b5f819050919050565b5f61059361058e610589846103e4565b610570565b6103e4565b9050919050565b5f819050919050565b6105ac83610579565b6105c06105b88261059a565b84845461051f565b825550505050565b5f90565b6105d46105c8565b6105df8184846105a3565b505050565b5b81811015610602576105f75f826105cc565b6001810190506105e5565b5050565b601f82111561064757610618816104f2565b61062184610504565b81016020851015610630578190505b61064461063c85610504565b8301826105e4565b50505b505050565b5f82821c905092915050565b5f6106675f198460080261064c565b1980831691505092915050565b5f61067f8383610658565b9150826002028217905092915050565b61069882610415565b67ffffffffffffffff8111156106b1576106b0610221565b5b6106bb82546104c2565b6106c6828285610606565b5f60209050601f8311600181146106f7575f84156106e5578287015190505b6106ef8582610674565b865550610756565b601f198416610705866104f2565b5f5b8281101561072c57848901518255600182019150602085019450602081019050610707565b868310156107495784890151610745601f891682610658565b8355505b6001600288020188555050505b505050505050565b7f4e487b71000000000000000000000000000000000000000000000000000000005f52601160045260245ffd5b5f610795826103e4565b91507fffffffffffffffffffffffffffffffffffffffffffffffffffffffffffffffff82036107c7576107c661075e565b5b60018201905091905056fea264697066735822122021ec80ccafc77619e02b552e28b31fc9442bd665c499b4bf2c62a9ef37524aef64736f6c634300081a0033",
					"opcodes": "PUSH1 0x80 PUSH1 0x40 MSTORE CALLVALUE DUP1 ISZERO PUSH1 0xE JUMPI PUSH0 DUP1 REVERT JUMPDEST POP CALLER PUSH1 0x1 PUSH0 PUSH2 0x100 EXP DUP2 SLOAD DUP2 PUSH20 0xFFFFFFFFFFFFFFFFFFFFFFFFFFFFFFFFFFFFFFFF MUL NOT AND SWAP1 DUP4 PUSH20 0xFFFFFFFFFFFFFFFFFFFFFFFFFFFFFFFFFFFFFFFF AND MUL OR SWAP1 SSTORE POP PUSH2 0x808 DUP1 PUSH2 0x5C PUSH0 CODECOPY PUSH0 RETURN INVALID PUSH1 0x80 PUSH1 0x40 MSTORE CALLVALUE DUP1 ISZERO PUSH2 0xF JUMPI PUSH0 DUP1 REVERT JUMPDEST POP PUSH1 0x4 CALLDATASIZE LT PUSH2 0x4A JUMPI PUSH0 CALLDATALOAD PUSH1 0xE0 SHR DUP1 PUSH4 0x6A394434 EQ PUSH2 0x4E JUMPI DUP1 PUSH4 0x8DA5CB5B EQ PUSH2 0x6A JUMPI DUP1 PUSH4 0xAAF4389A EQ PUSH2 0x88 JUMPI DUP1 PUSH4 0xE21F37CE EQ PUSH2 0xA6 JUMPI JUMPDEST PUSH0 DUP1 REVERT JUMPDEST PUSH2 0x68 PUSH1 0x4 DUP1 CALLDATASIZE SUB DUP2 ADD SWAP1 PUSH2 0x63 SWAP2 SWAP1 PUSH2 0x345 JUMP JUMPDEST PUSH2 0xC4 JUMP JUMPDEST STOP JUMPDEST PUSH2 0x72 PUSH2 0x142 JUMP JUMPDEST PUSH1 0x40 MLOAD PUSH2 0x7F SWAP2 SWAP1 PUSH2 0x3CB JUMP JUMPDEST PUSH1 0x40 MLOAD DUP1 SWAP2 SUB SWAP1 RETURN JUMPDEST PUSH2 0x90 PUSH2 0x167 JUMP JUMPDEST PUSH1 0x40 MLOAD PUSH2 0x9D SWAP2 SWAP1 PUSH2 0x3FC JUMP JUMPDEST PUSH1 0x40 MLOAD DUP1 SWAP2 SUB SWAP1 RETURN JUMPDEST PUSH2 0xAE PUSH2 0x16C JUMP JUMPDEST PUSH1 0x40 MLOAD PUSH2 0xBB SWAP2 SWAP1 PUSH2 0x475 JUMP JUMPDEST PUSH1 0x40 MLOAD DUP1 SWAP2 SUB SWAP1 RETURN JUMPDEST PUSH1 0x1 PUSH0 SWAP1 SLOAD SWAP1 PUSH2 0x100 EXP SWAP1 DIV PUSH20 0xFFFFFFFFFFFFFFFFFFFFFFFFFFFFFFFFFFFFFFFF AND PUSH20 0xFFFFFFFFFFFFFFFFFFFFFFFFFFFFFFFFFFFFFFFF AND CALLER PUSH20 0xFFFFFFFFFFFFFFFFFFFFFFFFFFFFFFFFFFFFFFFF AND SUB PUSH2 0x13F JUMPI DUP1 PUSH1 0x2 SWAP1 DUP2 PUSH2 0x127 SWAP2 SWAP1 PUSH2 0x68F JUMP JUMPDEST POP PUSH0 DUP1 DUP2 SLOAD DUP1 SWAP3 SWAP2 SWAP1 PUSH2 0x139 SWAP1 PUSH2 0x78B JUMP JUMPDEST SWAP2 SWAP1 POP SSTORE POP JUMPDEST POP JUMP JUMPDEST PUSH1 0x1 PUSH0 SWAP1 SLOAD SWAP1 PUSH2 0x100 EXP SWAP1 DIV PUSH20 0xFFFFFFFFFFFFFFFFFFFFFFFFFFFFFFFFFFFFFFFF AND DUP2 JUMP JUMPDEST PUSH0 SLOAD DUP2 JUMP JUMPDEST PUSH1 0x2 DUP1 SLOAD PUSH2 0x179 SWAP1 PUSH2 0x4C2 JUMP JUMPDEST DUP1 PUSH1 0x1F ADD PUSH1 0x20 DUP1 SWAP2 DIV MUL PUSH1 0x20 ADD PUSH1 0x40 MLOAD SWAP1 DUP2 ADD PUSH1 0x40 MSTORE DUP1 SWAP3 SWAP2 SWAP1 DUP2 DUP2 MSTORE PUSH1 0x20 ADD DUP3 DUP1 SLOAD PUSH2 0x1A5 SWAP1 PUSH2 0x4C2 JUMP JUMPDEST DUP1 ISZERO PUSH2 0x1F0 JUMPI DUP1 PUSH1 0x1F LT PUSH2 0x1C7 JUMPI PUSH2 0x100 DUP1 DUP4 SLOAD DIV MUL DUP4 MSTORE SWAP2 PUSH1 0x20 ADD SWAP2 PUSH2 0x1F0 JUMP JUMPDEST DUP3 ADD SWAP2 SWAP1 PUSH0 MSTORE PUSH1 0x20 PUSH0 KECCAK256 SWAP1 JUMPDEST DUP2 SLOAD DUP2 MSTORE SWAP1 PUSH1 0x1 ADD SWAP1 PUSH1 0x20 ADD DUP1 DUP4 GT PUSH2 0x1D3 JUMPI DUP3 SWAP1 SUB PUSH1 0x1F AND DUP3 ADD SWAP2 JUMPDEST POP POP POP POP POP DUP2 JUMP JUMPDEST PUSH0 PUSH1 0x40 MLOAD SWAP1 POP SWAP1 JUMP JUMPDEST PUSH0 DUP1 REVERT JUMPDEST PUSH0 DUP1 REVERT JUMPDEST PUSH0 DUP1 REVERT JUMPDEST PUSH0 DUP1 REVERT JUMPDEST PUSH0 PUSH1 0x1F NOT PUSH1 0x1F DUP4 ADD AND SWAP1 POP SWAP2 SWAP1 POP JUMP JUMPDEST PUSH32 0x4E487B7100000000000000000000000000000000000000000000000000000000 PUSH0 MSTORE PUSH1 0x41 PUSH1 0x4 MSTORE PUSH1 0x24 PUSH0 REVERT JUMPDEST PUSH2 0x257 DUP3 PUSH2 0x211 JUMP JUMPDEST DUP2 ADD DUP2 DUP2 LT PUSH8 0xFFFFFFFFFFFFFFFF DUP3 GT OR ISZERO PUSH2 0x276 JUMPI PUSH2 0x275 PUSH2 0x221 JUMP JUMPDEST JUMPDEST DUP1 PUSH1 0x40 MSTORE POP POP POP JUMP JUMPDEST PUSH0 PUSH2 0x288 PUSH2 0x1F8 JUMP JUMPDEST SWAP1 POP PUSH2 0x294 DUP3 DUP3 PUSH2 0x24E JUMP JUMPDEST SWAP2 SWAP1 POP JUMP JUMPDEST PUSH0 PUSH8 0xFFFFFFFFFFFFFFFF DUP3 GT ISZERO PUSH2 0x2B3 JUMPI PUSH2 0x2B2 PUSH2 0x221 JUMP JUMPDEST JUMPDEST PUSH2 0x2BC DUP3 PUSH2 0x211 JUMP JUMPDEST SWAP1 POP PUSH1 0x20 DUP2 ADD SWAP1 POP SWAP2 SWAP1 POP JUMP JUMPDEST DUP3 DUP2 DUP4 CALLDATACOPY PUSH0 DUP4 DUP4 ADD MSTORE POP POP POP JUMP JUMPDEST PUSH0 PUSH2 0x2E9 PUSH2 0x2E4 DUP5 PUSH2 0x299 JUMP JUMPDEST PUSH2 0x27F JUMP JUMPDEST SWAP1 POP DUP3 DUP2 MSTORE PUSH1 0x20 DUP2 ADD DUP5 DUP5 DUP5 ADD GT ISZERO PUSH2 0x305 JUMPI PUSH2 0x304 PUSH2 0x20D JUMP JUMPDEST JUMPDEST PUSH2 0x310 DUP5 DUP3 DUP6 PUSH2 0x2C9 JUMP JUMPDEST POP SWAP4 SWAP3 POP POP POP JUMP JUMPDEST PUSH0 DUP3 PUSH1 0x1F DUP4 ADD SLT PUSH2 0x32C JUMPI PUSH2 0x32B PUSH2 0x209 JUMP JUMPDEST JUMPDEST DUP2 CALLDATALOAD PUSH2 0x33C DUP5 DUP3 PUSH1 0x20 DUP7 ADD PUSH2 0x2D7 JUMP JUMPDEST SWAP2 POP POP SWAP3 SWAP2 POP POP JUMP JUMPDEST PUSH0 PUSH1 0x20 DUP3 DUP5 SUB SLT ISZERO PUSH2 0x35A JUMPI PUSH2 0x359 PUSH2 0x201 JUMP JUMPDEST JUMPDEST PUSH0 DUP3 ADD CALLDATALOAD PUSH8 0xFFFFFFFFFFFFFFFF DUP2 GT ISZERO PUSH2 0x377 JUMPI PUSH2 0x376 PUSH2 0x205 JUMP JUMPDEST JUMPDEST PUSH2 0x383 DUP5 DUP3 DUP6 ADD PUSH2 0x318 JUMP JUMPDEST SWAP2 POP POP SWAP3 SWAP2 POP POP JUMP JUMPDEST PUSH0 PUSH20 0xFFFFFFFFFFFFFFFFFFFFFFFFFFFFFFFFFFFFFFFF DUP3 AND SWAP1 POP SWAP2 SWAP1 POP JUMP JUMPDEST PUSH0 PUSH2 0x3B5 DUP3 PUSH2 0x38C JUMP JUMPDEST SWAP1 POP SWAP2 SWAP1 POP JUMP JUMPDEST PUSH2 0x3C5 DUP2 PUSH2 0x3AB JUMP JUMPDEST DUP3 MSTORE POP POP JUMP JUMPDEST PUSH0 PUSH1 0x20 DUP3 ADD SWAP1 POP PUSH2 0x3DE PUSH0 DUP4 ADD DUP5 PUSH2 0x3BC JUMP JUMPDEST SWAP3 SWAP2 POP POP JUMP JUMPDEST PUSH0 DUP2 SWAP1 POP SWAP2 SWAP1 POP JUMP JUMPDEST PUSH2 0x3F6 DUP2 PUSH2 0x3E4 JUMP JUMPDEST DUP3 MSTORE POP POP JUMP JUMPDEST PUSH0 PUSH1 0x20 DUP3 ADD SWAP1 POP PUSH2 0x40F PUSH0 DUP4 ADD DUP5 PUSH2 0x3ED JUMP JUMPDEST SWAP3 SWAP2 POP POP JUMP JUMPDEST PUSH0 DUP2 MLOAD SWAP1 POP SWAP2 SWAP1 POP JUMP JUMPDEST PUSH0 DUP3 DUP3 MSTORE PUSH1 0x20 DUP3 ADD SWAP1 POP SWAP3 SWAP2 POP POP JUMP JUMPDEST DUP3 DUP2 DUP4 MCOPY PUSH0 DUP4 DUP4 ADD MSTORE POP POP POP JUMP JUMPDEST PUSH0 PUSH2 0x447 DUP3 PUSH2 0x415 JUMP JUMPDEST PUSH2 0x451 DUP2 DUP6 PUSH2 0x41F JUMP JUMPDEST SWAP4 POP PUSH2 0x461 DUP2 DUP6 PUSH1 0x20 DUP7 ADD PUSH2 0x42F JUMP JUMPDEST PUSH2 0x46A DUP2 PUSH2 0x211 JUMP JUMPDEST DUP5 ADD SWAP2 POP POP SWAP3 SWAP2 POP POP JUMP JUMPDEST PUSH0 PUSH1 0x20 DUP3 ADD SWAP1 POP DUP2 DUP2 SUB PUSH0 DUP4 ADD MSTORE PUSH2 0x48D DUP2 DUP5 PUSH2 0x43D JUMP JUMPDEST SWAP1 POP SWAP3 SWAP2 POP POP JUMP JUMPDEST PUSH32 0x4E487B7100000000000000000000000000000000000000000000000000000000 PUSH0 MSTORE PUSH1 0x22 PUSH1 0x4 MSTORE PUSH1 0x24 PUSH0 REVERT JUMPDEST PUSH0 PUSH1 0x2 DUP3 DIV SWAP1 POP PUSH1 0x1 DUP3 AND DUP1 PUSH2 0x4D9 JUMPI PUSH1 0x7F DUP3 AND SWAP2 POP JUMPDEST PUSH1 0x20 DUP3 LT DUP2 SUB PUSH2 0x4EC JUMPI PUSH2 0x4EB PUSH2 0x495 JUMP JUMPDEST JUMPDEST POP SWAP2 SWAP1 POP JUMP JUMPDEST PUSH0 DUP2 SWAP1 POP DUP2 PUSH0 MSTORE PUSH1 0x20 PUSH0 KECCAK256 SWAP1 POP SWAP2 SWAP1 POP JUMP JUMPDEST PUSH0 PUSH1 0x20 PUSH1 0x1F DUP4 ADD DIV SWAP1 POP SWAP2 SWAP1 POP JUMP JUMPDEST PUSH0 DUP3 DUP3 SHL SWAP1 POP SWAP3 SWAP2 POP POP JUMP JUMPDEST PUSH0 PUSH1 0x8 DUP4 MUL PUSH2 0x54E PUSH32 0xFFFFFFFFFFFFFFFFFFFFFFFFFFFFFFFFFFFFFFFFFFFFFFFFFFFFFFFFFFFFFFFF DUP3 PUSH2 0x513 JUMP JUMPDEST PUSH2 0x558 DUP7 DUP4 PUSH2 0x513 JUMP JUMPDEST SWAP6 POP DUP1 NOT DUP5 AND SWAP4 POP DUP1 DUP7 AND DUP5 OR SWAP3 POP POP POP SWAP4 SWAP3 POP POP POP JUMP JUMPDEST PUSH0 DUP2 SWAP1 POP SWAP2 SWAP1 POP JUMP JUMPDEST PUSH0 PUSH2 0x593 PUSH2 0x58E PUSH2 0x589 DUP5 PUSH2 0x3E4 JUMP JUMPDEST PUSH2 0x570 JUMP JUMPDEST PUSH2 0x3E4 JUMP JUMPDEST SWAP1 POP SWAP2 SWAP1 POP JUMP JUMPDEST PUSH0 DUP2 SWAP1 POP SWAP2 SWAP1 POP JUMP JUMPDEST PUSH2 0x5AC DUP4 PUSH2 0x579 JUMP JUMPDEST PUSH2 0x5C0 PUSH2 0x5B8 DUP3 PUSH2 0x59A JUMP JUMPDEST DUP5 DUP5 SLOAD PUSH2 0x51F JUMP JUMPDEST DUP3 SSTORE POP POP POP POP JUMP JUMPDEST PUSH0 SWAP1 JUMP JUMPDEST PUSH2 0x5D4 PUSH2 0x5C8 JUMP JUMPDEST PUSH2 0x5DF DUP2 DUP5 DUP5 PUSH2 0x5A3 JUMP JUMPDEST POP POP POP JUMP JUMPDEST JUMPDEST DUP2 DUP2 LT ISZERO PUSH2 0x602 JUMPI PUSH2 0x5F7 PUSH0 DUP3 PUSH2 0x5CC JUMP JUMPDEST PUSH1 0x1 DUP2 ADD SWAP1 POP PUSH2 0x5E5 JUMP JUMPDEST POP POP JUMP JUMPDEST PUSH1 0x1F DUP3 GT ISZERO PUSH2 0x647 JUMPI PUSH2 0x618 DUP2 PUSH2 0x4F2 JUMP JUMPDEST PUSH2 0x621 DUP5 PUSH2 0x504 JUMP JUMPDEST DUP2 ADD PUSH1 0x20 DUP6 LT ISZERO PUSH2 0x630 JUMPI DUP2 SWAP1 POP JUMPDEST PUSH2 0x644 PUSH2 0x63C DUP6 PUSH2 0x504 JUMP JUMPDEST DUP4 ADD DUP3 PUSH2 0x5E4 JUMP JUMPDEST POP POP JUMPDEST POP POP POP JUMP JUMPDEST PUSH0 DUP3 DUP3 SHR SWAP1 POP SWAP3 SWAP2 POP POP JUMP JUMPDEST PUSH0 PUSH2 0x667 PUSH0 NOT DUP5 PUSH1 0x8 MUL PUSH2 0x64C JUMP JUMPDEST NOT DUP1 DUP4 AND SWAP2 POP POP SWAP3 SWAP2 POP POP JUMP JUMPDEST PUSH0 PUSH2 0x67F DUP4 DUP4 PUSH2 0x658 JUMP JUMPDEST SWAP2 POP DUP3 PUSH1 0x2 MUL DUP3 OR SWAP1 POP SWAP3 SWAP2 POP POP JUMP JUMPDEST PUSH2 0x698 DUP3 PUSH2 0x415 JUMP JUMPDEST PUSH8 0xFFFFFFFFFFFFFFFF DUP2 GT ISZERO PUSH2 0x6B1 JUMPI PUSH2 0x6B0 PUSH2 0x221 JUMP JUMPDEST JUMPDEST PUSH2 0x6BB DUP3 SLOAD PUSH2 0x4C2 JUMP JUMPDEST PUSH2 0x6C6 DUP3 DUP3 DUP6 PUSH2 0x606 JUMP JUMPDEST PUSH0 PUSH1 0x20 SWAP1 POP PUSH1 0x1F DUP4 GT PUSH1 0x1 DUP2 EQ PUSH2 0x6F7 JUMPI PUSH0 DUP5 ISZERO PUSH2 0x6E5 JUMPI DUP3 DUP8 ADD MLOAD SWAP1 POP JUMPDEST PUSH2 0x6EF DUP6 DUP3 PUSH2 0x674 JUMP JUMPDEST DUP7 SSTORE POP PUSH2 0x756 JUMP JUMPDEST PUSH1 0x1F NOT DUP5 AND PUSH2 0x705 DUP7 PUSH2 0x4F2 JUMP JUMPDEST PUSH0 JUMPDEST DUP3 DUP2 LT ISZERO PUSH2 0x72C JUMPI DUP5 DUP10 ADD MLOAD DUP3 SSTORE PUSH1 0x1 DUP3 ADD SWAP2 POP PUSH1 0x20 DUP6 ADD SWAP5 POP PUSH1 0x20 DUP2 ADD SWAP1 POP PUSH2 0x707 JUMP JUMPDEST DUP7 DUP4 LT ISZERO PUSH2 0x749 JUMPI DUP5 DUP10 ADD MLOAD PUSH2 0x745 PUSH1 0x1F DUP10 AND DUP3 PUSH2 0x658 JUMP JUMPDEST DUP4 SSTORE POP JUMPDEST PUSH1 0x1 PUSH1 0x2 DUP9 MUL ADD DUP9 SSTORE POP POP POP JUMPDEST POP POP POP POP POP POP JUMP JUMPDEST PUSH32 0x4E487B7100000000000000000000000000000000000000000000000000000000 PUSH0 MSTORE PUSH1 0x11 PUSH1 0x4 MSTORE PUSH1 0x24 PUSH0 REVERT JUMPDEST PUSH0 PUSH2 0x795 DUP3 PUSH2 0x3E4 JUMP JUMPDEST SWAP2 POP PUSH32 0xFFFFFFFFFFFFFFFFFFFFFFFFFFFFFFFFFFFFFFFFFFFFFFFFFFFFFFFFFFFFFFFF DUP3 SUB PUSH2 0x7C7 JUMPI PUSH2 0x7C6 PUSH2 0x75E JUMP JUMPDEST JUMPDEST PUSH1 0x1 DUP3 ADD SWAP1 POP SWAP2 SWAP1 POP JUMP INVALID LOG2 PUSH5 0x6970667358 0x22 SLT KECCAK256 0x21 0xEC DUP1 0xCC 0xAF 0xC7 PUSH23 0x19E02B552E28B31FC9442BD665C499B4BF2C62A9EF3752 BLOBBASEFEE 0xEF PUSH5 0x736F6C6343 STOP ADDMOD BYTE STOP CALLER "
				},
				"gasEstimates": {
					"creation": {
						"codeDepositCost": "411200",
						"executionCost": "24712",
						"totalCost": "435912"
					},
					"external": {
						"changeCounter()": "2446",
						"message()": "infinite",
						"owner()": "2508",
						"updateTheMessage(string)": "infinite"
					}
				},
				"methodIdentifiers": {
					"changeCounter()": "aaf4389a",
					"message()": "e21f37ce",
					"owner()": "8da5cb5b",
					"updateTheMessage(string)": "6a394434"
				}
			},
			"storageLayout": {
				"storage": [
					{
						"astId": 3,
						"contract": "contracts/ExampleMessenger.sol:BlockchainMessenger",
						"label": "changeCounter",
						"offset": 0,
						"slot": "0",
						"type": "t_uint256"
					},
					{
						"astId": 5,
						"contract": "contracts/ExampleMessenger.sol:BlockchainMessenger",
						"label": "owner",
						"offset": 0,
						"slot": "1",
						"type": "t_address"
					},
					{
						"astId": 7,
						"contract": "contracts/ExampleMessenger.sol:BlockchainMessenger",
						"label": "message",
						"offset": 0,
						"slot": "2",
						"type": "t_string_storage"
					}
				],
				"types": {
					"t_address": {
						"encoding": "inplace",
						"label": "address",
						"numberOfBytes": "20"
					},
					"t_string_storage": {
						"encoding": "bytes",
						"label": "string",
						"numberOfBytes": "32"
					},
					"t_uint256": {
						"encoding": "inplace",
						"label": "uint256",
						"numberOfBytes": "32"
					}
				}
			},
			"userdoc": {
				"kind": "user",
				"methods": {},
				"version": 1
			}
		}
	}
}