{
	"contracts/TwitterStruct.sol": {
		"TwitterStruct": {
			"abi": [
				{
					"inputs": [],
					"stateMutability": "nonpayable",
					"type": "constructor"
				},
				{
					"anonymous": false,
					"inputs": [
						{
							"indexed": false,
							"internalType": "uint256",
							"name": "id",
							"type": "uint256"
						},
						{
							"indexed": false,
							"internalType": "address",
							"name": "author",
							"type": "address"
						},
						{
							"indexed": false,
							"internalType": "string",
							"name": "content",
							"type": "string"
						},
						{
							"indexed": false,
							"internalType": "uint256",
							"name": "timestamp",
							"type": "uint256"
						}
					],
					"name": "TweetCreated",
					"type": "event"
				},
				{
					"anonymous": false,
					"inputs": [
						{
							"indexed": false,
							"internalType": "address",
							"name": "liker",
							"type": "address"
						},
						{
							"indexed": false,
							"internalType": "address",
							"name": "tweetAuthor",
							"type": "address"
						},
						{
							"indexed": false,
							"internalType": "uint256",
							"name": "tweetId",
							"type": "uint256"
						},
						{
							"indexed": false,
							"internalType": "uint256",
							"name": "newLikeCount",
							"type": "uint256"
						}
					],
					"name": "TweetLiked",
					"type": "event"
				},
				{
					"inputs": [],
					"name": "MAX_TWEET_LENGTH",
					"outputs": [
						{
							"internalType": "uint16",
							"name": "",
							"type": "uint16"
						}
					],
					"stateMutability": "view",
					"type": "function"
				},
				{
					"inputs": [
						{
							"internalType": "uint16",
							"name": "_newTweetLength",
							"type": "uint16"
						}
					],
					"name": "changeTweetLength",
					"outputs": [],
					"stateMutability": "nonpayable",
					"type": "function"
				},
				{
					"inputs": [
						{
							"internalType": "string",
							"name": "_tweet",
							"type": "string"
						}
					],
					"name": "createTweet",
					"outputs": [],
					"stateMutability": "nonpayable",
					"type": "function"
				},
				{
					"inputs": [
						{
							"internalType": "address",
							"name": "_owner",
							"type": "address"
						}
					],
					"name": "getAllTweets",
					"outputs": [
						{
							"components": [
								{
									"internalType": "uint256",
									"name": "id",
									"type": "uint256"
								},
								{
									"internalType": "address",
									"name": "author",
									"type": "address"
								},
								{
									"internalType": "string",
									"name": "content",
									"type": "string"
								},
								{
									"internalType": "uint256",
									"name": "timestamp",
									"type": "uint256"
								},
								{
									"internalType": "uint256",
									"name": "likes",
									"type": "uint256"
								}
							],
							"internalType": "struct TwitterStruct.Tweet[]",
							"name": "",
							"type": "tuple[]"
						}
					],
					"stateMutability": "view",
					"type": "function"
				},
				{
					"inputs": [
						{
							"internalType": "uint256",
							"name": "_i",
							"type": "uint256"
						}
					],
					"name": "getTweet",
					"outputs": [
						{
							"components": [
								{
									"internalType": "uint256",
									"name": "id",
									"type": "uint256"
								},
								{
									"internalType": "address",
									"name": "author",
									"type": "address"
								},
								{
									"internalType": "string",
									"name": "content",
									"type": "string"
								},
								{
									"internalType": "uint256",
									"name": "timestamp",
									"type": "uint256"
								},
								{
									"internalType": "uint256",
									"name": "likes",
									"type": "uint256"
								}
							],
							"internalType": "struct TwitterStruct.Tweet",
							"name": "",
							"type": "tuple"
						}
					],
					"stateMutability": "view",
					"type": "function"
				},
				{
					"inputs": [
						{
							"internalType": "address",
							"name": "author",
							"type": "address"
						},
						{
							"internalType": "uint256",
							"name": "id",
							"type": "uint256"
						}
					],
					"name": "likeTweet",
					"outputs": [],
					"stateMutability": "nonpayable",
					"type": "function"
				},
				{
					"inputs": [],
					"name": "owner",
					"outputs": [
						{
							"internalType": "address",
							"name": "",
							"type": "address"
						}
					],
					"stateMutability": "view",
					"type": "function"
				},
				{
					"inputs": [
						{
							"internalType": "address",
							"name": "",
							"type": "address"
						},
						{
							"internalType": "uint256",
							"name": "",
							"type": "uint256"
						}
					],
					"name": "tweets",
					"outputs": [
						{
							"internalType": "uint256",
							"name": "id",
							"type": "uint256"
						},
						{
							"internalType": "address",
							"name": "author",
							"type": "address"
						},
						{
							"internalType": "string",
							"name": "content",
							"type": "string"
						},
						{
							"internalType": "uint256",
							"name": "timestamp",
							"type": "uint256"
						},
						{
							"internalType": "uint256",
							"name": "likes",
							"type": "uint256"
						}
					],
					"stateMutability": "view",
					"type": "function"
				},
				{
					"inputs": [
						{
							"internalType": "address",
							"name": "author",
							"type": "address"
						},
						{
							"internalType": "uint256",
							"name": "id",
							"type": "uint256"
						}
					],
					"name": "unLikeTweet",
					"outputs": [],
					"stateMutability": "nonpayable",
					"type": "function"
				}
			],
			"devdoc": {
				"kind": "dev",
				"methods": {},
				"version": 1
			},
			"evm": {
				"assembly": "    /* \"contracts/TwitterStruct.sol\":58:1989  contract TwitterStruct{... */\n  mstore(0x40, 0x80)\n    /* \"contracts/TwitterStruct.sol\":121:124  280 */\n  0x0118\n    /* \"contracts/TwitterStruct.sol\":87:124  uint16 public  MAX_TWEET_LENGTH = 280 */\n  0x00\n  dup1\n  0x0100\n  exp\n  dup2\n  sload\n  dup2\n  0xffff\n  mul\n  not\n  and\n  swap1\n  dup4\n  0xffff\n  and\n  mul\n  or\n  swap1\n  sstore\n  pop\n    /* \"contracts/TwitterStruct.sol\":543:588  constructor(){... */\n  callvalue\n  dup1\n  iszero\n  tag_1\n  jumpi\n  0x00\n  dup1\n  revert\ntag_1:\n  pop\n    /* \"contracts/TwitterStruct.sol\":572:582  msg.sender */\n  caller\n    /* \"contracts/TwitterStruct.sol\":564:569  owner */\n  0x02\n  0x00\n    /* \"contracts/TwitterStruct.sol\":564:582  owner = msg.sender */\n  0x0100\n  exp\n  dup2\n  sload\n  dup2\n  0xffffffffffffffffffffffffffffffffffffffff\n  mul\n  not\n  and\n  swap1\n  dup4\n  0xffffffffffffffffffffffffffffffffffffffff\n  and\n  mul\n  or\n  swap1\n  sstore\n  pop\n    /* \"contracts/TwitterStruct.sol\":58:1989  contract TwitterStruct{... */\n  dataSize(sub_0)\n  dup1\n  dataOffset(sub_0)\n  0x00\n  codecopy\n  0x00\n  return\nstop\n\nsub_0: assembly {\n        /* \"contracts/TwitterStruct.sol\":58:1989  contract TwitterStruct{... */\n      mstore(0x40, 0x80)\n      callvalue\n      dup1\n      iszero\n      tag_1\n      jumpi\n      0x00\n      dup1\n      revert\n    tag_1:\n      pop\n      jumpi(tag_2, lt(calldatasize, 0x04))\n      shr(0xe0, calldataload(0x00))\n      dup1\n      0x6eb10797\n      gt\n      tag_12\n      jumpi\n      dup1\n      0x6eb10797\n      eq\n      tag_7\n      jumpi\n      dup1\n      0x7c9cd2bc\n      eq\n      tag_8\n      jumpi\n      dup1\n      0x8da5cb5b\n      eq\n      tag_9\n      jumpi\n      dup1\n      0x9ef8633f\n      eq\n      tag_10\n      jumpi\n      dup1\n      0xc3ad5ecb\n      eq\n      tag_11\n      jumpi\n      jump(tag_2)\n    tag_12:\n      dup1\n      0x05a1b4a9\n      eq\n      tag_3\n      jumpi\n      dup1\n      0x12e7ee1c\n      eq\n      tag_4\n      jumpi\n      dup1\n      0x58bfa4ab\n      eq\n      tag_5\n      jumpi\n      dup1\n      0x63378216\n      eq\n      tag_6\n      jumpi\n    tag_2:\n      0x00\n      dup1\n      revert\n        /* \"contracts/TwitterStruct.sol\":274:315  mapping(address => Tweet[]) public tweets */\n    tag_3:\n      tag_13\n      0x04\n      dup1\n      calldatasize\n      sub\n      dup2\n      add\n      swap1\n      tag_14\n      swap2\n      swap1\n      tag_15\n      jump\t// in\n    tag_14:\n      tag_16\n      jump\t// in\n    tag_13:\n      mload(0x40)\n      tag_17\n      swap6\n      swap5\n      swap4\n      swap3\n      swap2\n      swap1\n      tag_18\n      jump\t// in\n    tag_17:\n      mload(0x40)\n      dup1\n      swap2\n      sub\n      swap1\n      return\n        /* \"contracts/TwitterStruct.sol\":1881:1987  function getAllTweets(address _owner) public view returns (Tweet[] memory){... */\n    tag_4:\n      tag_19\n      0x04\n      dup1\n      calldatasize\n      sub\n      dup2\n      add\n      swap1\n      tag_20\n      swap2\n      swap1\n      tag_21\n      jump\t// in\n    tag_20:\n      tag_22\n      jump\t// in\n    tag_19:\n      mload(0x40)\n      tag_23\n      swap2\n      swap1\n      tag_24\n      jump\t// in\n    tag_23:\n      mload(0x40)\n      dup1\n      swap2\n      sub\n      swap1\n      return\n        /* \"contracts/TwitterStruct.sol\":690:805  function changeTweetLength(uint16 _newTweetLength) public onlyOwner {... */\n    tag_5:\n      tag_25\n      0x04\n      dup1\n      calldatasize\n      sub\n      dup2\n      add\n      swap1\n      tag_26\n      swap2\n      swap1\n      tag_27\n      jump\t// in\n    tag_26:\n      tag_28\n      jump\t// in\n    tag_25:\n      stop\n        /* \"contracts/TwitterStruct.sol\":1307:1539  function likeTweet(address author, uint256 id) external {... */\n    tag_6:\n      tag_29\n      0x04\n      dup1\n      calldatasize\n      sub\n      dup2\n      add\n      swap1\n      tag_30\n      swap2\n      swap1\n      tag_15\n      jump\t// in\n    tag_30:\n      tag_31\n      jump\t// in\n    tag_29:\n      stop\n        /* \"contracts/TwitterStruct.sol\":87:124  uint16 public  MAX_TWEET_LENGTH = 280 */\n    tag_7:\n      tag_32\n      tag_33\n      jump\t// in\n    tag_32:\n      mload(0x40)\n      tag_34\n      swap2\n      swap1\n      tag_35\n      jump\t// in\n    tag_34:\n      mload(0x40)\n      dup1\n      swap2\n      sub\n      swap1\n      return\n        /* \"contracts/TwitterStruct.sol\":810:1302  function createTweet(string memory _tweet) public {... */\n    tag_8:\n      tag_36\n      0x04\n      dup1\n      calldatasize\n      sub\n      dup2\n      add\n      swap1\n      tag_37\n      swap2\n      swap1\n      tag_38\n      jump\t// in\n    tag_37:\n      tag_39\n      jump\t// in\n    tag_36:\n      stop\n        /* \"contracts/TwitterStruct.sol\":320:340  address public owner */\n    tag_9:\n      tag_40\n      tag_41\n      jump\t// in\n    tag_40:\n      mload(0x40)\n      tag_42\n      swap2\n      swap1\n      tag_43\n      jump\t// in\n    tag_42:\n      mload(0x40)\n      dup1\n      swap2\n      sub\n      swap1\n      return\n        /* \"contracts/TwitterStruct.sol\":1544:1772  function unLikeTweet(address author, uint256 id) external {... */\n    tag_10:\n      tag_44\n      0x04\n      dup1\n      calldatasize\n      sub\n      dup2\n      add\n      swap1\n      tag_45\n      swap2\n      swap1\n      tag_15\n      jump\t// in\n    tag_45:\n      tag_46\n      jump\t// in\n    tag_44:\n      stop\n        /* \"contracts/TwitterStruct.sol\":1776:1877  function getTweet(uint _i) public view returns (Tweet memory){... */\n    tag_11:\n      tag_47\n      0x04\n      dup1\n      calldatasize\n      sub\n      dup2\n      add\n      swap1\n      tag_48\n      swap2\n      swap1\n      tag_49\n      jump\t// in\n    tag_48:\n      tag_50\n      jump\t// in\n    tag_47:\n      mload(0x40)\n      tag_51\n      swap2\n      swap1\n      tag_52\n      jump\t// in\n    tag_51:\n      mload(0x40)\n      dup1\n      swap2\n      sub\n      swap1\n      return\n        /* \"contracts/TwitterStruct.sol\":274:315  mapping(address => Tweet[]) public tweets */\n    tag_16:\n      mstore(0x20, 0x01)\n      dup2\n      0x00\n      mstore\n      keccak256(0x00, 0x40)\n      dup2\n      dup2\n      sload\n      dup2\n      lt\n      tag_53\n      jumpi\n      0x00\n      dup1\n      revert\n    tag_53:\n      swap1\n      0x00\n      mstore\n      keccak256(0x00, 0x20)\n      swap1\n      0x05\n      mul\n      add\n      0x00\n      swap2\n      pop\n      swap2\n      pop\n      pop\n      dup1\n      0x00\n      add\n      sload\n      swap1\n      dup1\n      0x01\n      add\n      0x00\n      swap1\n      sload\n      swap1\n      0x0100\n      exp\n      swap1\n      div\n      0xffffffffffffffffffffffffffffffffffffffff\n      and\n      swap1\n      dup1\n      0x02\n      add\n      dup1\n      sload\n      tag_55\n      swap1\n      tag_56\n      jump\t// in\n    tag_55:\n      dup1\n      0x1f\n      add\n      0x20\n      dup1\n      swap2\n      div\n      mul\n      0x20\n      add\n      mload(0x40)\n      swap1\n      dup2\n      add\n      0x40\n      mstore\n      dup1\n      swap3\n      swap2\n      swap1\n      dup2\n      dup2\n      mstore\n      0x20\n      add\n      dup3\n      dup1\n      sload\n      tag_57\n      swap1\n      tag_56\n      jump\t// in\n    tag_57:\n      dup1\n      iszero\n      tag_58\n      jumpi\n      dup1\n      0x1f\n      lt\n      tag_59\n      jumpi\n      0x0100\n      dup1\n      dup4\n      sload\n      div\n      mul\n      dup4\n      mstore\n      swap2\n      0x20\n      add\n      swap2\n      jump(tag_58)\n    tag_59:\n      dup3\n      add\n      swap2\n      swap1\n      0x00\n      mstore\n      keccak256(0x00, 0x20)\n      swap1\n    tag_60:\n      dup2\n      sload\n      dup2\n      mstore\n      swap1\n      0x01\n      add\n      swap1\n      0x20\n      add\n      dup1\n      dup4\n      gt\n      tag_60\n      jumpi\n      dup3\n      swap1\n      sub\n      0x1f\n      and\n      dup3\n      add\n      swap2\n    tag_58:\n      pop\n      pop\n      pop\n      pop\n      pop\n      swap1\n      dup1\n      0x03\n      add\n      sload\n      swap1\n      dup1\n      0x04\n      add\n      sload\n      swap1\n      pop\n      dup6\n      jump\t// out\n        /* \"contracts/TwitterStruct.sol\":1881:1987  function getAllTweets(address _owner) public view returns (Tweet[] memory){... */\n    tag_22:\n        /* \"contracts/TwitterStruct.sol\":1940:1954  Tweet[] memory */\n      0x60\n        /* \"contracts/TwitterStruct.sol\":1968:1974  tweets */\n      0x01\n        /* \"contracts/TwitterStruct.sol\":1968:1982  tweets[_owner] */\n      0x00\n        /* \"contracts/TwitterStruct.sol\":1975:1981  _owner */\n      dup4\n        /* \"contracts/TwitterStruct.sol\":1968:1982  tweets[_owner] */\n      0xffffffffffffffffffffffffffffffffffffffff\n      and\n      0xffffffffffffffffffffffffffffffffffffffff\n      and\n      dup2\n      mstore\n      0x20\n      add\n      swap1\n      dup2\n      mstore\n      0x20\n      add\n      0x00\n      keccak256\n        /* \"contracts/TwitterStruct.sol\":1961:1982  return tweets[_owner] */\n      dup1\n      sload\n      dup1\n      0x20\n      mul\n      0x20\n      add\n      mload(0x40)\n      swap1\n      dup2\n      add\n      0x40\n      mstore\n      dup1\n      swap3\n      swap2\n      swap1\n      dup2\n      dup2\n      mstore\n      0x20\n      add\n      0x00\n      swap1\n    tag_62:\n      dup3\n      dup3\n      lt\n      iszero\n      tag_63\n      jumpi\n      dup4\n      dup3\n      swap1\n      0x00\n      mstore\n      keccak256(0x00, 0x20)\n      swap1\n      0x05\n      mul\n      add\n      mload(0x40)\n      dup1\n      0xa0\n      add\n      0x40\n      mstore\n      swap1\n      dup2\n      0x00\n      dup3\n      add\n      sload\n      dup2\n      mstore\n      0x20\n      add\n      0x01\n      dup3\n      add\n      0x00\n      swap1\n      sload\n      swap1\n      0x0100\n      exp\n      swap1\n      div\n      0xffffffffffffffffffffffffffffffffffffffff\n      and\n      0xffffffffffffffffffffffffffffffffffffffff\n      and\n      0xffffffffffffffffffffffffffffffffffffffff\n      and\n      dup2\n      mstore\n      0x20\n      add\n      0x02\n      dup3\n      add\n      dup1\n      sload\n      tag_65\n      swap1\n      tag_56\n      jump\t// in\n    tag_65:\n      dup1\n      0x1f\n      add\n      0x20\n      dup1\n      swap2\n      div\n      mul\n      0x20\n      add\n      mload(0x40)\n      swap1\n      dup2\n      add\n      0x40\n      mstore\n      dup1\n      swap3\n      swap2\n      swap1\n      dup2\n      dup2\n      mstore\n      0x20\n      add\n      dup3\n      dup1\n      sload\n      tag_66\n      swap1\n      tag_56\n      jump\t// in\n    tag_66:\n      dup1\n      iszero\n      tag_67\n      jumpi\n      dup1\n      0x1f\n      lt\n      tag_68\n      jumpi\n      0x0100\n      dup1\n      dup4\n      sload\n      div\n      mul\n      dup4\n      mstore\n      swap2\n      0x20\n      add\n      swap2\n      jump(tag_67)\n    tag_68:\n      dup3\n      add\n      swap2\n      swap1\n      0x00\n      mstore\n      keccak256(0x00, 0x20)\n      swap1\n    tag_69:\n      dup2\n      sload\n      dup2\n      mstore\n      swap1\n      0x01\n      add\n      swap1\n      0x20\n      add\n      dup1\n      dup4\n      gt\n      tag_69\n      jumpi\n      dup3\n      swap1\n      sub\n      0x1f\n      and\n      dup3\n      add\n      swap2\n    tag_67:\n      pop\n      pop\n      pop\n      pop\n      pop\n      dup2\n      mstore\n      0x20\n      add\n      0x03\n      dup3\n      add\n      sload\n      dup2\n      mstore\n      0x20\n      add\n      0x04\n      dup3\n      add\n      sload\n      dup2\n      mstore\n      pop\n      pop\n      dup2\n      mstore\n      0x20\n      add\n      swap1\n      0x01\n      add\n      swap1\n      jump(tag_62)\n    tag_63:\n      pop\n      pop\n      pop\n      pop\n      swap1\n      pop\n        /* \"contracts/TwitterStruct.sol\":1881:1987  function getAllTweets(address _owner) public view returns (Tweet[] memory){... */\n      swap2\n      swap1\n      pop\n      jump\t// out\n        /* \"contracts/TwitterStruct.sol\":690:805  function changeTweetLength(uint16 _newTweetLength) public onlyOwner {... */\n    tag_28:\n        /* \"contracts/TwitterStruct.sol\":641:646  owner */\n      0x02\n      0x00\n      swap1\n      sload\n      swap1\n      0x0100\n      exp\n      swap1\n      div\n      0xffffffffffffffffffffffffffffffffffffffff\n      and\n        /* \"contracts/TwitterStruct.sol\":627:646  msg.sender == owner */\n      0xffffffffffffffffffffffffffffffffffffffff\n      and\n        /* \"contracts/TwitterStruct.sol\":627:637  msg.sender */\n      caller\n        /* \"contracts/TwitterStruct.sol\":627:646  msg.sender == owner */\n      0xffffffffffffffffffffffffffffffffffffffff\n      and\n      eq\n        /* \"contracts/TwitterStruct.sol\":619:672  require(msg.sender == owner, \"You are not the owner\") */\n      tag_71\n      jumpi\n      mload(0x40)\n      0x08c379a000000000000000000000000000000000000000000000000000000000\n      dup2\n      mstore\n      0x04\n      add\n      tag_72\n      swap1\n      tag_73\n      jump\t// in\n    tag_72:\n      mload(0x40)\n      dup1\n      swap2\n      sub\n      swap1\n      revert\n    tag_71:\n        /* \"contracts/TwitterStruct.sol\":784:799  _newTweetLength */\n      dup1\n        /* \"contracts/TwitterStruct.sol\":765:781  MAX_TWEET_LENGTH */\n      0x00\n      dup1\n        /* \"contracts/TwitterStruct.sol\":765:799  MAX_TWEET_LENGTH = _newTweetLength */\n      0x0100\n      exp\n      dup2\n      sload\n      dup2\n      0xffff\n      mul\n      not\n      and\n      swap1\n      dup4\n      0xffff\n      and\n      mul\n      or\n      swap1\n      sstore\n      pop\n        /* \"contracts/TwitterStruct.sol\":690:805  function changeTweetLength(uint16 _newTweetLength) public onlyOwner {... */\n      pop\n      jump\t// out\n        /* \"contracts/TwitterStruct.sol\":1307:1539  function likeTweet(address author, uint256 id) external {... */\n    tag_31:\n        /* \"contracts/TwitterStruct.sol\":1402:1404  id */\n      dup1\n        /* \"contracts/TwitterStruct.sol\":1377:1383  tweets */\n      0x01\n        /* \"contracts/TwitterStruct.sol\":1377:1391  tweets[author] */\n      0x00\n        /* \"contracts/TwitterStruct.sol\":1384:1390  author */\n      dup5\n        /* \"contracts/TwitterStruct.sol\":1377:1391  tweets[author] */\n      0xffffffffffffffffffffffffffffffffffffffff\n      and\n      0xffffffffffffffffffffffffffffffffffffffff\n      and\n      dup2\n      mstore\n      0x20\n      add\n      swap1\n      dup2\n      mstore\n      0x20\n      add\n      0x00\n      keccak256\n        /* \"contracts/TwitterStruct.sol\":1392:1394  id */\n      dup3\n        /* \"contracts/TwitterStruct.sol\":1377:1395  tweets[author][id] */\n      dup2\n      sload\n      dup2\n      lt\n      tag_76\n      jumpi\n      tag_77\n      tag_78\n      jump\t// in\n    tag_77:\n    tag_76:\n      swap1\n      0x00\n      mstore\n      keccak256(0x00, 0x20)\n      swap1\n      0x05\n      mul\n      add\n        /* \"contracts/TwitterStruct.sol\":1377:1398  tweets[author][id].id */\n      0x00\n      add\n      sload\n        /* \"contracts/TwitterStruct.sol\":1377:1404  tweets[author][id].id == id */\n      eq\n        /* \"contracts/TwitterStruct.sol\":1369:1429  require(tweets[author][id].id == id, \"TWEET does not exist\") */\n      tag_80\n      jumpi\n      mload(0x40)\n      0x08c379a000000000000000000000000000000000000000000000000000000000\n      dup2\n      mstore\n      0x04\n      add\n      tag_81\n      swap1\n      tag_82\n      jump\t// in\n    tag_81:\n      mload(0x40)\n      dup1\n      swap2\n      sub\n      swap1\n      revert\n    tag_80:\n        /* \"contracts/TwitterStruct.sol\":1435:1441  tweets */\n      0x01\n        /* \"contracts/TwitterStruct.sol\":1435:1449  tweets[author] */\n      0x00\n        /* \"contracts/TwitterStruct.sol\":1442:1448  author */\n      dup4\n        /* \"contracts/TwitterStruct.sol\":1435:1449  tweets[author] */\n      0xffffffffffffffffffffffffffffffffffffffff\n      and\n      0xffffffffffffffffffffffffffffffffffffffff\n      and\n      dup2\n      mstore\n      0x20\n      add\n      swap1\n      dup2\n      mstore\n      0x20\n      add\n      0x00\n      keccak256\n        /* \"contracts/TwitterStruct.sol\":1450:1452  id */\n      dup2\n        /* \"contracts/TwitterStruct.sol\":1435:1453  tweets[author][id] */\n      dup2\n      sload\n      dup2\n      lt\n      tag_83\n      jumpi\n      tag_84\n      tag_78\n      jump\t// in\n    tag_84:\n    tag_83:\n      swap1\n      0x00\n      mstore\n      keccak256(0x00, 0x20)\n      swap1\n      0x05\n      mul\n      add\n        /* \"contracts/TwitterStruct.sol\":1435:1459  tweets[author][id].likes */\n      0x04\n      add\n      0x00\n        /* \"contracts/TwitterStruct.sol\":1435:1461  tweets[author][id].likes++ */\n      dup2\n      sload\n      dup1\n      swap3\n      swap2\n      swap1\n      tag_86\n      swap1\n      tag_87\n      jump\t// in\n    tag_86:\n      swap2\n      swap1\n      pop\n      sstore\n      pop\n        /* \"contracts/TwitterStruct.sol\":1473:1533  TweetLiked(msg.sender, author, id, tweets[author][id].likes) */\n      0xe8a76fc0f16d11a00d1e93b689b63d76cf60af914dd3d915375dc41d01a0c3c8\n        /* \"contracts/TwitterStruct.sol\":1484:1494  msg.sender */\n      caller\n        /* \"contracts/TwitterStruct.sol\":1496:1502  author */\n      dup4\n        /* \"contracts/TwitterStruct.sol\":1504:1506  id */\n      dup4\n        /* \"contracts/TwitterStruct.sol\":1508:1514  tweets */\n      0x01\n        /* \"contracts/TwitterStruct.sol\":1508:1522  tweets[author] */\n      0x00\n        /* \"contracts/TwitterStruct.sol\":1515:1521  author */\n      dup8\n        /* \"contracts/TwitterStruct.sol\":1508:1522  tweets[author] */\n      0xffffffffffffffffffffffffffffffffffffffff\n      and\n      0xffffffffffffffffffffffffffffffffffffffff\n      and\n      dup2\n      mstore\n      0x20\n      add\n      swap1\n      dup2\n      mstore\n      0x20\n      add\n      0x00\n      keccak256\n        /* \"contracts/TwitterStruct.sol\":1523:1525  id */\n      dup6\n        /* \"contracts/TwitterStruct.sol\":1508:1526  tweets[author][id] */\n      dup2\n      sload\n      dup2\n      lt\n      tag_88\n      jumpi\n      tag_89\n      tag_78\n      jump\t// in\n    tag_89:\n    tag_88:\n      swap1\n      0x00\n      mstore\n      keccak256(0x00, 0x20)\n      swap1\n      0x05\n      mul\n      add\n        /* \"contracts/TwitterStruct.sol\":1508:1532  tweets[author][id].likes */\n      0x04\n      add\n      sload\n        /* \"contracts/TwitterStruct.sol\":1473:1533  TweetLiked(msg.sender, author, id, tweets[author][id].likes) */\n      mload(0x40)\n      tag_91\n      swap5\n      swap4\n      swap3\n      swap2\n      swap1\n      tag_92\n      jump\t// in\n    tag_91:\n      mload(0x40)\n      dup1\n      swap2\n      sub\n      swap1\n      log1\n        /* \"contracts/TwitterStruct.sol\":1307:1539  function likeTweet(address author, uint256 id) external {... */\n      pop\n      pop\n      jump\t// out\n        /* \"contracts/TwitterStruct.sol\":87:124  uint16 public  MAX_TWEET_LENGTH = 280 */\n    tag_33:\n      0x00\n      dup1\n      sload\n      swap1\n      0x0100\n      exp\n      swap1\n      div\n      0xffff\n      and\n      dup2\n      jump\t// out\n        /* \"contracts/TwitterStruct.sol\":810:1302  function createTweet(string memory _tweet) public {... */\n    tag_39:\n        /* \"contracts/TwitterStruct.sol\":899:915  MAX_TWEET_LENGTH */\n      0x00\n      dup1\n      sload\n      swap1\n      0x0100\n      exp\n      swap1\n      div\n      0xffff\n      and\n        /* \"contracts/TwitterStruct.sol\":875:915  bytes(_tweet).length <= MAX_TWEET_LENGTH */\n      0xffff\n      and\n        /* \"contracts/TwitterStruct.sol\":881:887  _tweet */\n      dup2\n        /* \"contracts/TwitterStruct.sol\":875:895  bytes(_tweet).length */\n      mload\n        /* \"contracts/TwitterStruct.sol\":875:915  bytes(_tweet).length <= MAX_TWEET_LENGTH */\n      gt\n      iszero\n        /* \"contracts/TwitterStruct.sol\":867:937  require(bytes(_tweet).length <= MAX_TWEET_LENGTH, \"Tweet is too long\") */\n      tag_94\n      jumpi\n      mload(0x40)\n      0x08c379a000000000000000000000000000000000000000000000000000000000\n      dup2\n      mstore\n      0x04\n      add\n      tag_95\n      swap1\n      tag_96\n      jump\t// in\n    tag_95:\n      mload(0x40)\n      dup1\n      swap2\n      sub\n      swap1\n      revert\n    tag_94:\n        /* \"contracts/TwitterStruct.sol\":948:969  Tweet memory newTweet */\n      0x00\n        /* \"contracts/TwitterStruct.sol\":972:1156  Tweet({... */\n      mload(0x40)\n      dup1\n      0xa0\n      add\n      0x40\n      mstore\n      dup1\n        /* \"contracts/TwitterStruct.sol\":997:1003  tweets */\n      0x01\n        /* \"contracts/TwitterStruct.sol\":997:1015  tweets[msg.sender] */\n      0x00\n        /* \"contracts/TwitterStruct.sol\":1004:1014  msg.sender */\n      caller\n        /* \"contracts/TwitterStruct.sol\":997:1015  tweets[msg.sender] */\n      0xffffffffffffffffffffffffffffffffffffffff\n      and\n      0xffffffffffffffffffffffffffffffffffffffff\n      and\n      dup2\n      mstore\n      0x20\n      add\n      swap1\n      dup2\n      mstore\n      0x20\n      add\n      0x00\n      keccak256\n        /* \"contracts/TwitterStruct.sol\":997:1022  tweets[msg.sender].length */\n      dup1\n      sload\n      swap1\n      pop\n        /* \"contracts/TwitterStruct.sol\":972:1156  Tweet({... */\n      dup2\n      mstore\n      0x20\n      add\n        /* \"contracts/TwitterStruct.sol\":1044:1054  msg.sender */\n      caller\n        /* \"contracts/TwitterStruct.sol\":972:1156  Tweet({... */\n      0xffffffffffffffffffffffffffffffffffffffff\n      and\n      dup2\n      mstore\n      0x20\n      add\n        /* \"contracts/TwitterStruct.sol\":1077:1083  _tweet */\n      dup4\n        /* \"contracts/TwitterStruct.sol\":972:1156  Tweet({... */\n      dup2\n      mstore\n      0x20\n      add\n        /* \"contracts/TwitterStruct.sol\":1108:1123  block.timestamp */\n      timestamp\n        /* \"contracts/TwitterStruct.sol\":972:1156  Tweet({... */\n      dup2\n      mstore\n      0x20\n      add\n        /* \"contracts/TwitterStruct.sol\":1144:1145  0 */\n      0x00\n        /* \"contracts/TwitterStruct.sol\":972:1156  Tweet({... */\n      dup2\n      mstore\n      pop\n        /* \"contracts/TwitterStruct.sol\":948:1156  Tweet memory newTweet = Tweet({... */\n      swap1\n      pop\n        /* \"contracts/TwitterStruct.sol\":1166:1172  tweets */\n      0x01\n        /* \"contracts/TwitterStruct.sol\":1166:1184  tweets[msg.sender] */\n      0x00\n        /* \"contracts/TwitterStruct.sol\":1173:1183  msg.sender */\n      caller\n        /* \"contracts/TwitterStruct.sol\":1166:1184  tweets[msg.sender] */\n      0xffffffffffffffffffffffffffffffffffffffff\n      and\n      0xffffffffffffffffffffffffffffffffffffffff\n      and\n      dup2\n      mstore\n      0x20\n      add\n      swap1\n      dup2\n      mstore\n      0x20\n      add\n      0x00\n      keccak256\n        /* \"contracts/TwitterStruct.sol\":1190:1198  newTweet */\n      dup2\n        /* \"contracts/TwitterStruct.sol\":1166:1199  tweets[msg.sender].push(newTweet) */\n      swap1\n      dup1\n      0x01\n      dup2\n      sload\n      add\n      dup1\n      dup3\n      sstore\n      dup1\n      swap2\n      pop\n      pop\n      0x01\n      swap1\n      sub\n      swap1\n      0x00\n      mstore\n      keccak256(0x00, 0x20)\n      swap1\n      0x05\n      mul\n      add\n      0x00\n      swap1\n      swap2\n      swap1\n      swap2\n      swap1\n      swap2\n      pop\n      0x00\n      dup3\n      add\n      mload\n      dup2\n      0x00\n      add\n      sstore\n      0x20\n      dup3\n      add\n      mload\n      dup2\n      0x01\n      add\n      exp(0x0100, 0x00)\n      dup2\n      sload\n      dup2\n      0xffffffffffffffffffffffffffffffffffffffff\n      mul\n      not\n      and\n      swap1\n      dup4\n      0xffffffffffffffffffffffffffffffffffffffff\n      and\n      mul\n      or\n      swap1\n      sstore\n      pop\n      0x40\n      dup3\n      add\n      mload\n      dup2\n      0x02\n      add\n      swap1\n      dup2\n      tag_98\n      swap2\n      swap1\n      tag_99\n      jump\t// in\n    tag_98:\n      pop\n      0x60\n      dup3\n      add\n      mload\n      dup2\n      0x03\n      add\n      sstore\n      0x80\n      dup3\n      add\n      mload\n      dup2\n      0x04\n      add\n      sstore\n      pop\n      pop\n        /* \"contracts/TwitterStruct.sol\":1215:1295  TweetCreated(newTweet.id, newTweet.author, newTweet.content, newTweet.timestamp) */\n      0x16fd3c13e9d46923e0a8bce11c7b473ec508a72e6c96cd2404b29ce972afc29e\n        /* \"contracts/TwitterStruct.sol\":1228:1236  newTweet */\n      dup2\n        /* \"contracts/TwitterStruct.sol\":1228:1239  newTweet.id */\n      0x00\n      add\n      mload\n        /* \"contracts/TwitterStruct.sol\":1241:1249  newTweet */\n      dup3\n        /* \"contracts/TwitterStruct.sol\":1241:1256  newTweet.author */\n      0x20\n      add\n      mload\n        /* \"contracts/TwitterStruct.sol\":1258:1266  newTweet */\n      dup4\n        /* \"contracts/TwitterStruct.sol\":1258:1274  newTweet.content */\n      0x40\n      add\n      mload\n        /* \"contracts/TwitterStruct.sol\":1276:1284  newTweet */\n      dup5\n        /* \"contracts/TwitterStruct.sol\":1276:1294  newTweet.timestamp */\n      0x60\n      add\n      mload\n        /* \"contracts/TwitterStruct.sol\":1215:1295  TweetCreated(newTweet.id, newTweet.author, newTweet.content, newTweet.timestamp) */\n      mload(0x40)\n      tag_100\n      swap5\n      swap4\n      swap3\n      swap2\n      swap1\n      tag_101\n      jump\t// in\n    tag_100:\n      mload(0x40)\n      dup1\n      swap2\n      sub\n      swap1\n      log1\n        /* \"contracts/TwitterStruct.sol\":860:1302  {... */\n      pop\n        /* \"contracts/TwitterStruct.sol\":810:1302  function createTweet(string memory _tweet) public {... */\n      pop\n      jump\t// out\n        /* \"contracts/TwitterStruct.sol\":320:340  address public owner */\n    tag_41:\n      0x02\n      0x00\n      swap1\n      sload\n      swap1\n      0x0100\n      exp\n      swap1\n      div\n      0xffffffffffffffffffffffffffffffffffffffff\n      and\n      dup2\n      jump\t// out\n        /* \"contracts/TwitterStruct.sol\":1544:1772  function unLikeTweet(address author, uint256 id) external {... */\n    tag_46:\n        /* \"contracts/TwitterStruct.sol\":1641:1643  id */\n      dup1\n        /* \"contracts/TwitterStruct.sol\":1616:1622  tweets */\n      0x01\n        /* \"contracts/TwitterStruct.sol\":1616:1630  tweets[author] */\n      0x00\n        /* \"contracts/TwitterStruct.sol\":1623:1629  author */\n      dup5\n        /* \"contracts/TwitterStruct.sol\":1616:1630  tweets[author] */\n      0xffffffffffffffffffffffffffffffffffffffff\n      and\n      0xffffffffffffffffffffffffffffffffffffffff\n      and\n      dup2\n      mstore\n      0x20\n      add\n      swap1\n      dup2\n      mstore\n      0x20\n      add\n      0x00\n      keccak256\n        /* \"contracts/TwitterStruct.sol\":1631:1633  id */\n      dup3\n        /* \"contracts/TwitterStruct.sol\":1616:1634  tweets[author][id] */\n      dup2\n      sload\n      dup2\n      lt\n      tag_103\n      jumpi\n      tag_104\n      tag_78\n      jump\t// in\n    tag_104:\n    tag_103:\n      swap1\n      0x00\n      mstore\n      keccak256(0x00, 0x20)\n      swap1\n      0x05\n      mul\n      add\n        /* \"contracts/TwitterStruct.sol\":1616:1637  tweets[author][id].id */\n      0x00\n      add\n      sload\n        /* \"contracts/TwitterStruct.sol\":1616:1643  tweets[author][id].id == id */\n      eq\n        /* \"contracts/TwitterStruct.sol\":1608:1668  require(tweets[author][id].id == id, \"TWEET does not exist\") */\n      tag_106\n      jumpi\n      mload(0x40)\n      0x08c379a000000000000000000000000000000000000000000000000000000000\n      dup2\n      mstore\n      0x04\n      add\n      tag_107\n      swap1\n      tag_82\n      jump\t// in\n    tag_107:\n      mload(0x40)\n      dup1\n      swap2\n      sub\n      swap1\n      revert\n    tag_106:\n        /* \"contracts/TwitterStruct.sol\":1709:1710  0 */\n      0x00\n        /* \"contracts/TwitterStruct.sol\":1682:1688  tweets */\n      0x01\n        /* \"contracts/TwitterStruct.sol\":1682:1696  tweets[author] */\n      0x00\n        /* \"contracts/TwitterStruct.sol\":1689:1695  author */\n      dup5\n        /* \"contracts/TwitterStruct.sol\":1682:1696  tweets[author] */\n      0xffffffffffffffffffffffffffffffffffffffff\n      and\n      0xffffffffffffffffffffffffffffffffffffffff\n      and\n      dup2\n      mstore\n      0x20\n      add\n      swap1\n      dup2\n      mstore\n      0x20\n      add\n      0x00\n      keccak256\n        /* \"contracts/TwitterStruct.sol\":1697:1699  id */\n      dup3\n        /* \"contracts/TwitterStruct.sol\":1682:1700  tweets[author][id] */\n      dup2\n      sload\n      dup2\n      lt\n      tag_108\n      jumpi\n      tag_109\n      tag_78\n      jump\t// in\n    tag_109:\n    tag_108:\n      swap1\n      0x00\n      mstore\n      keccak256(0x00, 0x20)\n      swap1\n      0x05\n      mul\n      add\n        /* \"contracts/TwitterStruct.sol\":1682:1706  tweets[author][id].likes */\n      0x04\n      add\n      sload\n        /* \"contracts/TwitterStruct.sol\":1682:1710  tweets[author][id].likes > 0 */\n      gt\n        /* \"contracts/TwitterStruct.sol\":1674:1733  require(tweets[author][id].likes > 0, \"TWEET has no likes\") */\n      tag_111\n      jumpi\n      mload(0x40)\n      0x08c379a000000000000000000000000000000000000000000000000000000000\n      dup2\n      mstore\n      0x04\n      add\n      tag_112\n      swap1\n      tag_113\n      jump\t// in\n    tag_112:\n      mload(0x40)\n      dup1\n      swap2\n      sub\n      swap1\n      revert\n    tag_111:\n        /* \"contracts/TwitterStruct.sol\":1740:1746  tweets */\n      0x01\n        /* \"contracts/TwitterStruct.sol\":1740:1754  tweets[author] */\n      0x00\n        /* \"contracts/TwitterStruct.sol\":1747:1753  author */\n      dup4\n        /* \"contracts/TwitterStruct.sol\":1740:1754  tweets[author] */\n      0xffffffffffffffffffffffffffffffffffffffff\n      and\n      0xffffffffffffffffffffffffffffffffffffffff\n      and\n      dup2\n      mstore\n      0x20\n      add\n      swap1\n      dup2\n      mstore\n      0x20\n      add\n      0x00\n      keccak256\n        /* \"contracts/TwitterStruct.sol\":1755:1757  id */\n      dup2\n        /* \"contracts/TwitterStruct.sol\":1740:1758  tweets[author][id] */\n      dup2\n      sload\n      dup2\n      lt\n      tag_114\n      jumpi\n      tag_115\n      tag_78\n      jump\t// in\n    tag_115:\n    tag_114:\n      swap1\n      0x00\n      mstore\n      keccak256(0x00, 0x20)\n      swap1\n      0x05\n      mul\n      add\n        /* \"contracts/TwitterStruct.sol\":1740:1764  tweets[author][id].likes */\n      0x04\n      add\n      0x00\n        /* \"contracts/TwitterStruct.sol\":1740:1766  tweets[author][id].likes-- */\n      dup2\n      sload\n      dup1\n      swap3\n      swap2\n      swap1\n      tag_117\n      swap1\n      tag_118\n      jump\t// in\n    tag_117:\n      swap2\n      swap1\n      pop\n      sstore\n      pop\n        /* \"contracts/TwitterStruct.sol\":1544:1772  function unLikeTweet(address author, uint256 id) external {... */\n      pop\n      pop\n      jump\t// out\n        /* \"contracts/TwitterStruct.sol\":1776:1877  function getTweet(uint _i) public view returns (Tweet memory){... */\n    tag_50:\n        /* \"contracts/TwitterStruct.sol\":1824:1836  Tweet memory */\n      tag_119\n      tag_120\n      jump\t// in\n    tag_119:\n        /* \"contracts/TwitterStruct.sol\":1850:1856  tweets */\n      0x01\n        /* \"contracts/TwitterStruct.sol\":1850:1868  tweets[msg.sender] */\n      0x00\n        /* \"contracts/TwitterStruct.sol\":1857:1867  msg.sender */\n      caller\n        /* \"contracts/TwitterStruct.sol\":1850:1868  tweets[msg.sender] */\n      0xffffffffffffffffffffffffffffffffffffffff\n      and\n      0xffffffffffffffffffffffffffffffffffffffff\n      and\n      dup2\n      mstore\n      0x20\n      add\n      swap1\n      dup2\n      mstore\n      0x20\n      add\n      0x00\n      keccak256\n        /* \"contracts/TwitterStruct.sol\":1869:1871  _i */\n      dup3\n        /* \"contracts/TwitterStruct.sol\":1850:1872  tweets[msg.sender][_i] */\n      dup2\n      sload\n      dup2\n      lt\n      tag_122\n      jumpi\n      tag_123\n      tag_78\n      jump\t// in\n    tag_123:\n    tag_122:\n      swap1\n      0x00\n      mstore\n      keccak256(0x00, 0x20)\n      swap1\n      0x05\n      mul\n      add\n        /* \"contracts/TwitterStruct.sol\":1843:1872  return tweets[msg.sender][_i] */\n      mload(0x40)\n      dup1\n      0xa0\n      add\n      0x40\n      mstore\n      swap1\n      dup2\n      0x00\n      dup3\n      add\n      sload\n      dup2\n      mstore\n      0x20\n      add\n      0x01\n      dup3\n      add\n      0x00\n      swap1\n      sload\n      swap1\n      0x0100\n      exp\n      swap1\n      div\n      0xffffffffffffffffffffffffffffffffffffffff\n      and\n      0xffffffffffffffffffffffffffffffffffffffff\n      and\n      0xffffffffffffffffffffffffffffffffffffffff\n      and\n      dup2\n      mstore\n      0x20\n      add\n      0x02\n      dup3\n      add\n      dup1\n      sload\n      tag_125\n      swap1\n      tag_56\n      jump\t// in\n    tag_125:\n      dup1\n      0x1f\n      add\n      0x20\n      dup1\n      swap2\n      div\n      mul\n      0x20\n      add\n      mload(0x40)\n      swap1\n      dup2\n      add\n      0x40\n      mstore\n      dup1\n      swap3\n      swap2\n      swap1\n      dup2\n      dup2\n      mstore\n      0x20\n      add\n      dup3\n      dup1\n      sload\n      tag_126\n      swap1\n      tag_56\n      jump\t// in\n    tag_126:\n      dup1\n      iszero\n      tag_127\n      jumpi\n      dup1\n      0x1f\n      lt\n      tag_128\n      jumpi\n      0x0100\n      dup1\n      dup4\n      sload\n      div\n      mul\n      dup4\n      mstore\n      swap2\n      0x20\n      add\n      swap2\n      jump(tag_127)\n    tag_128:\n      dup3\n      add\n      swap2\n      swap1\n      0x00\n      mstore\n      keccak256(0x00, 0x20)\n      swap1\n    tag_129:\n      dup2\n      sload\n      dup2\n      mstore\n      swap1\n      0x01\n      add\n      swap1\n      0x20\n      add\n      dup1\n      dup4\n      gt\n      tag_129\n      jumpi\n      dup3\n      swap1\n      sub\n      0x1f\n      and\n      dup3\n      add\n      swap2\n    tag_127:\n      pop\n      pop\n      pop\n      pop\n      pop\n      dup2\n      mstore\n      0x20\n      add\n      0x03\n      dup3\n      add\n      sload\n      dup2\n      mstore\n      0x20\n      add\n      0x04\n      dup3\n      add\n      sload\n      dup2\n      mstore\n      pop\n      pop\n      swap1\n      pop\n        /* \"contracts/TwitterStruct.sol\":1776:1877  function getTweet(uint _i) public view returns (Tweet memory){... */\n      swap2\n      swap1\n      pop\n      jump\t// out\n    tag_120:\n      mload(0x40)\n      dup1\n      0xa0\n      add\n      0x40\n      mstore\n      dup1\n      0x00\n      dup2\n      mstore\n      0x20\n      add\n      and(0xffffffffffffffffffffffffffffffffffffffff, 0x00)\n      dup2\n      mstore\n      0x20\n      add\n      0x60\n      dup2\n      mstore\n      0x20\n      add\n      0x00\n      dup2\n      mstore\n      0x20\n      add\n      0x00\n      dup2\n      mstore\n      pop\n      swap1\n      jump\t// out\n        /* \"#utility.yul\":7:82   */\n    tag_130:\n        /* \"#utility.yul\":40:46   */\n      0x00\n        /* \"#utility.yul\":73:75   */\n      0x40\n        /* \"#utility.yul\":67:76   */\n      mload\n        /* \"#utility.yul\":57:76   */\n      swap1\n      pop\n        /* \"#utility.yul\":7:82   */\n      swap1\n      jump\t// out\n        /* \"#utility.yul\":88:205   */\n    tag_131:\n        /* \"#utility.yul\":197:198   */\n      0x00\n        /* \"#utility.yul\":194:195   */\n      dup1\n        /* \"#utility.yul\":187:199   */\n      revert\n        /* \"#utility.yul\":211:328   */\n    tag_132:\n        /* \"#utility.yul\":320:321   */\n      0x00\n        /* \"#utility.yul\":317:318   */\n      dup1\n        /* \"#utility.yul\":310:322   */\n      revert\n        /* \"#utility.yul\":334:460   */\n    tag_133:\n        /* \"#utility.yul\":371:378   */\n      0x00\n        /* \"#utility.yul\":411:453   */\n      0xffffffffffffffffffffffffffffffffffffffff\n        /* \"#utility.yul\":404:409   */\n      dup3\n        /* \"#utility.yul\":400:454   */\n      and\n        /* \"#utility.yul\":389:454   */\n      swap1\n      pop\n        /* \"#utility.yul\":334:460   */\n      swap2\n      swap1\n      pop\n      jump\t// out\n        /* \"#utility.yul\":466:562   */\n    tag_134:\n        /* \"#utility.yul\":503:510   */\n      0x00\n        /* \"#utility.yul\":532:556   */\n      tag_203\n        /* \"#utility.yul\":550:555   */\n      dup3\n        /* \"#utility.yul\":532:556   */\n      tag_133\n      jump\t// in\n    tag_203:\n        /* \"#utility.yul\":521:556   */\n      swap1\n      pop\n        /* \"#utility.yul\":466:562   */\n      swap2\n      swap1\n      pop\n      jump\t// out\n        /* \"#utility.yul\":568:690   */\n    tag_135:\n        /* \"#utility.yul\":641:665   */\n      tag_205\n        /* \"#utility.yul\":659:664   */\n      dup2\n        /* \"#utility.yul\":641:665   */\n      tag_134\n      jump\t// in\n    tag_205:\n        /* \"#utility.yul\":634:639   */\n      dup2\n        /* \"#utility.yul\":631:666   */\n      eq\n        /* \"#utility.yul\":621:684   */\n      tag_206\n      jumpi\n        /* \"#utility.yul\":680:681   */\n      0x00\n        /* \"#utility.yul\":677:678   */\n      dup1\n        /* \"#utility.yul\":670:682   */\n      revert\n        /* \"#utility.yul\":621:684   */\n    tag_206:\n        /* \"#utility.yul\":568:690   */\n      pop\n      jump\t// out\n        /* \"#utility.yul\":696:835   */\n    tag_136:\n        /* \"#utility.yul\":742:747   */\n      0x00\n        /* \"#utility.yul\":780:786   */\n      dup2\n        /* \"#utility.yul\":767:787   */\n      calldataload\n        /* \"#utility.yul\":758:787   */\n      swap1\n      pop\n        /* \"#utility.yul\":796:829   */\n      tag_208\n        /* \"#utility.yul\":823:828   */\n      dup2\n        /* \"#utility.yul\":796:829   */\n      tag_135\n      jump\t// in\n    tag_208:\n        /* \"#utility.yul\":696:835   */\n      swap3\n      swap2\n      pop\n      pop\n      jump\t// out\n        /* \"#utility.yul\":841:918   */\n    tag_137:\n        /* \"#utility.yul\":878:885   */\n      0x00\n        /* \"#utility.yul\":907:912   */\n      dup2\n        /* \"#utility.yul\":896:912   */\n      swap1\n      pop\n        /* \"#utility.yul\":841:918   */\n      swap2\n      swap1\n      pop\n      jump\t// out\n        /* \"#utility.yul\":924:1046   */\n    tag_138:\n        /* \"#utility.yul\":997:1021   */\n      tag_211\n        /* \"#utility.yul\":1015:1020   */\n      dup2\n        /* \"#utility.yul\":997:1021   */\n      tag_137\n      jump\t// in\n    tag_211:\n        /* \"#utility.yul\":990:995   */\n      dup2\n        /* \"#utility.yul\":987:1022   */\n      eq\n        /* \"#utility.yul\":977:1040   */\n      tag_212\n      jumpi\n        /* \"#utility.yul\":1036:1037   */\n      0x00\n        /* \"#utility.yul\":1033:1034   */\n      dup1\n        /* \"#utility.yul\":1026:1038   */\n      revert\n        /* \"#utility.yul\":977:1040   */\n    tag_212:\n        /* \"#utility.yul\":924:1046   */\n      pop\n      jump\t// out\n        /* \"#utility.yul\":1052:1191   */\n    tag_139:\n        /* \"#utility.yul\":1098:1103   */\n      0x00\n        /* \"#utility.yul\":1136:1142   */\n      dup2\n        /* \"#utility.yul\":1123:1143   */\n      calldataload\n        /* \"#utility.yul\":1114:1143   */\n      swap1\n      pop\n        /* \"#utility.yul\":1152:1185   */\n      tag_214\n        /* \"#utility.yul\":1179:1184   */\n      dup2\n        /* \"#utility.yul\":1152:1185   */\n      tag_138\n      jump\t// in\n    tag_214:\n        /* \"#utility.yul\":1052:1191   */\n      swap3\n      swap2\n      pop\n      pop\n      jump\t// out\n        /* \"#utility.yul\":1197:1671   */\n    tag_15:\n        /* \"#utility.yul\":1265:1271   */\n      0x00\n        /* \"#utility.yul\":1273:1279   */\n      dup1\n        /* \"#utility.yul\":1322:1324   */\n      0x40\n        /* \"#utility.yul\":1310:1319   */\n      dup4\n        /* \"#utility.yul\":1301:1308   */\n      dup6\n        /* \"#utility.yul\":1297:1320   */\n      sub\n        /* \"#utility.yul\":1293:1325   */\n      slt\n        /* \"#utility.yul\":1290:1409   */\n      iszero\n      tag_216\n      jumpi\n        /* \"#utility.yul\":1328:1407   */\n      tag_217\n      tag_131\n      jump\t// in\n    tag_217:\n        /* \"#utility.yul\":1290:1409   */\n    tag_216:\n        /* \"#utility.yul\":1448:1449   */\n      0x00\n        /* \"#utility.yul\":1473:1526   */\n      tag_218\n        /* \"#utility.yul\":1518:1525   */\n      dup6\n        /* \"#utility.yul\":1509:1515   */\n      dup3\n        /* \"#utility.yul\":1498:1507   */\n      dup7\n        /* \"#utility.yul\":1494:1516   */\n      add\n        /* \"#utility.yul\":1473:1526   */\n      tag_136\n      jump\t// in\n    tag_218:\n        /* \"#utility.yul\":1463:1526   */\n      swap3\n      pop\n        /* \"#utility.yul\":1419:1536   */\n      pop\n        /* \"#utility.yul\":1575:1577   */\n      0x20\n        /* \"#utility.yul\":1601:1654   */\n      tag_219\n        /* \"#utility.yul\":1646:1653   */\n      dup6\n        /* \"#utility.yul\":1637:1643   */\n      dup3\n        /* \"#utility.yul\":1626:1635   */\n      dup7\n        /* \"#utility.yul\":1622:1644   */\n      add\n        /* \"#utility.yul\":1601:1654   */\n      tag_139\n      jump\t// in\n    tag_219:\n        /* \"#utility.yul\":1591:1654   */\n      swap2\n      pop\n        /* \"#utility.yul\":1546:1664   */\n      pop\n        /* \"#utility.yul\":1197:1671   */\n      swap3\n      pop\n      swap3\n      swap1\n      pop\n      jump\t// out\n        /* \"#utility.yul\":1677:1795   */\n    tag_140:\n        /* \"#utility.yul\":1764:1788   */\n      tag_221\n        /* \"#utility.yul\":1782:1787   */\n      dup2\n        /* \"#utility.yul\":1764:1788   */\n      tag_137\n      jump\t// in\n    tag_221:\n        /* \"#utility.yul\":1759:1762   */\n      dup3\n        /* \"#utility.yul\":1752:1789   */\n      mstore\n        /* \"#utility.yul\":1677:1795   */\n      pop\n      pop\n      jump\t// out\n        /* \"#utility.yul\":1801:1919   */\n    tag_141:\n        /* \"#utility.yul\":1888:1912   */\n      tag_223\n        /* \"#utility.yul\":1906:1911   */\n      dup2\n        /* \"#utility.yul\":1888:1912   */\n      tag_134\n      jump\t// in\n    tag_223:\n        /* \"#utility.yul\":1883:1886   */\n      dup3\n        /* \"#utility.yul\":1876:1913   */\n      mstore\n        /* \"#utility.yul\":1801:1919   */\n      pop\n      pop\n      jump\t// out\n        /* \"#utility.yul\":1925:2024   */\n    tag_142:\n        /* \"#utility.yul\":1977:1983   */\n      0x00\n        /* \"#utility.yul\":2011:2016   */\n      dup2\n        /* \"#utility.yul\":2005:2017   */\n      mload\n        /* \"#utility.yul\":1995:2017   */\n      swap1\n      pop\n        /* \"#utility.yul\":1925:2024   */\n      swap2\n      swap1\n      pop\n      jump\t// out\n        /* \"#utility.yul\":2030:2199   */\n    tag_143:\n        /* \"#utility.yul\":2114:2125   */\n      0x00\n        /* \"#utility.yul\":2148:2154   */\n      dup3\n        /* \"#utility.yul\":2143:2146   */\n      dup3\n        /* \"#utility.yul\":2136:2155   */\n      mstore\n        /* \"#utility.yul\":2188:2192   */\n      0x20\n        /* \"#utility.yul\":2183:2186   */\n      dup3\n        /* \"#utility.yul\":2179:2193   */\n      add\n        /* \"#utility.yul\":2164:2193   */\n      swap1\n      pop\n        /* \"#utility.yul\":2030:2199   */\n      swap3\n      swap2\n      pop\n      pop\n      jump\t// out\n        /* \"#utility.yul\":2205:2344   */\n    tag_144:\n        /* \"#utility.yul\":2294:2300   */\n      dup3\n        /* \"#utility.yul\":2289:2292   */\n      dup2\n        /* \"#utility.yul\":2284:2287   */\n      dup4\n        /* \"#utility.yul\":2278:2301   */\n      mcopy\n        /* \"#utility.yul\":2335:2336   */\n      0x00\n        /* \"#utility.yul\":2326:2332   */\n      dup4\n        /* \"#utility.yul\":2321:2324   */\n      dup4\n        /* \"#utility.yul\":2317:2333   */\n      add\n        /* \"#utility.yul\":2310:2337   */\n      mstore\n        /* \"#utility.yul\":2205:2344   */\n      pop\n      pop\n      pop\n      jump\t// out\n        /* \"#utility.yul\":2350:2452   */\n    tag_145:\n        /* \"#utility.yul\":2391:2397   */\n      0x00\n        /* \"#utility.yul\":2442:2444   */\n      0x1f\n        /* \"#utility.yul\":2438:2445   */\n      not\n        /* \"#utility.yul\":2433:2435   */\n      0x1f\n        /* \"#utility.yul\":2426:2431   */\n      dup4\n        /* \"#utility.yul\":2422:2436   */\n      add\n        /* \"#utility.yul\":2418:2446   */\n      and\n        /* \"#utility.yul\":2408:2446   */\n      swap1\n      pop\n        /* \"#utility.yul\":2350:2452   */\n      swap2\n      swap1\n      pop\n      jump\t// out\n        /* \"#utility.yul\":2458:2835   */\n    tag_146:\n        /* \"#utility.yul\":2546:2549   */\n      0x00\n        /* \"#utility.yul\":2574:2613   */\n      tag_229\n        /* \"#utility.yul\":2607:2612   */\n      dup3\n        /* \"#utility.yul\":2574:2613   */\n      tag_142\n      jump\t// in\n    tag_229:\n        /* \"#utility.yul\":2629:2700   */\n      tag_230\n        /* \"#utility.yul\":2693:2699   */\n      dup2\n        /* \"#utility.yul\":2688:2691   */\n      dup6\n        /* \"#utility.yul\":2629:2700   */\n      tag_143\n      jump\t// in\n    tag_230:\n        /* \"#utility.yul\":2622:2700   */\n      swap4\n      pop\n        /* \"#utility.yul\":2709:2774   */\n      tag_231\n        /* \"#utility.yul\":2767:2773   */\n      dup2\n        /* \"#utility.yul\":2762:2765   */\n      dup6\n        /* \"#utility.yul\":2755:2759   */\n      0x20\n        /* \"#utility.yul\":2748:2753   */\n      dup7\n        /* \"#utility.yul\":2744:2760   */\n      add\n        /* \"#utility.yul\":2709:2774   */\n      tag_144\n      jump\t// in\n    tag_231:\n        /* \"#utility.yul\":2799:2828   */\n      tag_232\n        /* \"#utility.yul\":2821:2827   */\n      dup2\n        /* \"#utility.yul\":2799:2828   */\n      tag_145\n      jump\t// in\n    tag_232:\n        /* \"#utility.yul\":2794:2797   */\n      dup5\n        /* \"#utility.yul\":2790:2829   */\n      add\n        /* \"#utility.yul\":2783:2829   */\n      swap2\n      pop\n        /* \"#utility.yul\":2550:2835   */\n      pop\n        /* \"#utility.yul\":2458:2835   */\n      swap3\n      swap2\n      pop\n      pop\n      jump\t// out\n        /* \"#utility.yul\":2841:3596   */\n    tag_18:\n        /* \"#utility.yul\":3066:3070   */\n      0x00\n        /* \"#utility.yul\":3104:3107   */\n      0xa0\n        /* \"#utility.yul\":3093:3102   */\n      dup3\n        /* \"#utility.yul\":3089:3108   */\n      add\n        /* \"#utility.yul\":3081:3108   */\n      swap1\n      pop\n        /* \"#utility.yul\":3118:3189   */\n      tag_234\n        /* \"#utility.yul\":3186:3187   */\n      0x00\n        /* \"#utility.yul\":3175:3184   */\n      dup4\n        /* \"#utility.yul\":3171:3188   */\n      add\n        /* \"#utility.yul\":3162:3168   */\n      dup9\n        /* \"#utility.yul\":3118:3189   */\n      tag_140\n      jump\t// in\n    tag_234:\n        /* \"#utility.yul\":3199:3271   */\n      tag_235\n        /* \"#utility.yul\":3267:3269   */\n      0x20\n        /* \"#utility.yul\":3256:3265   */\n      dup4\n        /* \"#utility.yul\":3252:3270   */\n      add\n        /* \"#utility.yul\":3243:3249   */\n      dup8\n        /* \"#utility.yul\":3199:3271   */\n      tag_141\n      jump\t// in\n    tag_235:\n        /* \"#utility.yul\":3318:3327   */\n      dup2\n        /* \"#utility.yul\":3312:3316   */\n      dup2\n        /* \"#utility.yul\":3308:3328   */\n      sub\n        /* \"#utility.yul\":3303:3305   */\n      0x40\n        /* \"#utility.yul\":3292:3301   */\n      dup4\n        /* \"#utility.yul\":3288:3306   */\n      add\n        /* \"#utility.yul\":3281:3329   */\n      mstore\n        /* \"#utility.yul\":3346:3424   */\n      tag_236\n        /* \"#utility.yul\":3419:3423   */\n      dup2\n        /* \"#utility.yul\":3410:3416   */\n      dup7\n        /* \"#utility.yul\":3346:3424   */\n      tag_146\n      jump\t// in\n    tag_236:\n        /* \"#utility.yul\":3338:3424   */\n      swap1\n      pop\n        /* \"#utility.yul\":3434:3506   */\n      tag_237\n        /* \"#utility.yul\":3502:3504   */\n      0x60\n        /* \"#utility.yul\":3491:3500   */\n      dup4\n        /* \"#utility.yul\":3487:3505   */\n      add\n        /* \"#utility.yul\":3478:3484   */\n      dup6\n        /* \"#utility.yul\":3434:3506   */\n      tag_140\n      jump\t// in\n    tag_237:\n        /* \"#utility.yul\":3516:3589   */\n      tag_238\n        /* \"#utility.yul\":3584:3587   */\n      0x80\n        /* \"#utility.yul\":3573:3582   */\n      dup4\n        /* \"#utility.yul\":3569:3588   */\n      add\n        /* \"#utility.yul\":3560:3566   */\n      dup5\n        /* \"#utility.yul\":3516:3589   */\n      tag_140\n      jump\t// in\n    tag_238:\n        /* \"#utility.yul\":2841:3596   */\n      swap7\n      swap6\n      pop\n      pop\n      pop\n      pop\n      pop\n      pop\n      jump\t// out\n        /* \"#utility.yul\":3602:3931   */\n    tag_21:\n        /* \"#utility.yul\":3661:3667   */\n      0x00\n        /* \"#utility.yul\":3710:3712   */\n      0x20\n        /* \"#utility.yul\":3698:3707   */\n      dup3\n        /* \"#utility.yul\":3689:3696   */\n      dup5\n        /* \"#utility.yul\":3685:3708   */\n      sub\n        /* \"#utility.yul\":3681:3713   */\n      slt\n        /* \"#utility.yul\":3678:3797   */\n      iszero\n      tag_240\n      jumpi\n        /* \"#utility.yul\":3716:3795   */\n      tag_241\n      tag_131\n      jump\t// in\n    tag_241:\n        /* \"#utility.yul\":3678:3797   */\n    tag_240:\n        /* \"#utility.yul\":3836:3837   */\n      0x00\n        /* \"#utility.yul\":3861:3914   */\n      tag_242\n        /* \"#utility.yul\":3906:3913   */\n      dup5\n        /* \"#utility.yul\":3897:3903   */\n      dup3\n        /* \"#utility.yul\":3886:3895   */\n      dup6\n        /* \"#utility.yul\":3882:3904   */\n      add\n        /* \"#utility.yul\":3861:3914   */\n      tag_136\n      jump\t// in\n    tag_242:\n        /* \"#utility.yul\":3851:3914   */\n      swap2\n      pop\n        /* \"#utility.yul\":3807:3924   */\n      pop\n        /* \"#utility.yul\":3602:3931   */\n      swap3\n      swap2\n      pop\n      pop\n      jump\t// out\n        /* \"#utility.yul\":3937:4072   */\n    tag_147:\n        /* \"#utility.yul\":4025:4031   */\n      0x00\n        /* \"#utility.yul\":4059:4064   */\n      dup2\n        /* \"#utility.yul\":4053:4065   */\n      mload\n        /* \"#utility.yul\":4043:4065   */\n      swap1\n      pop\n        /* \"#utility.yul\":3937:4072   */\n      swap2\n      swap1\n      pop\n      jump\t// out\n        /* \"#utility.yul\":4078:4283   */\n    tag_148:\n        /* \"#utility.yul\":4198:4209   */\n      0x00\n        /* \"#utility.yul\":4232:4238   */\n      dup3\n        /* \"#utility.yul\":4227:4230   */\n      dup3\n        /* \"#utility.yul\":4220:4239   */\n      mstore\n        /* \"#utility.yul\":4272:4276   */\n      0x20\n        /* \"#utility.yul\":4267:4270   */\n      dup3\n        /* \"#utility.yul\":4263:4277   */\n      add\n        /* \"#utility.yul\":4248:4277   */\n      swap1\n      pop\n        /* \"#utility.yul\":4078:4283   */\n      swap3\n      swap2\n      pop\n      pop\n      jump\t// out\n        /* \"#utility.yul\":4289:4442   */\n    tag_149:\n        /* \"#utility.yul\":4377:4381   */\n      0x00\n        /* \"#utility.yul\":4400:4403   */\n      dup2\n        /* \"#utility.yul\":4392:4403   */\n      swap1\n      pop\n        /* \"#utility.yul\":4430:4434   */\n      0x20\n        /* \"#utility.yul\":4425:4428   */\n      dup3\n        /* \"#utility.yul\":4421:4435   */\n      add\n        /* \"#utility.yul\":4413:4435   */\n      swap1\n      pop\n        /* \"#utility.yul\":4289:4442   */\n      swap2\n      swap1\n      pop\n      jump\t// out\n        /* \"#utility.yul\":4448:4556   */\n    tag_150:\n        /* \"#utility.yul\":4525:4549   */\n      tag_247\n        /* \"#utility.yul\":4543:4548   */\n      dup2\n        /* \"#utility.yul\":4525:4549   */\n      tag_137\n      jump\t// in\n    tag_247:\n        /* \"#utility.yul\":4520:4523   */\n      dup3\n        /* \"#utility.yul\":4513:4550   */\n      mstore\n        /* \"#utility.yul\":4448:4556   */\n      pop\n      pop\n      jump\t// out\n        /* \"#utility.yul\":4562:4670   */\n    tag_151:\n        /* \"#utility.yul\":4639:4663   */\n      tag_249\n        /* \"#utility.yul\":4657:4662   */\n      dup2\n        /* \"#utility.yul\":4639:4663   */\n      tag_134\n      jump\t// in\n    tag_249:\n        /* \"#utility.yul\":4634:4637   */\n      dup3\n        /* \"#utility.yul\":4627:4664   */\n      mstore\n        /* \"#utility.yul\":4562:4670   */\n      pop\n      pop\n      jump\t// out\n        /* \"#utility.yul\":4676:4835   */\n    tag_152:\n        /* \"#utility.yul\":4750:4761   */\n      0x00\n        /* \"#utility.yul\":4784:4790   */\n      dup3\n        /* \"#utility.yul\":4779:4782   */\n      dup3\n        /* \"#utility.yul\":4772:4791   */\n      mstore\n        /* \"#utility.yul\":4824:4828   */\n      0x20\n        /* \"#utility.yul\":4819:4822   */\n      dup3\n        /* \"#utility.yul\":4815:4829   */\n      add\n        /* \"#utility.yul\":4800:4829   */\n      swap1\n      pop\n        /* \"#utility.yul\":4676:4835   */\n      swap3\n      swap2\n      pop\n      pop\n      jump\t// out\n        /* \"#utility.yul\":4841:5198   */\n    tag_153:\n        /* \"#utility.yul\":4919:4922   */\n      0x00\n        /* \"#utility.yul\":4947:4986   */\n      tag_252\n        /* \"#utility.yul\":4980:4985   */\n      dup3\n        /* \"#utility.yul\":4947:4986   */\n      tag_142\n      jump\t// in\n    tag_252:\n        /* \"#utility.yul\":5002:5063   */\n      tag_253\n        /* \"#utility.yul\":5056:5062   */\n      dup2\n        /* \"#utility.yul\":5051:5054   */\n      dup6\n        /* \"#utility.yul\":5002:5063   */\n      tag_152\n      jump\t// in\n    tag_253:\n        /* \"#utility.yul\":4995:5063   */\n      swap4\n      pop\n        /* \"#utility.yul\":5072:5137   */\n      tag_254\n        /* \"#utility.yul\":5130:5136   */\n      dup2\n        /* \"#utility.yul\":5125:5128   */\n      dup6\n        /* \"#utility.yul\":5118:5122   */\n      0x20\n        /* \"#utility.yul\":5111:5116   */\n      dup7\n        /* \"#utility.yul\":5107:5123   */\n      add\n        /* \"#utility.yul\":5072:5137   */\n      tag_144\n      jump\t// in\n    tag_254:\n        /* \"#utility.yul\":5162:5191   */\n      tag_255\n        /* \"#utility.yul\":5184:5190   */\n      dup2\n        /* \"#utility.yul\":5162:5191   */\n      tag_145\n      jump\t// in\n    tag_255:\n        /* \"#utility.yul\":5157:5160   */\n      dup5\n        /* \"#utility.yul\":5153:5192   */\n      add\n        /* \"#utility.yul\":5146:5192   */\n      swap2\n      pop\n        /* \"#utility.yul\":4923:5198   */\n      pop\n        /* \"#utility.yul\":4841:5198   */\n      swap3\n      swap2\n      pop\n      pop\n      jump\t// out\n        /* \"#utility.yul\":5268:6387   */\n    tag_154:\n        /* \"#utility.yul\":5369:5372   */\n      0x00\n        /* \"#utility.yul\":5405:5409   */\n      0xa0\n        /* \"#utility.yul\":5400:5403   */\n      dup4\n        /* \"#utility.yul\":5396:5410   */\n      add\n        /* \"#utility.yul\":5490:5494   */\n      0x00\n        /* \"#utility.yul\":5483:5488   */\n      dup4\n        /* \"#utility.yul\":5479:5495   */\n      add\n        /* \"#utility.yul\":5473:5496   */\n      mload\n        /* \"#utility.yul\":5509:5572   */\n      tag_257\n        /* \"#utility.yul\":5566:5570   */\n      0x00\n        /* \"#utility.yul\":5561:5564   */\n      dup7\n        /* \"#utility.yul\":5557:5571   */\n      add\n        /* \"#utility.yul\":5543:5555   */\n      dup3\n        /* \"#utility.yul\":5509:5572   */\n      tag_150\n      jump\t// in\n    tag_257:\n        /* \"#utility.yul\":5420:5582   */\n      pop\n        /* \"#utility.yul\":5666:5670   */\n      0x20\n        /* \"#utility.yul\":5659:5664   */\n      dup4\n        /* \"#utility.yul\":5655:5671   */\n      add\n        /* \"#utility.yul\":5649:5672   */\n      mload\n        /* \"#utility.yul\":5685:5748   */\n      tag_258\n        /* \"#utility.yul\":5742:5746   */\n      0x20\n        /* \"#utility.yul\":5737:5740   */\n      dup7\n        /* \"#utility.yul\":5733:5747   */\n      add\n        /* \"#utility.yul\":5719:5731   */\n      dup3\n        /* \"#utility.yul\":5685:5748   */\n      tag_151\n      jump\t// in\n    tag_258:\n        /* \"#utility.yul\":5592:5758   */\n      pop\n        /* \"#utility.yul\":5843:5847   */\n      0x40\n        /* \"#utility.yul\":5836:5841   */\n      dup4\n        /* \"#utility.yul\":5832:5848   */\n      add\n        /* \"#utility.yul\":5826:5849   */\n      mload\n        /* \"#utility.yul\":5896:5899   */\n      dup5\n        /* \"#utility.yul\":5890:5894   */\n      dup3\n        /* \"#utility.yul\":5886:5900   */\n      sub\n        /* \"#utility.yul\":5879:5883   */\n      0x40\n        /* \"#utility.yul\":5874:5877   */\n      dup7\n        /* \"#utility.yul\":5870:5884   */\n      add\n        /* \"#utility.yul\":5863:5901   */\n      mstore\n        /* \"#utility.yul\":5922:5995   */\n      tag_259\n        /* \"#utility.yul\":5990:5994   */\n      dup3\n        /* \"#utility.yul\":5976:5988   */\n      dup3\n        /* \"#utility.yul\":5922:5995   */\n      tag_153\n      jump\t// in\n    tag_259:\n        /* \"#utility.yul\":5914:5995   */\n      swap2\n      pop\n        /* \"#utility.yul\":5768:6006   */\n      pop\n        /* \"#utility.yul\":6093:6097   */\n      0x60\n        /* \"#utility.yul\":6086:6091   */\n      dup4\n        /* \"#utility.yul\":6082:6098   */\n      add\n        /* \"#utility.yul\":6076:6099   */\n      mload\n        /* \"#utility.yul\":6112:6175   */\n      tag_260\n        /* \"#utility.yul\":6169:6173   */\n      0x60\n        /* \"#utility.yul\":6164:6167   */\n      dup7\n        /* \"#utility.yul\":6160:6174   */\n      add\n        /* \"#utility.yul\":6146:6158   */\n      dup3\n        /* \"#utility.yul\":6112:6175   */\n      tag_150\n      jump\t// in\n    tag_260:\n        /* \"#utility.yul\":6016:6185   */\n      pop\n        /* \"#utility.yul\":6268:6272   */\n      0x80\n        /* \"#utility.yul\":6261:6266   */\n      dup4\n        /* \"#utility.yul\":6257:6273   */\n      add\n        /* \"#utility.yul\":6251:6274   */\n      mload\n        /* \"#utility.yul\":6287:6350   */\n      tag_261\n        /* \"#utility.yul\":6344:6348   */\n      0x80\n        /* \"#utility.yul\":6339:6342   */\n      dup7\n        /* \"#utility.yul\":6335:6349   */\n      add\n        /* \"#utility.yul\":6321:6333   */\n      dup3\n        /* \"#utility.yul\":6287:6350   */\n      tag_150\n      jump\t// in\n    tag_261:\n        /* \"#utility.yul\":6195:6360   */\n      pop\n        /* \"#utility.yul\":6377:6381   */\n      dup1\n        /* \"#utility.yul\":6370:6381   */\n      swap2\n      pop\n        /* \"#utility.yul\":5374:6387   */\n      pop\n        /* \"#utility.yul\":5268:6387   */\n      swap3\n      swap2\n      pop\n      pop\n      jump\t// out\n        /* \"#utility.yul\":6393:6633   */\n    tag_155:\n        /* \"#utility.yul\":6504:6514   */\n      0x00\n        /* \"#utility.yul\":6539:6627   */\n      tag_263\n        /* \"#utility.yul\":6623:6626   */\n      dup4\n        /* \"#utility.yul\":6615:6621   */\n      dup4\n        /* \"#utility.yul\":6539:6627   */\n      tag_154\n      jump\t// in\n    tag_263:\n        /* \"#utility.yul\":6525:6627   */\n      swap1\n      pop\n        /* \"#utility.yul\":6393:6633   */\n      swap3\n      swap2\n      pop\n      pop\n      jump\t// out\n        /* \"#utility.yul\":6639:6773   */\n    tag_156:\n        /* \"#utility.yul\":6730:6734   */\n      0x00\n        /* \"#utility.yul\":6762:6766   */\n      0x20\n        /* \"#utility.yul\":6757:6760   */\n      dup3\n        /* \"#utility.yul\":6753:6767   */\n      add\n        /* \"#utility.yul\":6745:6767   */\n      swap1\n      pop\n        /* \"#utility.yul\":6639:6773   */\n      swap2\n      swap1\n      pop\n      jump\t// out\n        /* \"#utility.yul\":6847:7926   */\n    tag_157:\n        /* \"#utility.yul\":7008:7011   */\n      0x00\n        /* \"#utility.yul\":7037:7112   */\n      tag_266\n        /* \"#utility.yul\":7106:7111   */\n      dup3\n        /* \"#utility.yul\":7037:7112   */\n      tag_147\n      jump\t// in\n    tag_266:\n        /* \"#utility.yul\":7128:7235   */\n      tag_267\n        /* \"#utility.yul\":7228:7234   */\n      dup2\n        /* \"#utility.yul\":7223:7226   */\n      dup6\n        /* \"#utility.yul\":7128:7235   */\n      tag_148\n      jump\t// in\n    tag_267:\n        /* \"#utility.yul\":7121:7235   */\n      swap4\n      pop\n        /* \"#utility.yul\":7261:7264   */\n      dup4\n        /* \"#utility.yul\":7306:7310   */\n      0x20\n        /* \"#utility.yul\":7298:7304   */\n      dup3\n        /* \"#utility.yul\":7294:7311   */\n      mul\n        /* \"#utility.yul\":7289:7292   */\n      dup6\n        /* \"#utility.yul\":7285:7312   */\n      add\n        /* \"#utility.yul\":7336:7413   */\n      tag_268\n        /* \"#utility.yul\":7407:7412   */\n      dup6\n        /* \"#utility.yul\":7336:7413   */\n      tag_149\n      jump\t// in\n    tag_268:\n        /* \"#utility.yul\":7436:7443   */\n      dup1\n        /* \"#utility.yul\":7467:7468   */\n      0x00\n        /* \"#utility.yul\":7452:7881   */\n    tag_269:\n        /* \"#utility.yul\":7477:7483   */\n      dup6\n        /* \"#utility.yul\":7474:7475   */\n      dup2\n        /* \"#utility.yul\":7471:7484   */\n      lt\n        /* \"#utility.yul\":7452:7881   */\n      iszero\n      tag_271\n      jumpi\n        /* \"#utility.yul\":7548:7557   */\n      dup5\n        /* \"#utility.yul\":7542:7546   */\n      dup5\n        /* \"#utility.yul\":7538:7558   */\n      sub\n        /* \"#utility.yul\":7533:7536   */\n      dup10\n        /* \"#utility.yul\":7526:7559   */\n      mstore\n        /* \"#utility.yul\":7599:7605   */\n      dup2\n        /* \"#utility.yul\":7593:7606   */\n      mload\n        /* \"#utility.yul\":7627:7733   */\n      tag_272\n        /* \"#utility.yul\":7728:7732   */\n      dup6\n        /* \"#utility.yul\":7713:7726   */\n      dup3\n        /* \"#utility.yul\":7627:7733   */\n      tag_155\n      jump\t// in\n    tag_272:\n        /* \"#utility.yul\":7619:7733   */\n      swap5\n      pop\n        /* \"#utility.yul\":7756:7837   */\n      tag_273\n        /* \"#utility.yul\":7830:7836   */\n      dup4\n        /* \"#utility.yul\":7756:7837   */\n      tag_156\n      jump\t// in\n    tag_273:\n        /* \"#utility.yul\":7746:7837   */\n      swap3\n      pop\n        /* \"#utility.yul\":7866:7870   */\n      0x20\n        /* \"#utility.yul\":7861:7864   */\n      dup11\n        /* \"#utility.yul\":7857:7871   */\n      add\n        /* \"#utility.yul\":7850:7871   */\n      swap10\n      pop\n        /* \"#utility.yul\":7512:7881   */\n      pop\n        /* \"#utility.yul\":7499:7500   */\n      0x01\n        /* \"#utility.yul\":7496:7497   */\n      dup2\n        /* \"#utility.yul\":7492:7501   */\n      add\n        /* \"#utility.yul\":7487:7501   */\n      swap1\n      pop\n        /* \"#utility.yul\":7452:7881   */\n      jump(tag_269)\n    tag_271:\n        /* \"#utility.yul\":7456:7470   */\n      pop\n        /* \"#utility.yul\":7897:7901   */\n      dup3\n        /* \"#utility.yul\":7890:7901   */\n      swap8\n      pop\n        /* \"#utility.yul\":7917:7920   */\n      dup8\n        /* \"#utility.yul\":7910:7920   */\n      swap6\n      pop\n        /* \"#utility.yul\":7013:7926   */\n      pop\n      pop\n      pop\n      pop\n      pop\n        /* \"#utility.yul\":6847:7926   */\n      swap3\n      swap2\n      pop\n      pop\n      jump\t// out\n        /* \"#utility.yul\":7932:8389   */\n    tag_24:\n        /* \"#utility.yul\":8117:8121   */\n      0x00\n        /* \"#utility.yul\":8155:8157   */\n      0x20\n        /* \"#utility.yul\":8144:8153   */\n      dup3\n        /* \"#utility.yul\":8140:8158   */\n      add\n        /* \"#utility.yul\":8132:8158   */\n      swap1\n      pop\n        /* \"#utility.yul\":8204:8213   */\n      dup2\n        /* \"#utility.yul\":8198:8202   */\n      dup2\n        /* \"#utility.yul\":8194:8214   */\n      sub\n        /* \"#utility.yul\":8190:8191   */\n      0x00\n        /* \"#utility.yul\":8179:8188   */\n      dup4\n        /* \"#utility.yul\":8175:8192   */\n      add\n        /* \"#utility.yul\":8168:8215   */\n      mstore\n        /* \"#utility.yul\":8232:8382   */\n      tag_275\n        /* \"#utility.yul\":8377:8381   */\n      dup2\n        /* \"#utility.yul\":8368:8374   */\n      dup5\n        /* \"#utility.yul\":8232:8382   */\n      tag_157\n      jump\t// in\n    tag_275:\n        /* \"#utility.yul\":8224:8382   */\n      swap1\n      pop\n        /* \"#utility.yul\":7932:8389   */\n      swap3\n      swap2\n      pop\n      pop\n      jump\t// out\n        /* \"#utility.yul\":8395:8484   */\n    tag_158:\n        /* \"#utility.yul\":8431:8438   */\n      0x00\n        /* \"#utility.yul\":8471:8477   */\n      0xffff\n        /* \"#utility.yul\":8464:8469   */\n      dup3\n        /* \"#utility.yul\":8460:8478   */\n      and\n        /* \"#utility.yul\":8449:8478   */\n      swap1\n      pop\n        /* \"#utility.yul\":8395:8484   */\n      swap2\n      swap1\n      pop\n      jump\t// out\n        /* \"#utility.yul\":8490:8610   */\n    tag_159:\n        /* \"#utility.yul\":8562:8585   */\n      tag_278\n        /* \"#utility.yul\":8579:8584   */\n      dup2\n        /* \"#utility.yul\":8562:8585   */\n      tag_158\n      jump\t// in\n    tag_278:\n        /* \"#utility.yul\":8555:8560   */\n      dup2\n        /* \"#utility.yul\":8552:8586   */\n      eq\n        /* \"#utility.yul\":8542:8604   */\n      tag_279\n      jumpi\n        /* \"#utility.yul\":8600:8601   */\n      0x00\n        /* \"#utility.yul\":8597:8598   */\n      dup1\n        /* \"#utility.yul\":8590:8602   */\n      revert\n        /* \"#utility.yul\":8542:8604   */\n    tag_279:\n        /* \"#utility.yul\":8490:8610   */\n      pop\n      jump\t// out\n        /* \"#utility.yul\":8616:8753   */\n    tag_160:\n        /* \"#utility.yul\":8661:8666   */\n      0x00\n        /* \"#utility.yul\":8699:8705   */\n      dup2\n        /* \"#utility.yul\":8686:8706   */\n      calldataload\n        /* \"#utility.yul\":8677:8706   */\n      swap1\n      pop\n        /* \"#utility.yul\":8715:8747   */\n      tag_281\n        /* \"#utility.yul\":8741:8746   */\n      dup2\n        /* \"#utility.yul\":8715:8747   */\n      tag_159\n      jump\t// in\n    tag_281:\n        /* \"#utility.yul\":8616:8753   */\n      swap3\n      swap2\n      pop\n      pop\n      jump\t// out\n        /* \"#utility.yul\":8759:9086   */\n    tag_27:\n        /* \"#utility.yul\":8817:8823   */\n      0x00\n        /* \"#utility.yul\":8866:8868   */\n      0x20\n        /* \"#utility.yul\":8854:8863   */\n      dup3\n        /* \"#utility.yul\":8845:8852   */\n      dup5\n        /* \"#utility.yul\":8841:8864   */\n      sub\n        /* \"#utility.yul\":8837:8869   */\n      slt\n        /* \"#utility.yul\":8834:8953   */\n      iszero\n      tag_283\n      jumpi\n        /* \"#utility.yul\":8872:8951   */\n      tag_284\n      tag_131\n      jump\t// in\n    tag_284:\n        /* \"#utility.yul\":8834:8953   */\n    tag_283:\n        /* \"#utility.yul\":8992:8993   */\n      0x00\n        /* \"#utility.yul\":9017:9069   */\n      tag_285\n        /* \"#utility.yul\":9061:9068   */\n      dup5\n        /* \"#utility.yul\":9052:9058   */\n      dup3\n        /* \"#utility.yul\":9041:9050   */\n      dup6\n        /* \"#utility.yul\":9037:9059   */\n      add\n        /* \"#utility.yul\":9017:9069   */\n      tag_160\n      jump\t// in\n    tag_285:\n        /* \"#utility.yul\":9007:9069   */\n      swap2\n      pop\n        /* \"#utility.yul\":8963:9079   */\n      pop\n        /* \"#utility.yul\":8759:9086   */\n      swap3\n      swap2\n      pop\n      pop\n      jump\t// out\n        /* \"#utility.yul\":9092:9207   */\n    tag_161:\n        /* \"#utility.yul\":9177:9200   */\n      tag_287\n        /* \"#utility.yul\":9194:9199   */\n      dup2\n        /* \"#utility.yul\":9177:9200   */\n      tag_158\n      jump\t// in\n    tag_287:\n        /* \"#utility.yul\":9172:9175   */\n      dup3\n        /* \"#utility.yul\":9165:9201   */\n      mstore\n        /* \"#utility.yul\":9092:9207   */\n      pop\n      pop\n      jump\t// out\n        /* \"#utility.yul\":9213:9431   */\n    tag_35:\n        /* \"#utility.yul\":9304:9308   */\n      0x00\n        /* \"#utility.yul\":9342:9344   */\n      0x20\n        /* \"#utility.yul\":9331:9340   */\n      dup3\n        /* \"#utility.yul\":9327:9345   */\n      add\n        /* \"#utility.yul\":9319:9345   */\n      swap1\n      pop\n        /* \"#utility.yul\":9355:9424   */\n      tag_289\n        /* \"#utility.yul\":9421:9422   */\n      0x00\n        /* \"#utility.yul\":9410:9419   */\n      dup4\n        /* \"#utility.yul\":9406:9423   */\n      add\n        /* \"#utility.yul\":9397:9403   */\n      dup5\n        /* \"#utility.yul\":9355:9424   */\n      tag_161\n      jump\t// in\n    tag_289:\n        /* \"#utility.yul\":9213:9431   */\n      swap3\n      swap2\n      pop\n      pop\n      jump\t// out\n        /* \"#utility.yul\":9437:9554   */\n    tag_162:\n        /* \"#utility.yul\":9546:9547   */\n      0x00\n        /* \"#utility.yul\":9543:9544   */\n      dup1\n        /* \"#utility.yul\":9536:9548   */\n      revert\n        /* \"#utility.yul\":9560:9677   */\n    tag_163:\n        /* \"#utility.yul\":9669:9670   */\n      0x00\n        /* \"#utility.yul\":9666:9667   */\n      dup1\n        /* \"#utility.yul\":9659:9671   */\n      revert\n        /* \"#utility.yul\":9683:9863   */\n    tag_164:\n        /* \"#utility.yul\":9731:9808   */\n      0x4e487b7100000000000000000000000000000000000000000000000000000000\n        /* \"#utility.yul\":9728:9729   */\n      0x00\n        /* \"#utility.yul\":9721:9809   */\n      mstore\n        /* \"#utility.yul\":9828:9832   */\n      0x41\n        /* \"#utility.yul\":9825:9826   */\n      0x04\n        /* \"#utility.yul\":9818:9833   */\n      mstore\n        /* \"#utility.yul\":9852:9856   */\n      0x24\n        /* \"#utility.yul\":9849:9850   */\n      0x00\n        /* \"#utility.yul\":9842:9857   */\n      revert\n        /* \"#utility.yul\":9869:10150   */\n    tag_165:\n        /* \"#utility.yul\":9952:9979   */\n      tag_294\n        /* \"#utility.yul\":9974:9978   */\n      dup3\n        /* \"#utility.yul\":9952:9979   */\n      tag_145\n      jump\t// in\n    tag_294:\n        /* \"#utility.yul\":9944:9950   */\n      dup2\n        /* \"#utility.yul\":9940:9980   */\n      add\n        /* \"#utility.yul\":10082:10088   */\n      dup2\n        /* \"#utility.yul\":10070:10080   */\n      dup2\n        /* \"#utility.yul\":10067:10089   */\n      lt\n        /* \"#utility.yul\":10046:10064   */\n      0xffffffffffffffff\n        /* \"#utility.yul\":10034:10044   */\n      dup3\n        /* \"#utility.yul\":10031:10065   */\n      gt\n        /* \"#utility.yul\":10028:10090   */\n      or\n        /* \"#utility.yul\":10025:10113   */\n      iszero\n      tag_295\n      jumpi\n        /* \"#utility.yul\":10093:10111   */\n      tag_296\n      tag_164\n      jump\t// in\n    tag_296:\n        /* \"#utility.yul\":10025:10113   */\n    tag_295:\n        /* \"#utility.yul\":10133:10143   */\n      dup1\n        /* \"#utility.yul\":10129:10131   */\n      0x40\n        /* \"#utility.yul\":10122:10144   */\n      mstore\n        /* \"#utility.yul\":9912:10150   */\n      pop\n        /* \"#utility.yul\":9869:10150   */\n      pop\n      pop\n      jump\t// out\n        /* \"#utility.yul\":10156:10285   */\n    tag_166:\n        /* \"#utility.yul\":10190:10196   */\n      0x00\n        /* \"#utility.yul\":10217:10237   */\n      tag_298\n      tag_130\n      jump\t// in\n    tag_298:\n        /* \"#utility.yul\":10207:10237   */\n      swap1\n      pop\n        /* \"#utility.yul\":10246:10279   */\n      tag_299\n        /* \"#utility.yul\":10274:10278   */\n      dup3\n        /* \"#utility.yul\":10266:10272   */\n      dup3\n        /* \"#utility.yul\":10246:10279   */\n      tag_165\n      jump\t// in\n    tag_299:\n        /* \"#utility.yul\":10156:10285   */\n      swap2\n      swap1\n      pop\n      jump\t// out\n        /* \"#utility.yul\":10291:10599   */\n    tag_167:\n        /* \"#utility.yul\":10353:10357   */\n      0x00\n        /* \"#utility.yul\":10443:10461   */\n      0xffffffffffffffff\n        /* \"#utility.yul\":10435:10441   */\n      dup3\n        /* \"#utility.yul\":10432:10462   */\n      gt\n        /* \"#utility.yul\":10429:10485   */\n      iszero\n      tag_301\n      jumpi\n        /* \"#utility.yul\":10465:10483   */\n      tag_302\n      tag_164\n      jump\t// in\n    tag_302:\n        /* \"#utility.yul\":10429:10485   */\n    tag_301:\n        /* \"#utility.yul\":10503:10532   */\n      tag_303\n        /* \"#utility.yul\":10525:10531   */\n      dup3\n        /* \"#utility.yul\":10503:10532   */\n      tag_145\n      jump\t// in\n    tag_303:\n        /* \"#utility.yul\":10495:10532   */\n      swap1\n      pop\n        /* \"#utility.yul\":10587:10591   */\n      0x20\n        /* \"#utility.yul\":10581:10585   */\n      dup2\n        /* \"#utility.yul\":10577:10592   */\n      add\n        /* \"#utility.yul\":10569:10592   */\n      swap1\n      pop\n        /* \"#utility.yul\":10291:10599   */\n      swap2\n      swap1\n      pop\n      jump\t// out\n        /* \"#utility.yul\":10605:10753   */\n    tag_168:\n        /* \"#utility.yul\":10703:10709   */\n      dup3\n        /* \"#utility.yul\":10698:10701   */\n      dup2\n        /* \"#utility.yul\":10693:10696   */\n      dup4\n        /* \"#utility.yul\":10680:10710   */\n      calldatacopy\n        /* \"#utility.yul\":10744:10745   */\n      0x00\n        /* \"#utility.yul\":10735:10741   */\n      dup4\n        /* \"#utility.yul\":10730:10733   */\n      dup4\n        /* \"#utility.yul\":10726:10742   */\n      add\n        /* \"#utility.yul\":10719:10746   */\n      mstore\n        /* \"#utility.yul\":10605:10753   */\n      pop\n      pop\n      pop\n      jump\t// out\n        /* \"#utility.yul\":10759:11184   */\n    tag_169:\n        /* \"#utility.yul\":10837:10842   */\n      0x00\n        /* \"#utility.yul\":10862:10928   */\n      tag_306\n        /* \"#utility.yul\":10878:10927   */\n      tag_307\n        /* \"#utility.yul\":10920:10926   */\n      dup5\n        /* \"#utility.yul\":10878:10927   */\n      tag_167\n      jump\t// in\n    tag_307:\n        /* \"#utility.yul\":10862:10928   */\n      tag_166\n      jump\t// in\n    tag_306:\n        /* \"#utility.yul\":10853:10928   */\n      swap1\n      pop\n        /* \"#utility.yul\":10951:10957   */\n      dup3\n        /* \"#utility.yul\":10944:10949   */\n      dup2\n        /* \"#utility.yul\":10937:10958   */\n      mstore\n        /* \"#utility.yul\":10989:10993   */\n      0x20\n        /* \"#utility.yul\":10982:10987   */\n      dup2\n        /* \"#utility.yul\":10978:10994   */\n      add\n        /* \"#utility.yul\":11027:11030   */\n      dup5\n        /* \"#utility.yul\":11018:11024   */\n      dup5\n        /* \"#utility.yul\":11013:11016   */\n      dup5\n        /* \"#utility.yul\":11009:11025   */\n      add\n        /* \"#utility.yul\":11006:11031   */\n      gt\n        /* \"#utility.yul\":11003:11115   */\n      iszero\n      tag_308\n      jumpi\n        /* \"#utility.yul\":11034:11113   */\n      tag_309\n      tag_163\n      jump\t// in\n    tag_309:\n        /* \"#utility.yul\":11003:11115   */\n    tag_308:\n        /* \"#utility.yul\":11124:11178   */\n      tag_310\n        /* \"#utility.yul\":11171:11177   */\n      dup5\n        /* \"#utility.yul\":11166:11169   */\n      dup3\n        /* \"#utility.yul\":11161:11164   */\n      dup6\n        /* \"#utility.yul\":11124:11178   */\n      tag_168\n      jump\t// in\n    tag_310:\n        /* \"#utility.yul\":10843:11184   */\n      pop\n        /* \"#utility.yul\":10759:11184   */\n      swap4\n      swap3\n      pop\n      pop\n      pop\n      jump\t// out\n        /* \"#utility.yul\":11204:11544   */\n    tag_170:\n        /* \"#utility.yul\":11260:11265   */\n      0x00\n        /* \"#utility.yul\":11309:11312   */\n      dup3\n        /* \"#utility.yul\":11302:11306   */\n      0x1f\n        /* \"#utility.yul\":11294:11300   */\n      dup4\n        /* \"#utility.yul\":11290:11307   */\n      add\n        /* \"#utility.yul\":11286:11313   */\n      slt\n        /* \"#utility.yul\":11276:11398   */\n      tag_312\n      jumpi\n        /* \"#utility.yul\":11317:11396   */\n      tag_313\n      tag_162\n      jump\t// in\n    tag_313:\n        /* \"#utility.yul\":11276:11398   */\n    tag_312:\n        /* \"#utility.yul\":11434:11440   */\n      dup2\n        /* \"#utility.yul\":11421:11441   */\n      calldataload\n        /* \"#utility.yul\":11459:11538   */\n      tag_314\n        /* \"#utility.yul\":11534:11537   */\n      dup5\n        /* \"#utility.yul\":11526:11532   */\n      dup3\n        /* \"#utility.yul\":11519:11523   */\n      0x20\n        /* \"#utility.yul\":11511:11517   */\n      dup7\n        /* \"#utility.yul\":11507:11524   */\n      add\n        /* \"#utility.yul\":11459:11538   */\n      tag_169\n      jump\t// in\n    tag_314:\n        /* \"#utility.yul\":11450:11538   */\n      swap2\n      pop\n        /* \"#utility.yul\":11266:11544   */\n      pop\n        /* \"#utility.yul\":11204:11544   */\n      swap3\n      swap2\n      pop\n      pop\n      jump\t// out\n        /* \"#utility.yul\":11550:12059   */\n    tag_38:\n        /* \"#utility.yul\":11619:11625   */\n      0x00\n        /* \"#utility.yul\":11668:11670   */\n      0x20\n        /* \"#utility.yul\":11656:11665   */\n      dup3\n        /* \"#utility.yul\":11647:11654   */\n      dup5\n        /* \"#utility.yul\":11643:11666   */\n      sub\n        /* \"#utility.yul\":11639:11671   */\n      slt\n        /* \"#utility.yul\":11636:11755   */\n      iszero\n      tag_316\n      jumpi\n        /* \"#utility.yul\":11674:11753   */\n      tag_317\n      tag_131\n      jump\t// in\n    tag_317:\n        /* \"#utility.yul\":11636:11755   */\n    tag_316:\n        /* \"#utility.yul\":11822:11823   */\n      0x00\n        /* \"#utility.yul\":11811:11820   */\n      dup3\n        /* \"#utility.yul\":11807:11824   */\n      add\n        /* \"#utility.yul\":11794:11825   */\n      calldataload\n        /* \"#utility.yul\":11852:11870   */\n      0xffffffffffffffff\n        /* \"#utility.yul\":11844:11850   */\n      dup2\n        /* \"#utility.yul\":11841:11871   */\n      gt\n        /* \"#utility.yul\":11838:11955   */\n      iszero\n      tag_318\n      jumpi\n        /* \"#utility.yul\":11874:11953   */\n      tag_319\n      tag_132\n      jump\t// in\n    tag_319:\n        /* \"#utility.yul\":11838:11955   */\n    tag_318:\n        /* \"#utility.yul\":11979:12042   */\n      tag_320\n        /* \"#utility.yul\":12034:12041   */\n      dup5\n        /* \"#utility.yul\":12025:12031   */\n      dup3\n        /* \"#utility.yul\":12014:12023   */\n      dup6\n        /* \"#utility.yul\":12010:12032   */\n      add\n        /* \"#utility.yul\":11979:12042   */\n      tag_170\n      jump\t// in\n    tag_320:\n        /* \"#utility.yul\":11969:12042   */\n      swap2\n      pop\n        /* \"#utility.yul\":11765:12052   */\n      pop\n        /* \"#utility.yul\":11550:12059   */\n      swap3\n      swap2\n      pop\n      pop\n      jump\t// out\n        /* \"#utility.yul\":12065:12287   */\n    tag_43:\n        /* \"#utility.yul\":12158:12162   */\n      0x00\n        /* \"#utility.yul\":12196:12198   */\n      0x20\n        /* \"#utility.yul\":12185:12194   */\n      dup3\n        /* \"#utility.yul\":12181:12199   */\n      add\n        /* \"#utility.yul\":12173:12199   */\n      swap1\n      pop\n        /* \"#utility.yul\":12209:12280   */\n      tag_322\n        /* \"#utility.yul\":12277:12278   */\n      0x00\n        /* \"#utility.yul\":12266:12275   */\n      dup4\n        /* \"#utility.yul\":12262:12279   */\n      add\n        /* \"#utility.yul\":12253:12259   */\n      dup5\n        /* \"#utility.yul\":12209:12280   */\n      tag_141\n      jump\t// in\n    tag_322:\n        /* \"#utility.yul\":12065:12287   */\n      swap3\n      swap2\n      pop\n      pop\n      jump\t// out\n        /* \"#utility.yul\":12293:12622   */\n    tag_49:\n        /* \"#utility.yul\":12352:12358   */\n      0x00\n        /* \"#utility.yul\":12401:12403   */\n      0x20\n        /* \"#utility.yul\":12389:12398   */\n      dup3\n        /* \"#utility.yul\":12380:12387   */\n      dup5\n        /* \"#utility.yul\":12376:12399   */\n      sub\n        /* \"#utility.yul\":12372:12404   */\n      slt\n        /* \"#utility.yul\":12369:12488   */\n      iszero\n      tag_324\n      jumpi\n        /* \"#utility.yul\":12407:12486   */\n      tag_325\n      tag_131\n      jump\t// in\n    tag_325:\n        /* \"#utility.yul\":12369:12488   */\n    tag_324:\n        /* \"#utility.yul\":12527:12528   */\n      0x00\n        /* \"#utility.yul\":12552:12605   */\n      tag_326\n        /* \"#utility.yul\":12597:12604   */\n      dup5\n        /* \"#utility.yul\":12588:12594   */\n      dup3\n        /* \"#utility.yul\":12577:12586   */\n      dup6\n        /* \"#utility.yul\":12573:12595   */\n      add\n        /* \"#utility.yul\":12552:12605   */\n      tag_139\n      jump\t// in\n    tag_326:\n        /* \"#utility.yul\":12542:12605   */\n      swap2\n      pop\n        /* \"#utility.yul\":12498:12615   */\n      pop\n        /* \"#utility.yul\":12293:12622   */\n      swap3\n      swap2\n      pop\n      pop\n      jump\t// out\n        /* \"#utility.yul\":12692:13821   */\n    tag_171:\n        /* \"#utility.yul\":12803:12806   */\n      0x00\n        /* \"#utility.yul\":12839:12843   */\n      0xa0\n        /* \"#utility.yul\":12834:12837   */\n      dup4\n        /* \"#utility.yul\":12830:12844   */\n      add\n        /* \"#utility.yul\":12924:12928   */\n      0x00\n        /* \"#utility.yul\":12917:12922   */\n      dup4\n        /* \"#utility.yul\":12913:12929   */\n      add\n        /* \"#utility.yul\":12907:12930   */\n      mload\n        /* \"#utility.yul\":12943:13006   */\n      tag_328\n        /* \"#utility.yul\":13000:13004   */\n      0x00\n        /* \"#utility.yul\":12995:12998   */\n      dup7\n        /* \"#utility.yul\":12991:13005   */\n      add\n        /* \"#utility.yul\":12977:12989   */\n      dup3\n        /* \"#utility.yul\":12943:13006   */\n      tag_150\n      jump\t// in\n    tag_328:\n        /* \"#utility.yul\":12854:13016   */\n      pop\n        /* \"#utility.yul\":13100:13104   */\n      0x20\n        /* \"#utility.yul\":13093:13098   */\n      dup4\n        /* \"#utility.yul\":13089:13105   */\n      add\n        /* \"#utility.yul\":13083:13106   */\n      mload\n        /* \"#utility.yul\":13119:13182   */\n      tag_329\n        /* \"#utility.yul\":13176:13180   */\n      0x20\n        /* \"#utility.yul\":13171:13174   */\n      dup7\n        /* \"#utility.yul\":13167:13181   */\n      add\n        /* \"#utility.yul\":13153:13165   */\n      dup3\n        /* \"#utility.yul\":13119:13182   */\n      tag_151\n      jump\t// in\n    tag_329:\n        /* \"#utility.yul\":13026:13192   */\n      pop\n        /* \"#utility.yul\":13277:13281   */\n      0x40\n        /* \"#utility.yul\":13270:13275   */\n      dup4\n        /* \"#utility.yul\":13266:13282   */\n      add\n        /* \"#utility.yul\":13260:13283   */\n      mload\n        /* \"#utility.yul\":13330:13333   */\n      dup5\n        /* \"#utility.yul\":13324:13328   */\n      dup3\n        /* \"#utility.yul\":13320:13334   */\n      sub\n        /* \"#utility.yul\":13313:13317   */\n      0x40\n        /* \"#utility.yul\":13308:13311   */\n      dup7\n        /* \"#utility.yul\":13304:13318   */\n      add\n        /* \"#utility.yul\":13297:13335   */\n      mstore\n        /* \"#utility.yul\":13356:13429   */\n      tag_330\n        /* \"#utility.yul\":13424:13428   */\n      dup3\n        /* \"#utility.yul\":13410:13422   */\n      dup3\n        /* \"#utility.yul\":13356:13429   */\n      tag_153\n      jump\t// in\n    tag_330:\n        /* \"#utility.yul\":13348:13429   */\n      swap2\n      pop\n        /* \"#utility.yul\":13202:13440   */\n      pop\n        /* \"#utility.yul\":13527:13531   */\n      0x60\n        /* \"#utility.yul\":13520:13525   */\n      dup4\n        /* \"#utility.yul\":13516:13532   */\n      add\n        /* \"#utility.yul\":13510:13533   */\n      mload\n        /* \"#utility.yul\":13546:13609   */\n      tag_331\n        /* \"#utility.yul\":13603:13607   */\n      0x60\n        /* \"#utility.yul\":13598:13601   */\n      dup7\n        /* \"#utility.yul\":13594:13608   */\n      add\n        /* \"#utility.yul\":13580:13592   */\n      dup3\n        /* \"#utility.yul\":13546:13609   */\n      tag_150\n      jump\t// in\n    tag_331:\n        /* \"#utility.yul\":13450:13619   */\n      pop\n        /* \"#utility.yul\":13702:13706   */\n      0x80\n        /* \"#utility.yul\":13695:13700   */\n      dup4\n        /* \"#utility.yul\":13691:13707   */\n      add\n        /* \"#utility.yul\":13685:13708   */\n      mload\n        /* \"#utility.yul\":13721:13784   */\n      tag_332\n        /* \"#utility.yul\":13778:13782   */\n      0x80\n        /* \"#utility.yul\":13773:13776   */\n      dup7\n        /* \"#utility.yul\":13769:13783   */\n      add\n        /* \"#utility.yul\":13755:13767   */\n      dup3\n        /* \"#utility.yul\":13721:13784   */\n      tag_150\n      jump\t// in\n    tag_332:\n        /* \"#utility.yul\":13629:13794   */\n      pop\n        /* \"#utility.yul\":13811:13815   */\n      dup1\n        /* \"#utility.yul\":13804:13815   */\n      swap2\n      pop\n        /* \"#utility.yul\":12808:13821   */\n      pop\n        /* \"#utility.yul\":12692:13821   */\n      swap3\n      swap2\n      pop\n      pop\n      jump\t// out\n        /* \"#utility.yul\":13827:14184   */\n    tag_52:\n        /* \"#utility.yul\":13962:13966   */\n      0x00\n        /* \"#utility.yul\":14000:14002   */\n      0x20\n        /* \"#utility.yul\":13989:13998   */\n      dup3\n        /* \"#utility.yul\":13985:14003   */\n      add\n        /* \"#utility.yul\":13977:14003   */\n      swap1\n      pop\n        /* \"#utility.yul\":14049:14058   */\n      dup2\n        /* \"#utility.yul\":14043:14047   */\n      dup2\n        /* \"#utility.yul\":14039:14059   */\n      sub\n        /* \"#utility.yul\":14035:14036   */\n      0x00\n        /* \"#utility.yul\":14024:14033   */\n      dup4\n        /* \"#utility.yul\":14020:14037   */\n      add\n        /* \"#utility.yul\":14013:14060   */\n      mstore\n        /* \"#utility.yul\":14077:14177   */\n      tag_334\n        /* \"#utility.yul\":14172:14176   */\n      dup2\n        /* \"#utility.yul\":14163:14169   */\n      dup5\n        /* \"#utility.yul\":14077:14177   */\n      tag_171\n      jump\t// in\n    tag_334:\n        /* \"#utility.yul\":14069:14177   */\n      swap1\n      pop\n        /* \"#utility.yul\":13827:14184   */\n      swap3\n      swap2\n      pop\n      pop\n      jump\t// out\n        /* \"#utility.yul\":14190:14370   */\n    tag_172:\n        /* \"#utility.yul\":14238:14315   */\n      0x4e487b7100000000000000000000000000000000000000000000000000000000\n        /* \"#utility.yul\":14235:14236   */\n      0x00\n        /* \"#utility.yul\":14228:14316   */\n      mstore\n        /* \"#utility.yul\":14335:14339   */\n      0x22\n        /* \"#utility.yul\":14332:14333   */\n      0x04\n        /* \"#utility.yul\":14325:14340   */\n      mstore\n        /* \"#utility.yul\":14359:14363   */\n      0x24\n        /* \"#utility.yul\":14356:14357   */\n      0x00\n        /* \"#utility.yul\":14349:14364   */\n      revert\n        /* \"#utility.yul\":14376:14696   */\n    tag_56:\n        /* \"#utility.yul\":14420:14426   */\n      0x00\n        /* \"#utility.yul\":14457:14458   */\n      0x02\n        /* \"#utility.yul\":14451:14455   */\n      dup3\n        /* \"#utility.yul\":14447:14459   */\n      div\n        /* \"#utility.yul\":14437:14459   */\n      swap1\n      pop\n        /* \"#utility.yul\":14504:14505   */\n      0x01\n        /* \"#utility.yul\":14498:14502   */\n      dup3\n        /* \"#utility.yul\":14494:14506   */\n      and\n        /* \"#utility.yul\":14525:14543   */\n      dup1\n        /* \"#utility.yul\":14515:14596   */\n      tag_337\n      jumpi\n        /* \"#utility.yul\":14581:14585   */\n      0x7f\n        /* \"#utility.yul\":14573:14579   */\n      dup3\n        /* \"#utility.yul\":14569:14586   */\n      and\n        /* \"#utility.yul\":14559:14586   */\n      swap2\n      pop\n        /* \"#utility.yul\":14515:14596   */\n    tag_337:\n        /* \"#utility.yul\":14643:14645   */\n      0x20\n        /* \"#utility.yul\":14635:14641   */\n      dup3\n        /* \"#utility.yul\":14632:14646   */\n      lt\n        /* \"#utility.yul\":14612:14630   */\n      dup2\n        /* \"#utility.yul\":14609:14647   */\n      sub\n        /* \"#utility.yul\":14606:14690   */\n      tag_338\n      jumpi\n        /* \"#utility.yul\":14662:14680   */\n      tag_339\n      tag_172\n      jump\t// in\n    tag_339:\n        /* \"#utility.yul\":14606:14690   */\n    tag_338:\n        /* \"#utility.yul\":14427:14696   */\n      pop\n        /* \"#utility.yul\":14376:14696   */\n      swap2\n      swap1\n      pop\n      jump\t// out\n        /* \"#utility.yul\":14702:14873   */\n    tag_173:\n        /* \"#utility.yul\":14842:14865   */\n      0x596f7520617265206e6f7420746865206f776e65720000000000000000000000\n        /* \"#utility.yul\":14838:14839   */\n      0x00\n        /* \"#utility.yul\":14830:14836   */\n      dup3\n        /* \"#utility.yul\":14826:14840   */\n      add\n        /* \"#utility.yul\":14819:14866   */\n      mstore\n        /* \"#utility.yul\":14702:14873   */\n      pop\n      jump\t// out\n        /* \"#utility.yul\":14879:15245   */\n    tag_174:\n        /* \"#utility.yul\":15021:15024   */\n      0x00\n        /* \"#utility.yul\":15042:15109   */\n      tag_342\n        /* \"#utility.yul\":15106:15108   */\n      0x15\n        /* \"#utility.yul\":15101:15104   */\n      dup4\n        /* \"#utility.yul\":15042:15109   */\n      tag_143\n      jump\t// in\n    tag_342:\n        /* \"#utility.yul\":15035:15109   */\n      swap2\n      pop\n        /* \"#utility.yul\":15118:15211   */\n      tag_343\n        /* \"#utility.yul\":15207:15210   */\n      dup3\n        /* \"#utility.yul\":15118:15211   */\n      tag_173\n      jump\t// in\n    tag_343:\n        /* \"#utility.yul\":15236:15238   */\n      0x20\n        /* \"#utility.yul\":15231:15234   */\n      dup3\n        /* \"#utility.yul\":15227:15239   */\n      add\n        /* \"#utility.yul\":15220:15239   */\n      swap1\n      pop\n        /* \"#utility.yul\":14879:15245   */\n      swap2\n      swap1\n      pop\n      jump\t// out\n        /* \"#utility.yul\":15251:15670   */\n    tag_73:\n        /* \"#utility.yul\":15417:15421   */\n      0x00\n        /* \"#utility.yul\":15455:15457   */\n      0x20\n        /* \"#utility.yul\":15444:15453   */\n      dup3\n        /* \"#utility.yul\":15440:15458   */\n      add\n        /* \"#utility.yul\":15432:15458   */\n      swap1\n      pop\n        /* \"#utility.yul\":15504:15513   */\n      dup2\n        /* \"#utility.yul\":15498:15502   */\n      dup2\n        /* \"#utility.yul\":15494:15514   */\n      sub\n        /* \"#utility.yul\":15490:15491   */\n      0x00\n        /* \"#utility.yul\":15479:15488   */\n      dup4\n        /* \"#utility.yul\":15475:15492   */\n      add\n        /* \"#utility.yul\":15468:15515   */\n      mstore\n        /* \"#utility.yul\":15532:15663   */\n      tag_345\n        /* \"#utility.yul\":15658:15662   */\n      dup2\n        /* \"#utility.yul\":15532:15663   */\n      tag_174\n      jump\t// in\n    tag_345:\n        /* \"#utility.yul\":15524:15663   */\n      swap1\n      pop\n        /* \"#utility.yul\":15251:15670   */\n      swap2\n      swap1\n      pop\n      jump\t// out\n        /* \"#utility.yul\":15676:15856   */\n    tag_78:\n        /* \"#utility.yul\":15724:15801   */\n      0x4e487b7100000000000000000000000000000000000000000000000000000000\n        /* \"#utility.yul\":15721:15722   */\n      0x00\n        /* \"#utility.yul\":15714:15802   */\n      mstore\n        /* \"#utility.yul\":15821:15825   */\n      0x32\n        /* \"#utility.yul\":15818:15819   */\n      0x04\n        /* \"#utility.yul\":15811:15826   */\n      mstore\n        /* \"#utility.yul\":15845:15849   */\n      0x24\n        /* \"#utility.yul\":15842:15843   */\n      0x00\n        /* \"#utility.yul\":15835:15850   */\n      revert\n        /* \"#utility.yul\":15862:16032   */\n    tag_175:\n        /* \"#utility.yul\":16002:16024   */\n      0x545745455420646f6573206e6f74206578697374000000000000000000000000\n        /* \"#utility.yul\":15998:15999   */\n      0x00\n        /* \"#utility.yul\":15990:15996   */\n      dup3\n        /* \"#utility.yul\":15986:16000   */\n      add\n        /* \"#utility.yul\":15979:16025   */\n      mstore\n        /* \"#utility.yul\":15862:16032   */\n      pop\n      jump\t// out\n        /* \"#utility.yul\":16038:16404   */\n    tag_176:\n        /* \"#utility.yul\":16180:16183   */\n      0x00\n        /* \"#utility.yul\":16201:16268   */\n      tag_349\n        /* \"#utility.yul\":16265:16267   */\n      0x14\n        /* \"#utility.yul\":16260:16263   */\n      dup4\n        /* \"#utility.yul\":16201:16268   */\n      tag_143\n      jump\t// in\n    tag_349:\n        /* \"#utility.yul\":16194:16268   */\n      swap2\n      pop\n        /* \"#utility.yul\":16277:16370   */\n      tag_350\n        /* \"#utility.yul\":16366:16369   */\n      dup3\n        /* \"#utility.yul\":16277:16370   */\n      tag_175\n      jump\t// in\n    tag_350:\n        /* \"#utility.yul\":16395:16397   */\n      0x20\n        /* \"#utility.yul\":16390:16393   */\n      dup3\n        /* \"#utility.yul\":16386:16398   */\n      add\n        /* \"#utility.yul\":16379:16398   */\n      swap1\n      pop\n        /* \"#utility.yul\":16038:16404   */\n      swap2\n      swap1\n      pop\n      jump\t// out\n        /* \"#utility.yul\":16410:16829   */\n    tag_82:\n        /* \"#utility.yul\":16576:16580   */\n      0x00\n        /* \"#utility.yul\":16614:16616   */\n      0x20\n        /* \"#utility.yul\":16603:16612   */\n      dup3\n        /* \"#utility.yul\":16599:16617   */\n      add\n        /* \"#utility.yul\":16591:16617   */\n      swap1\n      pop\n        /* \"#utility.yul\":16663:16672   */\n      dup2\n        /* \"#utility.yul\":16657:16661   */\n      dup2\n        /* \"#utility.yul\":16653:16673   */\n      sub\n        /* \"#utility.yul\":16649:16650   */\n      0x00\n        /* \"#utility.yul\":16638:16647   */\n      dup4\n        /* \"#utility.yul\":16634:16651   */\n      add\n        /* \"#utility.yul\":16627:16674   */\n      mstore\n        /* \"#utility.yul\":16691:16822   */\n      tag_352\n        /* \"#utility.yul\":16817:16821   */\n      dup2\n        /* \"#utility.yul\":16691:16822   */\n      tag_176\n      jump\t// in\n    tag_352:\n        /* \"#utility.yul\":16683:16822   */\n      swap1\n      pop\n        /* \"#utility.yul\":16410:16829   */\n      swap2\n      swap1\n      pop\n      jump\t// out\n        /* \"#utility.yul\":16835:17015   */\n    tag_177:\n        /* \"#utility.yul\":16883:16960   */\n      0x4e487b7100000000000000000000000000000000000000000000000000000000\n        /* \"#utility.yul\":16880:16881   */\n      0x00\n        /* \"#utility.yul\":16873:16961   */\n      mstore\n        /* \"#utility.yul\":16980:16984   */\n      0x11\n        /* \"#utility.yul\":16977:16978   */\n      0x04\n        /* \"#utility.yul\":16970:16985   */\n      mstore\n        /* \"#utility.yul\":17004:17008   */\n      0x24\n        /* \"#utility.yul\":17001:17002   */\n      0x00\n        /* \"#utility.yul\":16994:17009   */\n      revert\n        /* \"#utility.yul\":17021:17254   */\n    tag_87:\n        /* \"#utility.yul\":17060:17063   */\n      0x00\n        /* \"#utility.yul\":17083:17107   */\n      tag_355\n        /* \"#utility.yul\":17101:17106   */\n      dup3\n        /* \"#utility.yul\":17083:17107   */\n      tag_137\n      jump\t// in\n    tag_355:\n        /* \"#utility.yul\":17074:17107   */\n      swap2\n      pop\n        /* \"#utility.yul\":17129:17195   */\n      0xffffffffffffffffffffffffffffffffffffffffffffffffffffffffffffffff\n        /* \"#utility.yul\":17122:17127   */\n      dup3\n        /* \"#utility.yul\":17119:17196   */\n      sub\n        /* \"#utility.yul\":17116:17219   */\n      tag_356\n      jumpi\n        /* \"#utility.yul\":17199:17217   */\n      tag_357\n      tag_177\n      jump\t// in\n    tag_357:\n        /* \"#utility.yul\":17116:17219   */\n    tag_356:\n        /* \"#utility.yul\":17246:17247   */\n      0x01\n        /* \"#utility.yul\":17239:17244   */\n      dup3\n        /* \"#utility.yul\":17235:17248   */\n      add\n        /* \"#utility.yul\":17228:17248   */\n      swap1\n      pop\n        /* \"#utility.yul\":17021:17254   */\n      swap2\n      swap1\n      pop\n      jump\t// out\n        /* \"#utility.yul\":17260:17813   */\n    tag_92:\n        /* \"#utility.yul\":17437:17441   */\n      0x00\n        /* \"#utility.yul\":17475:17478   */\n      0x80\n        /* \"#utility.yul\":17464:17473   */\n      dup3\n        /* \"#utility.yul\":17460:17479   */\n      add\n        /* \"#utility.yul\":17452:17479   */\n      swap1\n      pop\n        /* \"#utility.yul\":17489:17560   */\n      tag_359\n        /* \"#utility.yul\":17557:17558   */\n      0x00\n        /* \"#utility.yul\":17546:17555   */\n      dup4\n        /* \"#utility.yul\":17542:17559   */\n      add\n        /* \"#utility.yul\":17533:17539   */\n      dup8\n        /* \"#utility.yul\":17489:17560   */\n      tag_141\n      jump\t// in\n    tag_359:\n        /* \"#utility.yul\":17570:17642   */\n      tag_360\n        /* \"#utility.yul\":17638:17640   */\n      0x20\n        /* \"#utility.yul\":17627:17636   */\n      dup4\n        /* \"#utility.yul\":17623:17641   */\n      add\n        /* \"#utility.yul\":17614:17620   */\n      dup7\n        /* \"#utility.yul\":17570:17642   */\n      tag_141\n      jump\t// in\n    tag_360:\n        /* \"#utility.yul\":17652:17724   */\n      tag_361\n        /* \"#utility.yul\":17720:17722   */\n      0x40\n        /* \"#utility.yul\":17709:17718   */\n      dup4\n        /* \"#utility.yul\":17705:17723   */\n      add\n        /* \"#utility.yul\":17696:17702   */\n      dup6\n        /* \"#utility.yul\":17652:17724   */\n      tag_140\n      jump\t// in\n    tag_361:\n        /* \"#utility.yul\":17734:17806   */\n      tag_362\n        /* \"#utility.yul\":17802:17804   */\n      0x60\n        /* \"#utility.yul\":17791:17800   */\n      dup4\n        /* \"#utility.yul\":17787:17805   */\n      add\n        /* \"#utility.yul\":17778:17784   */\n      dup5\n        /* \"#utility.yul\":17734:17806   */\n      tag_140\n      jump\t// in\n    tag_362:\n        /* \"#utility.yul\":17260:17813   */\n      swap6\n      swap5\n      pop\n      pop\n      pop\n      pop\n      pop\n      jump\t// out\n        /* \"#utility.yul\":17819:17986   */\n    tag_178:\n        /* \"#utility.yul\":17959:17978   */\n      0x547765657420697320746f6f206c6f6e67000000000000000000000000000000\n        /* \"#utility.yul\":17955:17956   */\n      0x00\n        /* \"#utility.yul\":17947:17953   */\n      dup3\n        /* \"#utility.yul\":17943:17957   */\n      add\n        /* \"#utility.yul\":17936:17979   */\n      mstore\n        /* \"#utility.yul\":17819:17986   */\n      pop\n      jump\t// out\n        /* \"#utility.yul\":17992:18358   */\n    tag_179:\n        /* \"#utility.yul\":18134:18137   */\n      0x00\n        /* \"#utility.yul\":18155:18222   */\n      tag_365\n        /* \"#utility.yul\":18219:18221   */\n      0x11\n        /* \"#utility.yul\":18214:18217   */\n      dup4\n        /* \"#utility.yul\":18155:18222   */\n      tag_143\n      jump\t// in\n    tag_365:\n        /* \"#utility.yul\":18148:18222   */\n      swap2\n      pop\n        /* \"#utility.yul\":18231:18324   */\n      tag_366\n        /* \"#utility.yul\":18320:18323   */\n      dup3\n        /* \"#utility.yul\":18231:18324   */\n      tag_178\n      jump\t// in\n    tag_366:\n        /* \"#utility.yul\":18349:18351   */\n      0x20\n        /* \"#utility.yul\":18344:18347   */\n      dup3\n        /* \"#utility.yul\":18340:18352   */\n      add\n        /* \"#utility.yul\":18333:18352   */\n      swap1\n      pop\n        /* \"#utility.yul\":17992:18358   */\n      swap2\n      swap1\n      pop\n      jump\t// out\n        /* \"#utility.yul\":18364:18783   */\n    tag_96:\n        /* \"#utility.yul\":18530:18534   */\n      0x00\n        /* \"#utility.yul\":18568:18570   */\n      0x20\n        /* \"#utility.yul\":18557:18566   */\n      dup3\n        /* \"#utility.yul\":18553:18571   */\n      add\n        /* \"#utility.yul\":18545:18571   */\n      swap1\n      pop\n        /* \"#utility.yul\":18617:18626   */\n      dup2\n        /* \"#utility.yul\":18611:18615   */\n      dup2\n        /* \"#utility.yul\":18607:18627   */\n      sub\n        /* \"#utility.yul\":18603:18604   */\n      0x00\n        /* \"#utility.yul\":18592:18601   */\n      dup4\n        /* \"#utility.yul\":18588:18605   */\n      add\n        /* \"#utility.yul\":18581:18628   */\n      mstore\n        /* \"#utility.yul\":18645:18776   */\n      tag_368\n        /* \"#utility.yul\":18771:18775   */\n      dup2\n        /* \"#utility.yul\":18645:18776   */\n      tag_179\n      jump\t// in\n    tag_368:\n        /* \"#utility.yul\":18637:18776   */\n      swap1\n      pop\n        /* \"#utility.yul\":18364:18783   */\n      swap2\n      swap1\n      pop\n      jump\t// out\n        /* \"#utility.yul\":18789:18930   */\n    tag_180:\n        /* \"#utility.yul\":18838:18842   */\n      0x00\n        /* \"#utility.yul\":18861:18864   */\n      dup2\n        /* \"#utility.yul\":18853:18864   */\n      swap1\n      pop\n        /* \"#utility.yul\":18884:18887   */\n      dup2\n        /* \"#utility.yul\":18881:18882   */\n      0x00\n        /* \"#utility.yul\":18874:18888   */\n      mstore\n        /* \"#utility.yul\":18918:18922   */\n      0x20\n        /* \"#utility.yul\":18915:18916   */\n      0x00\n        /* \"#utility.yul\":18905:18923   */\n      keccak256\n        /* \"#utility.yul\":18897:18923   */\n      swap1\n      pop\n        /* \"#utility.yul\":18789:18930   */\n      swap2\n      swap1\n      pop\n      jump\t// out\n        /* \"#utility.yul\":18936:19029   */\n    tag_181:\n        /* \"#utility.yul\":18973:18979   */\n      0x00\n        /* \"#utility.yul\":19020:19022   */\n      0x20\n        /* \"#utility.yul\":19015:19017   */\n      0x1f\n        /* \"#utility.yul\":19008:19013   */\n      dup4\n        /* \"#utility.yul\":19004:19018   */\n      add\n        /* \"#utility.yul\":19000:19023   */\n      div\n        /* \"#utility.yul\":18990:19023   */\n      swap1\n      pop\n        /* \"#utility.yul\":18936:19029   */\n      swap2\n      swap1\n      pop\n      jump\t// out\n        /* \"#utility.yul\":19035:19142   */\n    tag_182:\n        /* \"#utility.yul\":19079:19087   */\n      0x00\n        /* \"#utility.yul\":19129:19134   */\n      dup3\n        /* \"#utility.yul\":19123:19127   */\n      dup3\n        /* \"#utility.yul\":19119:19135   */\n      shl\n        /* \"#utility.yul\":19098:19135   */\n      swap1\n      pop\n        /* \"#utility.yul\":19035:19142   */\n      swap3\n      swap2\n      pop\n      pop\n      jump\t// out\n        /* \"#utility.yul\":19148:19541   */\n    tag_183:\n        /* \"#utility.yul\":19217:19223   */\n      0x00\n        /* \"#utility.yul\":19267:19268   */\n      0x08\n        /* \"#utility.yul\":19255:19265   */\n      dup4\n        /* \"#utility.yul\":19251:19269   */\n      mul\n        /* \"#utility.yul\":19290:19387   */\n      tag_373\n        /* \"#utility.yul\":19320:19386   */\n      0xffffffffffffffffffffffffffffffffffffffffffffffffffffffffffffffff\n        /* \"#utility.yul\":19309:19318   */\n      dup3\n        /* \"#utility.yul\":19290:19387   */\n      tag_182\n      jump\t// in\n    tag_373:\n        /* \"#utility.yul\":19408:19447   */\n      tag_374\n        /* \"#utility.yul\":19438:19446   */\n      dup7\n        /* \"#utility.yul\":19427:19436   */\n      dup4\n        /* \"#utility.yul\":19408:19447   */\n      tag_182\n      jump\t// in\n    tag_374:\n        /* \"#utility.yul\":19396:19447   */\n      swap6\n      pop\n        /* \"#utility.yul\":19480:19484   */\n      dup1\n        /* \"#utility.yul\":19476:19485   */\n      not\n        /* \"#utility.yul\":19469:19474   */\n      dup5\n        /* \"#utility.yul\":19465:19486   */\n      and\n        /* \"#utility.yul\":19456:19486   */\n      swap4\n      pop\n        /* \"#utility.yul\":19529:19533   */\n      dup1\n        /* \"#utility.yul\":19519:19527   */\n      dup7\n        /* \"#utility.yul\":19515:19534   */\n      and\n        /* \"#utility.yul\":19508:19513   */\n      dup5\n        /* \"#utility.yul\":19505:19535   */\n      or\n        /* \"#utility.yul\":19495:19535   */\n      swap3\n      pop\n        /* \"#utility.yul\":19224:19541   */\n      pop\n      pop\n        /* \"#utility.yul\":19148:19541   */\n      swap4\n      swap3\n      pop\n      pop\n      pop\n      jump\t// out\n        /* \"#utility.yul\":19547:19607   */\n    tag_184:\n        /* \"#utility.yul\":19575:19578   */\n      0x00\n        /* \"#utility.yul\":19596:19601   */\n      dup2\n        /* \"#utility.yul\":19589:19601   */\n      swap1\n      pop\n        /* \"#utility.yul\":19547:19607   */\n      swap2\n      swap1\n      pop\n      jump\t// out\n        /* \"#utility.yul\":19613:19755   */\n    tag_185:\n        /* \"#utility.yul\":19663:19672   */\n      0x00\n        /* \"#utility.yul\":19696:19749   */\n      tag_377\n        /* \"#utility.yul\":19714:19748   */\n      tag_378\n        /* \"#utility.yul\":19723:19747   */\n      tag_379\n        /* \"#utility.yul\":19741:19746   */\n      dup5\n        /* \"#utility.yul\":19723:19747   */\n      tag_137\n      jump\t// in\n    tag_379:\n        /* \"#utility.yul\":19714:19748   */\n      tag_184\n      jump\t// in\n    tag_378:\n        /* \"#utility.yul\":19696:19749   */\n      tag_137\n      jump\t// in\n    tag_377:\n        /* \"#utility.yul\":19683:19749   */\n      swap1\n      pop\n        /* \"#utility.yul\":19613:19755   */\n      swap2\n      swap1\n      pop\n      jump\t// out\n        /* \"#utility.yul\":19761:19836   */\n    tag_186:\n        /* \"#utility.yul\":19804:19807   */\n      0x00\n        /* \"#utility.yul\":19825:19830   */\n      dup2\n        /* \"#utility.yul\":19818:19830   */\n      swap1\n      pop\n        /* \"#utility.yul\":19761:19836   */\n      swap2\n      swap1\n      pop\n      jump\t// out\n        /* \"#utility.yul\":19842:20111   */\n    tag_187:\n        /* \"#utility.yul\":19952:19991   */\n      tag_382\n        /* \"#utility.yul\":19983:19990   */\n      dup4\n        /* \"#utility.yul\":19952:19991   */\n      tag_185\n      jump\t// in\n    tag_382:\n        /* \"#utility.yul\":20013:20104   */\n      tag_383\n        /* \"#utility.yul\":20062:20103   */\n      tag_384\n        /* \"#utility.yul\":20086:20102   */\n      dup3\n        /* \"#utility.yul\":20062:20103   */\n      tag_186\n      jump\t// in\n    tag_384:\n        /* \"#utility.yul\":20054:20060   */\n      dup5\n        /* \"#utility.yul\":20047:20051   */\n      dup5\n        /* \"#utility.yul\":20041:20052   */\n      sload\n        /* \"#utility.yul\":20013:20104   */\n      tag_183\n      jump\t// in\n    tag_383:\n        /* \"#utility.yul\":20007:20011   */\n      dup3\n        /* \"#utility.yul\":20000:20105   */\n      sstore\n        /* \"#utility.yul\":19918:20111   */\n      pop\n        /* \"#utility.yul\":19842:20111   */\n      pop\n      pop\n      pop\n      jump\t// out\n        /* \"#utility.yul\":20117:20190   */\n    tag_188:\n        /* \"#utility.yul\":20162:20165   */\n      0x00\n        /* \"#utility.yul\":20117:20190   */\n      swap1\n      jump\t// out\n        /* \"#utility.yul\":20196:20385   */\n    tag_189:\n        /* \"#utility.yul\":20273:20305   */\n      tag_387\n      tag_188\n      jump\t// in\n    tag_387:\n        /* \"#utility.yul\":20314:20379   */\n      tag_388\n        /* \"#utility.yul\":20372:20378   */\n      dup2\n        /* \"#utility.yul\":20364:20370   */\n      dup5\n        /* \"#utility.yul\":20358:20362   */\n      dup5\n        /* \"#utility.yul\":20314:20379   */\n      tag_187\n      jump\t// in\n    tag_388:\n        /* \"#utility.yul\":20249:20385   */\n      pop\n        /* \"#utility.yul\":20196:20385   */\n      pop\n      pop\n      jump\t// out\n        /* \"#utility.yul\":20391:20577   */\n    tag_190:\n        /* \"#utility.yul\":20451:20571   */\n    tag_390:\n        /* \"#utility.yul\":20468:20471   */\n      dup2\n        /* \"#utility.yul\":20461:20466   */\n      dup2\n        /* \"#utility.yul\":20458:20472   */\n      lt\n        /* \"#utility.yul\":20451:20571   */\n      iszero\n      tag_392\n      jumpi\n        /* \"#utility.yul\":20522:20561   */\n      tag_393\n        /* \"#utility.yul\":20559:20560   */\n      0x00\n        /* \"#utility.yul\":20552:20557   */\n      dup3\n        /* \"#utility.yul\":20522:20561   */\n      tag_189\n      jump\t// in\n    tag_393:\n        /* \"#utility.yul\":20495:20496   */\n      0x01\n        /* \"#utility.yul\":20488:20493   */\n      dup2\n        /* \"#utility.yul\":20484:20497   */\n      add\n        /* \"#utility.yul\":20475:20497   */\n      swap1\n      pop\n        /* \"#utility.yul\":20451:20571   */\n      jump(tag_390)\n    tag_392:\n        /* \"#utility.yul\":20391:20577   */\n      pop\n      pop\n      jump\t// out\n        /* \"#utility.yul\":20583:21126   */\n    tag_191:\n        /* \"#utility.yul\":20684:20686   */\n      0x1f\n        /* \"#utility.yul\":20679:20682   */\n      dup3\n        /* \"#utility.yul\":20676:20687   */\n      gt\n        /* \"#utility.yul\":20673:21119   */\n      iszero\n      tag_395\n      jumpi\n        /* \"#utility.yul\":20718:20756   */\n      tag_396\n        /* \"#utility.yul\":20750:20755   */\n      dup2\n        /* \"#utility.yul\":20718:20756   */\n      tag_180\n      jump\t// in\n    tag_396:\n        /* \"#utility.yul\":20802:20831   */\n      tag_397\n        /* \"#utility.yul\":20820:20830   */\n      dup5\n        /* \"#utility.yul\":20802:20831   */\n      tag_181\n      jump\t// in\n    tag_397:\n        /* \"#utility.yul\":20792:20800   */\n      dup2\n        /* \"#utility.yul\":20788:20832   */\n      add\n        /* \"#utility.yul\":20985:20987   */\n      0x20\n        /* \"#utility.yul\":20973:20983   */\n      dup6\n        /* \"#utility.yul\":20970:20988   */\n      lt\n        /* \"#utility.yul\":20967:21016   */\n      iszero\n      tag_398\n      jumpi\n        /* \"#utility.yul\":21006:21014   */\n      dup2\n        /* \"#utility.yul\":20991:21014   */\n      swap1\n      pop\n        /* \"#utility.yul\":20967:21016   */\n    tag_398:\n        /* \"#utility.yul\":21029:21109   */\n      tag_399\n        /* \"#utility.yul\":21085:21107   */\n      tag_400\n        /* \"#utility.yul\":21103:21106   */\n      dup6\n        /* \"#utility.yul\":21085:21107   */\n      tag_181\n      jump\t// in\n    tag_400:\n        /* \"#utility.yul\":21075:21083   */\n      dup4\n        /* \"#utility.yul\":21071:21108   */\n      add\n        /* \"#utility.yul\":21058:21069   */\n      dup3\n        /* \"#utility.yul\":21029:21109   */\n      tag_190\n      jump\t// in\n    tag_399:\n        /* \"#utility.yul\":20688:21119   */\n      pop\n      pop\n        /* \"#utility.yul\":20673:21119   */\n    tag_395:\n        /* \"#utility.yul\":20583:21126   */\n      pop\n      pop\n      pop\n      jump\t// out\n        /* \"#utility.yul\":21132:21249   */\n    tag_192:\n        /* \"#utility.yul\":21186:21194   */\n      0x00\n        /* \"#utility.yul\":21236:21241   */\n      dup3\n        /* \"#utility.yul\":21230:21234   */\n      dup3\n        /* \"#utility.yul\":21226:21242   */\n      shr\n        /* \"#utility.yul\":21205:21242   */\n      swap1\n      pop\n        /* \"#utility.yul\":21132:21249   */\n      swap3\n      swap2\n      pop\n      pop\n      jump\t// out\n        /* \"#utility.yul\":21255:21424   */\n    tag_193:\n        /* \"#utility.yul\":21299:21305   */\n      0x00\n        /* \"#utility.yul\":21332:21383   */\n      tag_403\n        /* \"#utility.yul\":21380:21381   */\n      0x00\n        /* \"#utility.yul\":21376:21382   */\n      not\n        /* \"#utility.yul\":21368:21373   */\n      dup5\n        /* \"#utility.yul\":21365:21366   */\n      0x08\n        /* \"#utility.yul\":21361:21374   */\n      mul\n        /* \"#utility.yul\":21332:21383   */\n      tag_192\n      jump\t// in\n    tag_403:\n        /* \"#utility.yul\":21328:21384   */\n      not\n        /* \"#utility.yul\":21413:21417   */\n      dup1\n        /* \"#utility.yul\":21407:21411   */\n      dup4\n        /* \"#utility.yul\":21403:21418   */\n      and\n        /* \"#utility.yul\":21393:21418   */\n      swap2\n      pop\n        /* \"#utility.yul\":21306:21424   */\n      pop\n        /* \"#utility.yul\":21255:21424   */\n      swap3\n      swap2\n      pop\n      pop\n      jump\t// out\n        /* \"#utility.yul\":21429:21724   */\n    tag_194:\n        /* \"#utility.yul\":21505:21509   */\n      0x00\n        /* \"#utility.yul\":21651:21680   */\n      tag_405\n        /* \"#utility.yul\":21676:21679   */\n      dup4\n        /* \"#utility.yul\":21670:21674   */\n      dup4\n        /* \"#utility.yul\":21651:21680   */\n      tag_193\n      jump\t// in\n    tag_405:\n        /* \"#utility.yul\":21643:21680   */\n      swap2\n      pop\n        /* \"#utility.yul\":21713:21716   */\n      dup3\n        /* \"#utility.yul\":21710:21711   */\n      0x02\n        /* \"#utility.yul\":21706:21717   */\n      mul\n        /* \"#utility.yul\":21700:21704   */\n      dup3\n        /* \"#utility.yul\":21697:21718   */\n      or\n        /* \"#utility.yul\":21689:21718   */\n      swap1\n      pop\n        /* \"#utility.yul\":21429:21724   */\n      swap3\n      swap2\n      pop\n      pop\n      jump\t// out\n        /* \"#utility.yul\":21729:23124   */\n    tag_99:\n        /* \"#utility.yul\":21846:21883   */\n      tag_407\n        /* \"#utility.yul\":21879:21882   */\n      dup3\n        /* \"#utility.yul\":21846:21883   */\n      tag_142\n      jump\t// in\n    tag_407:\n        /* \"#utility.yul\":21948:21966   */\n      0xffffffffffffffff\n        /* \"#utility.yul\":21940:21946   */\n      dup2\n        /* \"#utility.yul\":21937:21967   */\n      gt\n        /* \"#utility.yul\":21934:21990   */\n      iszero\n      tag_408\n      jumpi\n        /* \"#utility.yul\":21970:21988   */\n      tag_409\n      tag_164\n      jump\t// in\n    tag_409:\n        /* \"#utility.yul\":21934:21990   */\n    tag_408:\n        /* \"#utility.yul\":22014:22052   */\n      tag_410\n        /* \"#utility.yul\":22046:22050   */\n      dup3\n        /* \"#utility.yul\":22040:22051   */\n      sload\n        /* \"#utility.yul\":22014:22052   */\n      tag_56\n      jump\t// in\n    tag_410:\n        /* \"#utility.yul\":22099:22166   */\n      tag_411\n        /* \"#utility.yul\":22159:22165   */\n      dup3\n        /* \"#utility.yul\":22151:22157   */\n      dup3\n        /* \"#utility.yul\":22145:22149   */\n      dup6\n        /* \"#utility.yul\":22099:22166   */\n      tag_191\n      jump\t// in\n    tag_411:\n        /* \"#utility.yul\":22193:22194   */\n      0x00\n        /* \"#utility.yul\":22217:22221   */\n      0x20\n        /* \"#utility.yul\":22204:22221   */\n      swap1\n      pop\n        /* \"#utility.yul\":22249:22251   */\n      0x1f\n        /* \"#utility.yul\":22241:22247   */\n      dup4\n        /* \"#utility.yul\":22238:22252   */\n      gt\n        /* \"#utility.yul\":22266:22267   */\n      0x01\n        /* \"#utility.yul\":22261:22879   */\n      dup2\n      eq\n      tag_413\n      jumpi\n        /* \"#utility.yul\":22923:22924   */\n      0x00\n        /* \"#utility.yul\":22940:22946   */\n      dup5\n        /* \"#utility.yul\":22937:23014   */\n      iszero\n      tag_414\n      jumpi\n        /* \"#utility.yul\":22989:22998   */\n      dup3\n        /* \"#utility.yul\":22984:22987   */\n      dup8\n        /* \"#utility.yul\":22980:22999   */\n      add\n        /* \"#utility.yul\":22974:23000   */\n      mload\n        /* \"#utility.yul\":22965:23000   */\n      swap1\n      pop\n        /* \"#utility.yul\":22937:23014   */\n    tag_414:\n        /* \"#utility.yul\":23040:23107   */\n      tag_415\n        /* \"#utility.yul\":23100:23106   */\n      dup6\n        /* \"#utility.yul\":23093:23098   */\n      dup3\n        /* \"#utility.yul\":23040:23107   */\n      tag_194\n      jump\t// in\n    tag_415:\n        /* \"#utility.yul\":23034:23038   */\n      dup7\n        /* \"#utility.yul\":23027:23108   */\n      sstore\n        /* \"#utility.yul\":22896:23118   */\n      pop\n        /* \"#utility.yul\":22231:23118   */\n      jump(tag_412)\n        /* \"#utility.yul\":22261:22879   */\n    tag_413:\n        /* \"#utility.yul\":22313:22317   */\n      0x1f\n        /* \"#utility.yul\":22309:22318   */\n      not\n        /* \"#utility.yul\":22301:22307   */\n      dup5\n        /* \"#utility.yul\":22297:22319   */\n      and\n        /* \"#utility.yul\":22347:22384   */\n      tag_416\n        /* \"#utility.yul\":22379:22383   */\n      dup7\n        /* \"#utility.yul\":22347:22384   */\n      tag_180\n      jump\t// in\n    tag_416:\n        /* \"#utility.yul\":22406:22407   */\n      0x00\n        /* \"#utility.yul\":22420:22628   */\n    tag_417:\n        /* \"#utility.yul\":22434:22441   */\n      dup3\n        /* \"#utility.yul\":22431:22432   */\n      dup2\n        /* \"#utility.yul\":22428:22442   */\n      lt\n        /* \"#utility.yul\":22420:22628   */\n      iszero\n      tag_419\n      jumpi\n        /* \"#utility.yul\":22513:22522   */\n      dup5\n        /* \"#utility.yul\":22508:22511   */\n      dup10\n        /* \"#utility.yul\":22504:22523   */\n      add\n        /* \"#utility.yul\":22498:22524   */\n      mload\n        /* \"#utility.yul\":22490:22496   */\n      dup3\n        /* \"#utility.yul\":22483:22525   */\n      sstore\n        /* \"#utility.yul\":22564:22565   */\n      0x01\n        /* \"#utility.yul\":22556:22562   */\n      dup3\n        /* \"#utility.yul\":22552:22566   */\n      add\n        /* \"#utility.yul\":22542:22566   */\n      swap2\n      pop\n        /* \"#utility.yul\":22611:22613   */\n      0x20\n        /* \"#utility.yul\":22600:22609   */\n      dup6\n        /* \"#utility.yul\":22596:22614   */\n      add\n        /* \"#utility.yul\":22583:22614   */\n      swap5\n      pop\n        /* \"#utility.yul\":22457:22461   */\n      0x20\n        /* \"#utility.yul\":22454:22455   */\n      dup2\n        /* \"#utility.yul\":22450:22462   */\n      add\n        /* \"#utility.yul\":22445:22462   */\n      swap1\n      pop\n        /* \"#utility.yul\":22420:22628   */\n      jump(tag_417)\n    tag_419:\n        /* \"#utility.yul\":22656:22662   */\n      dup7\n        /* \"#utility.yul\":22647:22654   */\n      dup4\n        /* \"#utility.yul\":22644:22663   */\n      lt\n        /* \"#utility.yul\":22641:22820   */\n      iszero\n      tag_420\n      jumpi\n        /* \"#utility.yul\":22714:22723   */\n      dup5\n        /* \"#utility.yul\":22709:22712   */\n      dup10\n        /* \"#utility.yul\":22705:22724   */\n      add\n        /* \"#utility.yul\":22699:22725   */\n      mload\n        /* \"#utility.yul\":22757:22805   */\n      tag_421\n        /* \"#utility.yul\":22799:22803   */\n      0x1f\n        /* \"#utility.yul\":22791:22797   */\n      dup10\n        /* \"#utility.yul\":22787:22804   */\n      and\n        /* \"#utility.yul\":22776:22785   */\n      dup3\n        /* \"#utility.yul\":22757:22805   */\n      tag_193\n      jump\t// in\n    tag_421:\n        /* \"#utility.yul\":22749:22755   */\n      dup4\n        /* \"#utility.yul\":22742:22806   */\n      sstore\n        /* \"#utility.yul\":22664:22820   */\n      pop\n        /* \"#utility.yul\":22641:22820   */\n    tag_420:\n        /* \"#utility.yul\":22866:22867   */\n      0x01\n        /* \"#utility.yul\":22862:22863   */\n      0x02\n        /* \"#utility.yul\":22854:22860   */\n      dup9\n        /* \"#utility.yul\":22850:22864   */\n      mul\n        /* \"#utility.yul\":22846:22868   */\n      add\n        /* \"#utility.yul\":22840:22844   */\n      dup9\n        /* \"#utility.yul\":22833:22869   */\n      sstore\n        /* \"#utility.yul\":22268:22879   */\n      pop\n      pop\n      pop\n        /* \"#utility.yul\":22231:23118   */\n    tag_412:\n      pop\n        /* \"#utility.yul\":21821:23124   */\n      pop\n      pop\n      pop\n        /* \"#utility.yul\":21729:23124   */\n      pop\n      pop\n      jump\t// out\n        /* \"#utility.yul\":23130:23774   */\n    tag_101:\n        /* \"#utility.yul\":23327:23331   */\n      0x00\n        /* \"#utility.yul\":23365:23368   */\n      0x80\n        /* \"#utility.yul\":23354:23363   */\n      dup3\n        /* \"#utility.yul\":23350:23369   */\n      add\n        /* \"#utility.yul\":23342:23369   */\n      swap1\n      pop\n        /* \"#utility.yul\":23379:23450   */\n      tag_423\n        /* \"#utility.yul\":23447:23448   */\n      0x00\n        /* \"#utility.yul\":23436:23445   */\n      dup4\n        /* \"#utility.yul\":23432:23449   */\n      add\n        /* \"#utility.yul\":23423:23429   */\n      dup8\n        /* \"#utility.yul\":23379:23450   */\n      tag_140\n      jump\t// in\n    tag_423:\n        /* \"#utility.yul\":23460:23532   */\n      tag_424\n        /* \"#utility.yul\":23528:23530   */\n      0x20\n        /* \"#utility.yul\":23517:23526   */\n      dup4\n        /* \"#utility.yul\":23513:23531   */\n      add\n        /* \"#utility.yul\":23504:23510   */\n      dup7\n        /* \"#utility.yul\":23460:23532   */\n      tag_141\n      jump\t// in\n    tag_424:\n        /* \"#utility.yul\":23579:23588   */\n      dup2\n        /* \"#utility.yul\":23573:23577   */\n      dup2\n        /* \"#utility.yul\":23569:23589   */\n      sub\n        /* \"#utility.yul\":23564:23566   */\n      0x40\n        /* \"#utility.yul\":23553:23562   */\n      dup4\n        /* \"#utility.yul\":23549:23567   */\n      add\n        /* \"#utility.yul\":23542:23590   */\n      mstore\n        /* \"#utility.yul\":23607:23685   */\n      tag_425\n        /* \"#utility.yul\":23680:23684   */\n      dup2\n        /* \"#utility.yul\":23671:23677   */\n      dup6\n        /* \"#utility.yul\":23607:23685   */\n      tag_146\n      jump\t// in\n    tag_425:\n        /* \"#utility.yul\":23599:23685   */\n      swap1\n      pop\n        /* \"#utility.yul\":23695:23767   */\n      tag_426\n        /* \"#utility.yul\":23763:23765   */\n      0x60\n        /* \"#utility.yul\":23752:23761   */\n      dup4\n        /* \"#utility.yul\":23748:23766   */\n      add\n        /* \"#utility.yul\":23739:23745   */\n      dup5\n        /* \"#utility.yul\":23695:23767   */\n      tag_140\n      jump\t// in\n    tag_426:\n        /* \"#utility.yul\":23130:23774   */\n      swap6\n      swap5\n      pop\n      pop\n      pop\n      pop\n      pop\n      jump\t// out\n        /* \"#utility.yul\":23780:23948   */\n    tag_195:\n        /* \"#utility.yul\":23920:23940   */\n      0x545745455420686173206e6f206c696b65730000000000000000000000000000\n        /* \"#utility.yul\":23916:23917   */\n      0x00\n        /* \"#utility.yul\":23908:23914   */\n      dup3\n        /* \"#utility.yul\":23904:23918   */\n      add\n        /* \"#utility.yul\":23897:23941   */\n      mstore\n        /* \"#utility.yul\":23780:23948   */\n      pop\n      jump\t// out\n        /* \"#utility.yul\":23954:24320   */\n    tag_196:\n        /* \"#utility.yul\":24096:24099   */\n      0x00\n        /* \"#utility.yul\":24117:24184   */\n      tag_429\n        /* \"#utility.yul\":24181:24183   */\n      0x12\n        /* \"#utility.yul\":24176:24179   */\n      dup4\n        /* \"#utility.yul\":24117:24184   */\n      tag_143\n      jump\t// in\n    tag_429:\n        /* \"#utility.yul\":24110:24184   */\n      swap2\n      pop\n        /* \"#utility.yul\":24193:24286   */\n      tag_430\n        /* \"#utility.yul\":24282:24285   */\n      dup3\n        /* \"#utility.yul\":24193:24286   */\n      tag_195\n      jump\t// in\n    tag_430:\n        /* \"#utility.yul\":24311:24313   */\n      0x20\n        /* \"#utility.yul\":24306:24309   */\n      dup3\n        /* \"#utility.yul\":24302:24314   */\n      add\n        /* \"#utility.yul\":24295:24314   */\n      swap1\n      pop\n        /* \"#utility.yul\":23954:24320   */\n      swap2\n      swap1\n      pop\n      jump\t// out\n        /* \"#utility.yul\":24326:24745   */\n    tag_113:\n        /* \"#utility.yul\":24492:24496   */\n      0x00\n        /* \"#utility.yul\":24530:24532   */\n      0x20\n        /* \"#utility.yul\":24519:24528   */\n      dup3\n        /* \"#utility.yul\":24515:24533   */\n      add\n        /* \"#utility.yul\":24507:24533   */\n      swap1\n      pop\n        /* \"#utility.yul\":24579:24588   */\n      dup2\n        /* \"#utility.yul\":24573:24577   */\n      dup2\n        /* \"#utility.yul\":24569:24589   */\n      sub\n        /* \"#utility.yul\":24565:24566   */\n      0x00\n        /* \"#utility.yul\":24554:24563   */\n      dup4\n        /* \"#utility.yul\":24550:24567   */\n      add\n        /* \"#utility.yul\":24543:24590   */\n      mstore\n        /* \"#utility.yul\":24607:24738   */\n      tag_432\n        /* \"#utility.yul\":24733:24737   */\n      dup2\n        /* \"#utility.yul\":24607:24738   */\n      tag_196\n      jump\t// in\n    tag_432:\n        /* \"#utility.yul\":24599:24738   */\n      swap1\n      pop\n        /* \"#utility.yul\":24326:24745   */\n      swap2\n      swap1\n      pop\n      jump\t// out\n        /* \"#utility.yul\":24751:24922   */\n    tag_118:\n        /* \"#utility.yul\":24790:24793   */\n      0x00\n        /* \"#utility.yul\":24813:24837   */\n      tag_434\n        /* \"#utility.yul\":24831:24836   */\n      dup3\n        /* \"#utility.yul\":24813:24837   */\n      tag_137\n      jump\t// in\n    tag_434:\n        /* \"#utility.yul\":24804:24837   */\n      swap2\n      pop\n        /* \"#utility.yul\":24859:24863   */\n      0x00\n        /* \"#utility.yul\":24852:24857   */\n      dup3\n        /* \"#utility.yul\":24849:24864   */\n      sub\n        /* \"#utility.yul\":24846:24887   */\n      tag_435\n      jumpi\n        /* \"#utility.yul\":24867:24885   */\n      tag_436\n      tag_177\n      jump\t// in\n    tag_436:\n        /* \"#utility.yul\":24846:24887   */\n    tag_435:\n        /* \"#utility.yul\":24914:24915   */\n      0x01\n        /* \"#utility.yul\":24907:24912   */\n      dup3\n        /* \"#utility.yul\":24903:24916   */\n      sub\n        /* \"#utility.yul\":24896:24916   */\n      swap1\n      pop\n        /* \"#utility.yul\":24751:24922   */\n      swap2\n      swap1\n      pop\n      jump\t// out\n\n    auxdata: 0xa26469706673582212206d5e1229945497d8e3733631a671e80d510db2f8579346c3113eaa2f20b91bb364736f6c634300081a0033\n}\n",
				"bytecode": {
					"linkReferences": {},
					"object": "60806040526101185f806101000a81548161ffff021916908361ffff160217905550348015602b575f80fd5b503360025f6101000a81548173ffffffffffffffffffffffffffffffffffffffff021916908373ffffffffffffffffffffffffffffffffffffffff1602179055506118cf806100795f395ff3fe608060405234801561000f575f80fd5b5060043610610091575f3560e01c80636eb10797116100645780636eb10797146101315780637c9cd2bc1461014f5780638da5cb5b1461016b5780639ef8633f14610189578063c3ad5ecb146101a557610091565b806305a1b4a91461009557806312e7ee1c146100c957806358bfa4ab146100f95780636337821614610115575b5f80fd5b6100af60048036038101906100aa9190610d04565b6101d5565b6040516100c0959493929190610dd0565b60405180910390f35b6100e360048036038101906100de9190610e28565b6102c6565b6040516100f09190610fe7565b60405180910390f35b610113600480360381019061010e919061103e565b610461565b005b61012f600480360381019061012a9190610d04565b61050e565b005b6101396106bf565b6040516101469190611078565b60405180910390f35b610169600480360381019061016491906111bd565b6106d0565b005b6101736108d3565b6040516101809190611204565b60405180910390f35b6101a3600480360381019061019e9190610d04565b6108f8565b005b6101bf60048036038101906101ba919061121d565b610aae565b6040516101cc91906112bb565b60405180910390f35b6001602052815f5260405f2081815481106101ee575f80fd5b905f5260205f2090600502015f9150915050805f015490806001015f9054906101000a900473ffffffffffffffffffffffffffffffffffffffff169080600201805461023990611308565b80601f016020809104026020016040519081016040528092919081815260200182805461026590611308565b80156102b05780601f10610287576101008083540402835291602001916102b0565b820191905f5260205f20905b81548152906001019060200180831161029357829003601f168201915b5050505050908060030154908060040154905085565b606060015f8373ffffffffffffffffffffffffffffffffffffffff1673ffffffffffffffffffffffffffffffffffffffff1681526020019081526020015f20805480602002602001604051908101604052809291908181526020015f905b82821015610456578382905f5260205f2090600502016040518060a00160405290815f8201548152602001600182015f9054906101000a900473ffffffffffffffffffffffffffffffffffffffff1673ffffffffffffffffffffffffffffffffffffffff1673ffffffffffffffffffffffffffffffffffffffff1681526020016002820180546103b390611308565b80601f01602080910402602001604051908101604052809291908181526020018280546103df90611308565b801561042a5780601f106104015761010080835404028352916020019161042a565b820191905f5260205f20905b81548152906001019060200180831161040d57829003601f168201915b505050505081526020016003820154815260200160048201548152505081526020019060010190610324565b505050509050919050565b60025f9054906101000a900473ffffffffffffffffffffffffffffffffffffffff1673ffffffffffffffffffffffffffffffffffffffff163373ffffffffffffffffffffffffffffffffffffffff16146104f0576040517f08c379a00000000000000000000000000000000000000000000000000000000081526004016104e790611382565b60405180910390fd5b805f806101000a81548161ffff021916908361ffff16021790555050565b8060015f8473ffffffffffffffffffffffffffffffffffffffff1673ffffffffffffffffffffffffffffffffffffffff1681526020019081526020015f20828154811061055e5761055d6113a0565b5b905f5260205f2090600502015f0154146105ad576040517f08c379a00000000000000000000000000000000000000000000000000000000081526004016105a490611417565b60405180910390fd5b60015f8373ffffffffffffffffffffffffffffffffffffffff1673ffffffffffffffffffffffffffffffffffffffff1681526020019081526020015f2081815481106105fc576105fb6113a0565b5b905f5260205f2090600502016004015f81548092919061061b90611462565b91905055507fe8a76fc0f16d11a00d1e93b689b63d76cf60af914dd3d915375dc41d01a0c3c833838360015f8773ffffffffffffffffffffffffffffffffffffffff1673ffffffffffffffffffffffffffffffffffffffff1681526020019081526020015f208581548110610693576106926113a0565b5b905f5260205f209060050201600401546040516106b394939291906114a9565b60405180910390a15050565b5f8054906101000a900461ffff1681565b5f8054906101000a900461ffff1661ffff1681511115610725576040517f08c379a000000000000000000000000000000000000000000000000000000000815260040161071c90611536565b60405180910390fd5b5f6040518060a0016040528060015f3373ffffffffffffffffffffffffffffffffffffffff1673ffffffffffffffffffffffffffffffffffffffff1681526020019081526020015f208054905081526020013373ffffffffffffffffffffffffffffffffffffffff1681526020018381526020014281526020015f815250905060015f3373ffffffffffffffffffffffffffffffffffffffff1673ffffffffffffffffffffffffffffffffffffffff1681526020019081526020015f2081908060018154018082558091505060019003905f5260205f2090600502015f909190919091505f820151815f01556020820151816001015f6101000a81548173ffffffffffffffffffffffffffffffffffffffff021916908373ffffffffffffffffffffffffffffffffffffffff160217905550604082015181600201908161086c91906116f1565b50606082015181600301556080820151816004015550507f16fd3c13e9d46923e0a8bce11c7b473ec508a72e6c96cd2404b29ce972afc29e815f01518260200151836040015184606001516040516108c794939291906117c0565b60405180910390a15050565b60025f9054906101000a900473ffffffffffffffffffffffffffffffffffffffff1681565b8060015f8473ffffffffffffffffffffffffffffffffffffffff1673ffffffffffffffffffffffffffffffffffffffff1681526020019081526020015f208281548110610948576109476113a0565b5b905f5260205f2090600502015f015414610997576040517f08c379a000000000000000000000000000000000000000000000000000000000815260040161098e90611417565b60405180910390fd5b5f60015f8473ffffffffffffffffffffffffffffffffffffffff1673ffffffffffffffffffffffffffffffffffffffff1681526020019081526020015f2082815481106109e7576109e66113a0565b5b905f5260205f2090600502016004015411610a37576040517f08c379a0000000000000000000000000000000000000000000000000000000008152600401610a2e90611854565b60405180910390fd5b60015f8373ffffffffffffffffffffffffffffffffffffffff1673ffffffffffffffffffffffffffffffffffffffff1681526020019081526020015f208181548110610a8657610a856113a0565b5b905f5260205f2090600502016004015f815480929190610aa590611872565b91905055505050565b610ab6610c25565b60015f3373ffffffffffffffffffffffffffffffffffffffff1673ffffffffffffffffffffffffffffffffffffffff1681526020019081526020015f208281548110610b0557610b046113a0565b5b905f5260205f2090600502016040518060a00160405290815f8201548152602001600182015f9054906101000a900473ffffffffffffffffffffffffffffffffffffffff1673ffffffffffffffffffffffffffffffffffffffff1673ffffffffffffffffffffffffffffffffffffffff168152602001600282018054610b8a90611308565b80601f0160208091040260200160405190810160405280929190818152602001828054610bb690611308565b8015610c015780601f10610bd857610100808354040283529160200191610c01565b820191905f5260205f20905b815481529060010190602001808311610be457829003601f168201915b50505050508152602001600382015481526020016004820154815250509050919050565b6040518060a001604052805f81526020015f73ffffffffffffffffffffffffffffffffffffffff168152602001606081526020015f81526020015f81525090565b5f604051905090565b5f80fd5b5f80fd5b5f73ffffffffffffffffffffffffffffffffffffffff82169050919050565b5f610ca082610c77565b9050919050565b610cb081610c96565b8114610cba575f80fd5b50565b5f81359050610ccb81610ca7565b92915050565b5f819050919050565b610ce381610cd1565b8114610ced575f80fd5b50565b5f81359050610cfe81610cda565b92915050565b5f8060408385031215610d1a57610d19610c6f565b5b5f610d2785828601610cbd565b9250506020610d3885828601610cf0565b9150509250929050565b610d4b81610cd1565b82525050565b610d5a81610c96565b82525050565b5f81519050919050565b5f82825260208201905092915050565b8281835e5f83830152505050565b5f601f19601f8301169050919050565b5f610da282610d60565b610dac8185610d6a565b9350610dbc818560208601610d7a565b610dc581610d88565b840191505092915050565b5f60a082019050610de35f830188610d42565b610df06020830187610d51565b8181036040830152610e028186610d98565b9050610e116060830185610d42565b610e1e6080830184610d42565b9695505050505050565b5f60208284031215610e3d57610e3c610c6f565b5b5f610e4a84828501610cbd565b91505092915050565b5f81519050919050565b5f82825260208201905092915050565b5f819050602082019050919050565b610e8581610cd1565b82525050565b610e9481610c96565b82525050565b5f82825260208201905092915050565b5f610eb482610d60565b610ebe8185610e9a565b9350610ece818560208601610d7a565b610ed781610d88565b840191505092915050565b5f60a083015f830151610ef75f860182610e7c565b506020830151610f0a6020860182610e8b565b5060408301518482036040860152610f228282610eaa565b9150506060830151610f376060860182610e7c565b506080830151610f4a6080860182610e7c565b508091505092915050565b5f610f608383610ee2565b905092915050565b5f602082019050919050565b5f610f7e82610e53565b610f888185610e5d565b935083602082028501610f9a85610e6d565b805f5b85811015610fd55784840389528151610fb68582610f55565b9450610fc183610f68565b925060208a01995050600181019050610f9d565b50829750879550505050505092915050565b5f6020820190508181035f830152610fff8184610f74565b905092915050565b5f61ffff82169050919050565b61101d81611007565b8114611027575f80fd5b50565b5f8135905061103881611014565b92915050565b5f6020828403121561105357611052610c6f565b5b5f6110608482850161102a565b91505092915050565b61107281611007565b82525050565b5f60208201905061108b5f830184611069565b92915050565b5f80fd5b5f80fd5b7f4e487b71000000000000000000000000000000000000000000000000000000005f52604160045260245ffd5b6110cf82610d88565b810181811067ffffffffffffffff821117156110ee576110ed611099565b5b80604052505050565b5f611100610c66565b905061110c82826110c6565b919050565b5f67ffffffffffffffff82111561112b5761112a611099565b5b61113482610d88565b9050602081019050919050565b828183375f83830152505050565b5f61116161115c84611111565b6110f7565b90508281526020810184848401111561117d5761117c611095565b5b611188848285611141565b509392505050565b5f82601f8301126111a4576111a3611091565b5b81356111b484826020860161114f565b91505092915050565b5f602082840312156111d2576111d1610c6f565b5b5f82013567ffffffffffffffff8111156111ef576111ee610c73565b5b6111fb84828501611190565b91505092915050565b5f6020820190506112175f830184610d51565b92915050565b5f6020828403121561123257611231610c6f565b5b5f61123f84828501610cf0565b91505092915050565b5f60a083015f83015161125d5f860182610e7c565b5060208301516112706020860182610e8b565b50604083015184820360408601526112888282610eaa565b915050606083015161129d6060860182610e7c565b5060808301516112b06080860182610e7c565b508091505092915050565b5f6020820190508181035f8301526112d38184611248565b905092915050565b7f4e487b71000000000000000000000000000000000000000000000000000000005f52602260045260245ffd5b5f600282049050600182168061131f57607f821691505b602082108103611332576113316112db565b5b50919050565b7f596f7520617265206e6f7420746865206f776e657200000000000000000000005f82015250565b5f61136c601583610d6a565b915061137782611338565b602082019050919050565b5f6020820190508181035f83015261139981611360565b9050919050565b7f4e487b71000000000000000000000000000000000000000000000000000000005f52603260045260245ffd5b7f545745455420646f6573206e6f742065786973740000000000000000000000005f82015250565b5f611401601483610d6a565b915061140c826113cd565b602082019050919050565b5f6020820190508181035f83015261142e816113f5565b9050919050565b7f4e487b71000000000000000000000000000000000000000000000000000000005f52601160045260245ffd5b5f61146c82610cd1565b91507fffffffffffffffffffffffffffffffffffffffffffffffffffffffffffffffff820361149e5761149d611435565b5b600182019050919050565b5f6080820190506114bc5f830187610d51565b6114c96020830186610d51565b6114d66040830185610d42565b6114e36060830184610d42565b95945050505050565b7f547765657420697320746f6f206c6f6e670000000000000000000000000000005f82015250565b5f611520601183610d6a565b915061152b826114ec565b602082019050919050565b5f6020820190508181035f83015261154d81611514565b9050919050565b5f819050815f5260205f209050919050565b5f6020601f8301049050919050565b5f82821b905092915050565b5f600883026115b07fffffffffffffffffffffffffffffffffffffffffffffffffffffffffffffffff82611575565b6115ba8683611575565b95508019841693508086168417925050509392505050565b5f819050919050565b5f6115f56115f06115eb84610cd1565b6115d2565b610cd1565b9050919050565b5f819050919050565b61160e836115db565b61162261161a826115fc565b848454611581565b825550505050565b5f90565b61163661162a565b611641818484611605565b505050565b5b81811015611664576116595f8261162e565b600181019050611647565b5050565b601f8211156116a95761167a81611554565b61168384611566565b81016020851015611692578190505b6116a661169e85611566565b830182611646565b50505b505050565b5f82821c905092915050565b5f6116c95f19846008026116ae565b1980831691505092915050565b5f6116e183836116ba565b9150826002028217905092915050565b6116fa82610d60565b67ffffffffffffffff81111561171357611712611099565b5b61171d8254611308565b611728828285611668565b5f60209050601f831160018114611759575f8415611747578287015190505b61175185826116d6565b8655506117b8565b601f19841661176786611554565b5f5b8281101561178e57848901518255600182019150602085019450602081019050611769565b868310156117ab57848901516117a7601f8916826116ba565b8355505b6001600288020188555050505b505050505050565b5f6080820190506117d35f830187610d42565b6117e06020830186610d51565b81810360408301526117f28185610d98565b90506118016060830184610d42565b95945050505050565b7f545745455420686173206e6f206c696b657300000000000000000000000000005f82015250565b5f61183e601283610d6a565b91506118498261180a565b602082019050919050565b5f6020820190508181035f83015261186b81611832565b9050919050565b5f61187c82610cd1565b91505f820361188e5761188d611435565b5b60018203905091905056fea26469706673582212206d5e1229945497d8e3733631a671e80d510db2f8579346c3113eaa2f20b91bb364736f6c634300081a0033",
					"opcodes": "PUSH1 0x80 PUSH1 0x40 MSTORE PUSH2 0x118 PUSH0 DUP1 PUSH2 0x100 EXP DUP2 SLOAD DUP2 PUSH2 0xFFFF MUL NOT AND SWAP1 DUP4 PUSH2 0xFFFF AND MUL OR SWAP1 SSTORE POP CALLVALUE DUP1 ISZERO PUSH1 0x2B JUMPI PUSH0 DUP1 REVERT JUMPDEST POP CALLER PUSH1 0x2 PUSH0 PUSH2 0x100 EXP DUP2 SLOAD DUP2 PUSH20 0xFFFFFFFFFFFFFFFFFFFFFFFFFFFFFFFFFFFFFFFF MUL NOT AND SWAP1 DUP4 PUSH20 0xFFFFFFFFFFFFFFFFFFFFFFFFFFFFFFFFFFFFFFFF AND MUL OR SWAP1 SSTORE POP PUSH2 0x18CF DUP1 PUSH2 0x79 PUSH0 CODECOPY PUSH0 RETURN INVALID PUSH1 0x80 PUSH1 0x40 MSTORE CALLVALUE DUP1 ISZERO PUSH2 0xF JUMPI PUSH0 DUP1 REVERT JUMPDEST POP PUSH1 0x4 CALLDATASIZE LT PUSH2 0x91 JUMPI PUSH0 CALLDATALOAD PUSH1 0xE0 SHR DUP1 PUSH4 0x6EB10797 GT PUSH2 0x64 JUMPI DUP1 PUSH4 0x6EB10797 EQ PUSH2 0x131 JUMPI DUP1 PUSH4 0x7C9CD2BC EQ PUSH2 0x14F JUMPI DUP1 PUSH4 0x8DA5CB5B EQ PUSH2 0x16B JUMPI DUP1 PUSH4 0x9EF8633F EQ PUSH2 0x189 JUMPI DUP1 PUSH4 0xC3AD5ECB EQ PUSH2 0x1A5 JUMPI PUSH2 0x91 JUMP JUMPDEST DUP1 PUSH4 0x5A1B4A9 EQ PUSH2 0x95 JUMPI DUP1 PUSH4 0x12E7EE1C EQ PUSH2 0xC9 JUMPI DUP1 PUSH4 0x58BFA4AB EQ PUSH2 0xF9 JUMPI DUP1 PUSH4 0x63378216 EQ PUSH2 0x115 JUMPI JUMPDEST PUSH0 DUP1 REVERT JUMPDEST PUSH2 0xAF PUSH1 0x4 DUP1 CALLDATASIZE SUB DUP2 ADD SWAP1 PUSH2 0xAA SWAP2 SWAP1 PUSH2 0xD04 JUMP JUMPDEST PUSH2 0x1D5 JUMP JUMPDEST PUSH1 0x40 MLOAD PUSH2 0xC0 SWAP6 SWAP5 SWAP4 SWAP3 SWAP2 SWAP1 PUSH2 0xDD0 JUMP JUMPDEST PUSH1 0x40 MLOAD DUP1 SWAP2 SUB SWAP1 RETURN JUMPDEST PUSH2 0xE3 PUSH1 0x4 DUP1 CALLDATASIZE SUB DUP2 ADD SWAP1 PUSH2 0xDE SWAP2 SWAP1 PUSH2 0xE28 JUMP JUMPDEST PUSH2 0x2C6 JUMP JUMPDEST PUSH1 0x40 MLOAD PUSH2 0xF0 SWAP2 SWAP1 PUSH2 0xFE7 JUMP JUMPDEST PUSH1 0x40 MLOAD DUP1 SWAP2 SUB SWAP1 RETURN JUMPDEST PUSH2 0x113 PUSH1 0x4 DUP1 CALLDATASIZE SUB DUP2 ADD SWAP1 PUSH2 0x10E SWAP2 SWAP1 PUSH2 0x103E JUMP JUMPDEST PUSH2 0x461 JUMP JUMPDEST STOP JUMPDEST PUSH2 0x12F PUSH1 0x4 DUP1 CALLDATASIZE SUB DUP2 ADD SWAP1 PUSH2 0x12A SWAP2 SWAP1 PUSH2 0xD04 JUMP JUMPDEST PUSH2 0x50E JUMP JUMPDEST STOP JUMPDEST PUSH2 0x139 PUSH2 0x6BF JUMP JUMPDEST PUSH1 0x40 MLOAD PUSH2 0x146 SWAP2 SWAP1 PUSH2 0x1078 JUMP JUMPDEST PUSH1 0x40 MLOAD DUP1 SWAP2 SUB SWAP1 RETURN JUMPDEST PUSH2 0x169 PUSH1 0x4 DUP1 CALLDATASIZE SUB DUP2 ADD SWAP1 PUSH2 0x164 SWAP2 SWAP1 PUSH2 0x11BD JUMP JUMPDEST PUSH2 0x6D0 JUMP JUMPDEST STOP JUMPDEST PUSH2 0x173 PUSH2 0x8D3 JUMP JUMPDEST PUSH1 0x40 MLOAD PUSH2 0x180 SWAP2 SWAP1 PUSH2 0x1204 JUMP JUMPDEST PUSH1 0x40 MLOAD DUP1 SWAP2 SUB SWAP1 RETURN JUMPDEST PUSH2 0x1A3 PUSH1 0x4 DUP1 CALLDATASIZE SUB DUP2 ADD SWAP1 PUSH2 0x19E SWAP2 SWAP1 PUSH2 0xD04 JUMP JUMPDEST PUSH2 0x8F8 JUMP JUMPDEST STOP JUMPDEST PUSH2 0x1BF PUSH1 0x4 DUP1 CALLDATASIZE SUB DUP2 ADD SWAP1 PUSH2 0x1BA SWAP2 SWAP1 PUSH2 0x121D JUMP JUMPDEST PUSH2 0xAAE JUMP JUMPDEST PUSH1 0x40 MLOAD PUSH2 0x1CC SWAP2 SWAP1 PUSH2 0x12BB JUMP JUMPDEST PUSH1 0x40 MLOAD DUP1 SWAP2 SUB SWAP1 RETURN JUMPDEST PUSH1 0x1 PUSH1 0x20 MSTORE DUP2 PUSH0 MSTORE PUSH1 0x40 PUSH0 KECCAK256 DUP2 DUP2 SLOAD DUP2 LT PUSH2 0x1EE JUMPI PUSH0 DUP1 REVERT JUMPDEST SWAP1 PUSH0 MSTORE PUSH1 0x20 PUSH0 KECCAK256 SWAP1 PUSH1 0x5 MUL ADD PUSH0 SWAP2 POP SWAP2 POP POP DUP1 PUSH0 ADD SLOAD SWAP1 DUP1 PUSH1 0x1 ADD PUSH0 SWAP1 SLOAD SWAP1 PUSH2 0x100 EXP SWAP1 DIV PUSH20 0xFFFFFFFFFFFFFFFFFFFFFFFFFFFFFFFFFFFFFFFF AND SWAP1 DUP1 PUSH1 0x2 ADD DUP1 SLOAD PUSH2 0x239 SWAP1 PUSH2 0x1308 JUMP JUMPDEST DUP1 PUSH1 0x1F ADD PUSH1 0x20 DUP1 SWAP2 DIV MUL PUSH1 0x20 ADD PUSH1 0x40 MLOAD SWAP1 DUP2 ADD PUSH1 0x40 MSTORE DUP1 SWAP3 SWAP2 SWAP1 DUP2 DUP2 MSTORE PUSH1 0x20 ADD DUP3 DUP1 SLOAD PUSH2 0x265 SWAP1 PUSH2 0x1308 JUMP JUMPDEST DUP1 ISZERO PUSH2 0x2B0 JUMPI DUP1 PUSH1 0x1F LT PUSH2 0x287 JUMPI PUSH2 0x100 DUP1 DUP4 SLOAD DIV MUL DUP4 MSTORE SWAP2 PUSH1 0x20 ADD SWAP2 PUSH2 0x2B0 JUMP JUMPDEST DUP3 ADD SWAP2 SWAP1 PUSH0 MSTORE PUSH1 0x20 PUSH0 KECCAK256 SWAP1 JUMPDEST DUP2 SLOAD DUP2 MSTORE SWAP1 PUSH1 0x1 ADD SWAP1 PUSH1 0x20 ADD DUP1 DUP4 GT PUSH2 0x293 JUMPI DUP3 SWAP1 SUB PUSH1 0x1F AND DUP3 ADD SWAP2 JUMPDEST POP POP POP POP POP SWAP1 DUP1 PUSH1 0x3 ADD SLOAD SWAP1 DUP1 PUSH1 0x4 ADD SLOAD SWAP1 POP DUP6 JUMP JUMPDEST PUSH1 0x60 PUSH1 0x1 PUSH0 DUP4 PUSH20 0xFFFFFFFFFFFFFFFFFFFFFFFFFFFFFFFFFFFFFFFF AND PUSH20 0xFFFFFFFFFFFFFFFFFFFFFFFFFFFFFFFFFFFFFFFF AND DUP2 MSTORE PUSH1 0x20 ADD SWAP1 DUP2 MSTORE PUSH1 0x20 ADD PUSH0 KECCAK256 DUP1 SLOAD DUP1 PUSH1 0x20 MUL PUSH1 0x20 ADD PUSH1 0x40 MLOAD SWAP1 DUP2 ADD PUSH1 0x40 MSTORE DUP1 SWAP3 SWAP2 SWAP1 DUP2 DUP2 MSTORE PUSH1 0x20 ADD PUSH0 SWAP1 JUMPDEST DUP3 DUP3 LT ISZERO PUSH2 0x456 JUMPI DUP4 DUP3 SWAP1 PUSH0 MSTORE PUSH1 0x20 PUSH0 KECCAK256 SWAP1 PUSH1 0x5 MUL ADD PUSH1 0x40 MLOAD DUP1 PUSH1 0xA0 ADD PUSH1 0x40 MSTORE SWAP1 DUP2 PUSH0 DUP3 ADD SLOAD DUP2 MSTORE PUSH1 0x20 ADD PUSH1 0x1 DUP3 ADD PUSH0 SWAP1 SLOAD SWAP1 PUSH2 0x100 EXP SWAP1 DIV PUSH20 0xFFFFFFFFFFFFFFFFFFFFFFFFFFFFFFFFFFFFFFFF AND PUSH20 0xFFFFFFFFFFFFFFFFFFFFFFFFFFFFFFFFFFFFFFFF AND PUSH20 0xFFFFFFFFFFFFFFFFFFFFFFFFFFFFFFFFFFFFFFFF AND DUP2 MSTORE PUSH1 0x20 ADD PUSH1 0x2 DUP3 ADD DUP1 SLOAD PUSH2 0x3B3 SWAP1 PUSH2 0x1308 JUMP JUMPDEST DUP1 PUSH1 0x1F ADD PUSH1 0x20 DUP1 SWAP2 DIV MUL PUSH1 0x20 ADD PUSH1 0x40 MLOAD SWAP1 DUP2 ADD PUSH1 0x40 MSTORE DUP1 SWAP3 SWAP2 SWAP1 DUP2 DUP2 MSTORE PUSH1 0x20 ADD DUP3 DUP1 SLOAD PUSH2 0x3DF SWAP1 PUSH2 0x1308 JUMP JUMPDEST DUP1 ISZERO PUSH2 0x42A JUMPI DUP1 PUSH1 0x1F LT PUSH2 0x401 JUMPI PUSH2 0x100 DUP1 DUP4 SLOAD DIV MUL DUP4 MSTORE SWAP2 PUSH1 0x20 ADD SWAP2 PUSH2 0x42A JUMP JUMPDEST DUP3 ADD SWAP2 SWAP1 PUSH0 MSTORE PUSH1 0x20 PUSH0 KECCAK256 SWAP1 JUMPDEST DUP2 SLOAD DUP2 MSTORE SWAP1 PUSH1 0x1 ADD SWAP1 PUSH1 0x20 ADD DUP1 DUP4 GT PUSH2 0x40D JUMPI DUP3 SWAP1 SUB PUSH1 0x1F AND DUP3 ADD SWAP2 JUMPDEST POP POP POP POP POP DUP2 MSTORE PUSH1 0x20 ADD PUSH1 0x3 DUP3 ADD SLOAD DUP2 MSTORE PUSH1 0x20 ADD PUSH1 0x4 DUP3 ADD SLOAD DUP2 MSTORE POP POP DUP2 MSTORE PUSH1 0x20 ADD SWAP1 PUSH1 0x1 ADD SWAP1 PUSH2 0x324 JUMP JUMPDEST POP POP POP POP SWAP1 POP SWAP2 SWAP1 POP JUMP JUMPDEST PUSH1 0x2 PUSH0 SWAP1 SLOAD SWAP1 PUSH2 0x100 EXP SWAP1 DIV PUSH20 0xFFFFFFFFFFFFFFFFFFFFFFFFFFFFFFFFFFFFFFFF AND PUSH20 0xFFFFFFFFFFFFFFFFFFFFFFFFFFFFFFFFFFFFFFFF AND CALLER PUSH20 0xFFFFFFFFFFFFFFFFFFFFFFFFFFFFFFFFFFFFFFFF AND EQ PUSH2 0x4F0 JUMPI PUSH1 0x40 MLOAD PUSH32 0x8C379A000000000000000000000000000000000000000000000000000000000 DUP2 MSTORE PUSH1 0x4 ADD PUSH2 0x4E7 SWAP1 PUSH2 0x1382 JUMP JUMPDEST PUSH1 0x40 MLOAD DUP1 SWAP2 SUB SWAP1 REVERT JUMPDEST DUP1 PUSH0 DUP1 PUSH2 0x100 EXP DUP2 SLOAD DUP2 PUSH2 0xFFFF MUL NOT AND SWAP1 DUP4 PUSH2 0xFFFF AND MUL OR SWAP1 SSTORE POP POP JUMP JUMPDEST DUP1 PUSH1 0x1 PUSH0 DUP5 PUSH20 0xFFFFFFFFFFFFFFFFFFFFFFFFFFFFFFFFFFFFFFFF AND PUSH20 0xFFFFFFFFFFFFFFFFFFFFFFFFFFFFFFFFFFFFFFFF AND DUP2 MSTORE PUSH1 0x20 ADD SWAP1 DUP2 MSTORE PUSH1 0x20 ADD PUSH0 KECCAK256 DUP3 DUP2 SLOAD DUP2 LT PUSH2 0x55E JUMPI PUSH2 0x55D PUSH2 0x13A0 JUMP JUMPDEST JUMPDEST SWAP1 PUSH0 MSTORE PUSH1 0x20 PUSH0 KECCAK256 SWAP1 PUSH1 0x5 MUL ADD PUSH0 ADD SLOAD EQ PUSH2 0x5AD JUMPI PUSH1 0x40 MLOAD PUSH32 0x8C379A000000000000000000000000000000000000000000000000000000000 DUP2 MSTORE PUSH1 0x4 ADD PUSH2 0x5A4 SWAP1 PUSH2 0x1417 JUMP JUMPDEST PUSH1 0x40 MLOAD DUP1 SWAP2 SUB SWAP1 REVERT JUMPDEST PUSH1 0x1 PUSH0 DUP4 PUSH20 0xFFFFFFFFFFFFFFFFFFFFFFFFFFFFFFFFFFFFFFFF AND PUSH20 0xFFFFFFFFFFFFFFFFFFFFFFFFFFFFFFFFFFFFFFFF AND DUP2 MSTORE PUSH1 0x20 ADD SWAP1 DUP2 MSTORE PUSH1 0x20 ADD PUSH0 KECCAK256 DUP2 DUP2 SLOAD DUP2 LT PUSH2 0x5FC JUMPI PUSH2 0x5FB PUSH2 0x13A0 JUMP JUMPDEST JUMPDEST SWAP1 PUSH0 MSTORE PUSH1 0x20 PUSH0 KECCAK256 SWAP1 PUSH1 0x5 MUL ADD PUSH1 0x4 ADD PUSH0 DUP2 SLOAD DUP1 SWAP3 SWAP2 SWAP1 PUSH2 0x61B SWAP1 PUSH2 0x1462 JUMP JUMPDEST SWAP2 SWAP1 POP SSTORE POP PUSH32 0xE8A76FC0F16D11A00D1E93B689B63D76CF60AF914DD3D915375DC41D01A0C3C8 CALLER DUP4 DUP4 PUSH1 0x1 PUSH0 DUP8 PUSH20 0xFFFFFFFFFFFFFFFFFFFFFFFFFFFFFFFFFFFFFFFF AND PUSH20 0xFFFFFFFFFFFFFFFFFFFFFFFFFFFFFFFFFFFFFFFF AND DUP2 MSTORE PUSH1 0x20 ADD SWAP1 DUP2 MSTORE PUSH1 0x20 ADD PUSH0 KECCAK256 DUP6 DUP2 SLOAD DUP2 LT PUSH2 0x693 JUMPI PUSH2 0x692 PUSH2 0x13A0 JUMP JUMPDEST JUMPDEST SWAP1 PUSH0 MSTORE PUSH1 0x20 PUSH0 KECCAK256 SWAP1 PUSH1 0x5 MUL ADD PUSH1 0x4 ADD SLOAD PUSH1 0x40 MLOAD PUSH2 0x6B3 SWAP5 SWAP4 SWAP3 SWAP2 SWAP1 PUSH2 0x14A9 JUMP JUMPDEST PUSH1 0x40 MLOAD DUP1 SWAP2 SUB SWAP1 LOG1 POP POP JUMP JUMPDEST PUSH0 DUP1 SLOAD SWAP1 PUSH2 0x100 EXP SWAP1 DIV PUSH2 0xFFFF AND DUP2 JUMP JUMPDEST PUSH0 DUP1 SLOAD SWAP1 PUSH2 0x100 EXP SWAP1 DIV PUSH2 0xFFFF AND PUSH2 0xFFFF AND DUP2 MLOAD GT ISZERO PUSH2 0x725 JUMPI PUSH1 0x40 MLOAD PUSH32 0x8C379A000000000000000000000000000000000000000000000000000000000 DUP2 MSTORE PUSH1 0x4 ADD PUSH2 0x71C SWAP1 PUSH2 0x1536 JUMP JUMPDEST PUSH1 0x40 MLOAD DUP1 SWAP2 SUB SWAP1 REVERT JUMPDEST PUSH0 PUSH1 0x40 MLOAD DUP1 PUSH1 0xA0 ADD PUSH1 0x40 MSTORE DUP1 PUSH1 0x1 PUSH0 CALLER PUSH20 0xFFFFFFFFFFFFFFFFFFFFFFFFFFFFFFFFFFFFFFFF AND PUSH20 0xFFFFFFFFFFFFFFFFFFFFFFFFFFFFFFFFFFFFFFFF AND DUP2 MSTORE PUSH1 0x20 ADD SWAP1 DUP2 MSTORE PUSH1 0x20 ADD PUSH0 KECCAK256 DUP1 SLOAD SWAP1 POP DUP2 MSTORE PUSH1 0x20 ADD CALLER PUSH20 0xFFFFFFFFFFFFFFFFFFFFFFFFFFFFFFFFFFFFFFFF AND DUP2 MSTORE PUSH1 0x20 ADD DUP4 DUP2 MSTORE PUSH1 0x20 ADD TIMESTAMP DUP2 MSTORE PUSH1 0x20 ADD PUSH0 DUP2 MSTORE POP SWAP1 POP PUSH1 0x1 PUSH0 CALLER PUSH20 0xFFFFFFFFFFFFFFFFFFFFFFFFFFFFFFFFFFFFFFFF AND PUSH20 0xFFFFFFFFFFFFFFFFFFFFFFFFFFFFFFFFFFFFFFFF AND DUP2 MSTORE PUSH1 0x20 ADD SWAP1 DUP2 MSTORE PUSH1 0x20 ADD PUSH0 KECCAK256 DUP2 SWAP1 DUP1 PUSH1 0x1 DUP2 SLOAD ADD DUP1 DUP3 SSTORE DUP1 SWAP2 POP POP PUSH1 0x1 SWAP1 SUB SWAP1 PUSH0 MSTORE PUSH1 0x20 PUSH0 KECCAK256 SWAP1 PUSH1 0x5 MUL ADD PUSH0 SWAP1 SWAP2 SWAP1 SWAP2 SWAP1 SWAP2 POP PUSH0 DUP3 ADD MLOAD DUP2 PUSH0 ADD SSTORE PUSH1 0x20 DUP3 ADD MLOAD DUP2 PUSH1 0x1 ADD PUSH0 PUSH2 0x100 EXP DUP2 SLOAD DUP2 PUSH20 0xFFFFFFFFFFFFFFFFFFFFFFFFFFFFFFFFFFFFFFFF MUL NOT AND SWAP1 DUP4 PUSH20 0xFFFFFFFFFFFFFFFFFFFFFFFFFFFFFFFFFFFFFFFF AND MUL OR SWAP1 SSTORE POP PUSH1 0x40 DUP3 ADD MLOAD DUP2 PUSH1 0x2 ADD SWAP1 DUP2 PUSH2 0x86C SWAP2 SWAP1 PUSH2 0x16F1 JUMP JUMPDEST POP PUSH1 0x60 DUP3 ADD MLOAD DUP2 PUSH1 0x3 ADD SSTORE PUSH1 0x80 DUP3 ADD MLOAD DUP2 PUSH1 0x4 ADD SSTORE POP POP PUSH32 0x16FD3C13E9D46923E0A8BCE11C7B473EC508A72E6C96CD2404B29CE972AFC29E DUP2 PUSH0 ADD MLOAD DUP3 PUSH1 0x20 ADD MLOAD DUP4 PUSH1 0x40 ADD MLOAD DUP5 PUSH1 0x60 ADD MLOAD PUSH1 0x40 MLOAD PUSH2 0x8C7 SWAP5 SWAP4 SWAP3 SWAP2 SWAP1 PUSH2 0x17C0 JUMP JUMPDEST PUSH1 0x40 MLOAD DUP1 SWAP2 SUB SWAP1 LOG1 POP POP JUMP JUMPDEST PUSH1 0x2 PUSH0 SWAP1 SLOAD SWAP1 PUSH2 0x100 EXP SWAP1 DIV PUSH20 0xFFFFFFFFFFFFFFFFFFFFFFFFFFFFFFFFFFFFFFFF AND DUP2 JUMP JUMPDEST DUP1 PUSH1 0x1 PUSH0 DUP5 PUSH20 0xFFFFFFFFFFFFFFFFFFFFFFFFFFFFFFFFFFFFFFFF AND PUSH20 0xFFFFFFFFFFFFFFFFFFFFFFFFFFFFFFFFFFFFFFFF AND DUP2 MSTORE PUSH1 0x20 ADD SWAP1 DUP2 MSTORE PUSH1 0x20 ADD PUSH0 KECCAK256 DUP3 DUP2 SLOAD DUP2 LT PUSH2 0x948 JUMPI PUSH2 0x947 PUSH2 0x13A0 JUMP JUMPDEST JUMPDEST SWAP1 PUSH0 MSTORE PUSH1 0x20 PUSH0 KECCAK256 SWAP1 PUSH1 0x5 MUL ADD PUSH0 ADD SLOAD EQ PUSH2 0x997 JUMPI PUSH1 0x40 MLOAD PUSH32 0x8C379A000000000000000000000000000000000000000000000000000000000 DUP2 MSTORE PUSH1 0x4 ADD PUSH2 0x98E SWAP1 PUSH2 0x1417 JUMP JUMPDEST PUSH1 0x40 MLOAD DUP1 SWAP2 SUB SWAP1 REVERT JUMPDEST PUSH0 PUSH1 0x1 PUSH0 DUP5 PUSH20 0xFFFFFFFFFFFFFFFFFFFFFFFFFFFFFFFFFFFFFFFF AND PUSH20 0xFFFFFFFFFFFFFFFFFFFFFFFFFFFFFFFFFFFFFFFF AND DUP2 MSTORE PUSH1 0x20 ADD SWAP1 DUP2 MSTORE PUSH1 0x20 ADD PUSH0 KECCAK256 DUP3 DUP2 SLOAD DUP2 LT PUSH2 0x9E7 JUMPI PUSH2 0x9E6 PUSH2 0x13A0 JUMP JUMPDEST JUMPDEST SWAP1 PUSH0 MSTORE PUSH1 0x20 PUSH0 KECCAK256 SWAP1 PUSH1 0x5 MUL ADD PUSH1 0x4 ADD SLOAD GT PUSH2 0xA37 JUMPI PUSH1 0x40 MLOAD PUSH32 0x8C379A000000000000000000000000000000000000000000000000000000000 DUP2 MSTORE PUSH1 0x4 ADD PUSH2 0xA2E SWAP1 PUSH2 0x1854 JUMP JUMPDEST PUSH1 0x40 MLOAD DUP1 SWAP2 SUB SWAP1 REVERT JUMPDEST PUSH1 0x1 PUSH0 DUP4 PUSH20 0xFFFFFFFFFFFFFFFFFFFFFFFFFFFFFFFFFFFFFFFF AND PUSH20 0xFFFFFFFFFFFFFFFFFFFFFFFFFFFFFFFFFFFFFFFF AND DUP2 MSTORE PUSH1 0x20 ADD SWAP1 DUP2 MSTORE PUSH1 0x20 ADD PUSH0 KECCAK256 DUP2 DUP2 SLOAD DUP2 LT PUSH2 0xA86 JUMPI PUSH2 0xA85 PUSH2 0x13A0 JUMP JUMPDEST JUMPDEST SWAP1 PUSH0 MSTORE PUSH1 0x20 PUSH0 KECCAK256 SWAP1 PUSH1 0x5 MUL ADD PUSH1 0x4 ADD PUSH0 DUP2 SLOAD DUP1 SWAP3 SWAP2 SWAP1 PUSH2 0xAA5 SWAP1 PUSH2 0x1872 JUMP JUMPDEST SWAP2 SWAP1 POP SSTORE POP POP POP JUMP JUMPDEST PUSH2 0xAB6 PUSH2 0xC25 JUMP JUMPDEST PUSH1 0x1 PUSH0 CALLER PUSH20 0xFFFFFFFFFFFFFFFFFFFFFFFFFFFFFFFFFFFFFFFF AND PUSH20 0xFFFFFFFFFFFFFFFFFFFFFFFFFFFFFFFFFFFFFFFF AND DUP2 MSTORE PUSH1 0x20 ADD SWAP1 DUP2 MSTORE PUSH1 0x20 ADD PUSH0 KECCAK256 DUP3 DUP2 SLOAD DUP2 LT PUSH2 0xB05 JUMPI PUSH2 0xB04 PUSH2 0x13A0 JUMP JUMPDEST JUMPDEST SWAP1 PUSH0 MSTORE PUSH1 0x20 PUSH0 KECCAK256 SWAP1 PUSH1 0x5 MUL ADD PUSH1 0x40 MLOAD DUP1 PUSH1 0xA0 ADD PUSH1 0x40 MSTORE SWAP1 DUP2 PUSH0 DUP3 ADD SLOAD DUP2 MSTORE PUSH1 0x20 ADD PUSH1 0x1 DUP3 ADD PUSH0 SWAP1 SLOAD SWAP1 PUSH2 0x100 EXP SWAP1 DIV PUSH20 0xFFFFFFFFFFFFFFFFFFFFFFFFFFFFFFFFFFFFFFFF AND PUSH20 0xFFFFFFFFFFFFFFFFFFFFFFFFFFFFFFFFFFFFFFFF AND PUSH20 0xFFFFFFFFFFFFFFFFFFFFFFFFFFFFFFFFFFFFFFFF AND DUP2 MSTORE PUSH1 0x20 ADD PUSH1 0x2 DUP3 ADD DUP1 SLOAD PUSH2 0xB8A SWAP1 PUSH2 0x1308 JUMP JUMPDEST DUP1 PUSH1 0x1F ADD PUSH1 0x20 DUP1 SWAP2 DIV MUL PUSH1 0x20 ADD PUSH1 0x40 MLOAD SWAP1 DUP2 ADD PUSH1 0x40 MSTORE DUP1 SWAP3 SWAP2 SWAP1 DUP2 DUP2 MSTORE PUSH1 0x20 ADD DUP3 DUP1 SLOAD PUSH2 0xBB6 SWAP1 PUSH2 0x1308 JUMP JUMPDEST DUP1 ISZERO PUSH2 0xC01 JUMPI DUP1 PUSH1 0x1F LT PUSH2 0xBD8 JUMPI PUSH2 0x100 DUP1 DUP4 SLOAD DIV MUL DUP4 MSTORE SWAP2 PUSH1 0x20 ADD SWAP2 PUSH2 0xC01 JUMP JUMPDEST DUP3 ADD SWAP2 SWAP1 PUSH0 MSTORE PUSH1 0x20 PUSH0 KECCAK256 SWAP1 JUMPDEST DUP2 SLOAD DUP2 MSTORE SWAP1 PUSH1 0x1 ADD SWAP1 PUSH1 0x20 ADD DUP1 DUP4 GT PUSH2 0xBE4 JUMPI DUP3 SWAP1 SUB PUSH1 0x1F AND DUP3 ADD SWAP2 JUMPDEST POP POP POP POP POP DUP2 MSTORE PUSH1 0x20 ADD PUSH1 0x3 DUP3 ADD SLOAD DUP2 MSTORE PUSH1 0x20 ADD PUSH1 0x4 DUP3 ADD SLOAD DUP2 MSTORE POP POP SWAP1 POP SWAP2 SWAP1 POP JUMP JUMPDEST PUSH1 0x40 MLOAD DUP1 PUSH1 0xA0 ADD PUSH1 0x40 MSTORE DUP1 PUSH0 DUP2 MSTORE PUSH1 0x20 ADD PUSH0 PUSH20 0xFFFFFFFFFFFFFFFFFFFFFFFFFFFFFFFFFFFFFFFF AND DUP2 MSTORE PUSH1 0x20 ADD PUSH1 0x60 DUP2 MSTORE PUSH1 0x20 ADD PUSH0 DUP2 MSTORE PUSH1 0x20 ADD PUSH0 DUP2 MSTORE POP SWAP1 JUMP JUMPDEST PUSH0 PUSH1 0x40 MLOAD SWAP1 POP SWAP1 JUMP JUMPDEST PUSH0 DUP1 REVERT JUMPDEST PUSH0 DUP1 REVERT JUMPDEST PUSH0 PUSH20 0xFFFFFFFFFFFFFFFFFFFFFFFFFFFFFFFFFFFFFFFF DUP3 AND SWAP1 POP SWAP2 SWAP1 POP JUMP JUMPDEST PUSH0 PUSH2 0xCA0 DUP3 PUSH2 0xC77 JUMP JUMPDEST SWAP1 POP SWAP2 SWAP1 POP JUMP JUMPDEST PUSH2 0xCB0 DUP2 PUSH2 0xC96 JUMP JUMPDEST DUP2 EQ PUSH2 0xCBA JUMPI PUSH0 DUP1 REVERT JUMPDEST POP JUMP JUMPDEST PUSH0 DUP2 CALLDATALOAD SWAP1 POP PUSH2 0xCCB DUP2 PUSH2 0xCA7 JUMP JUMPDEST SWAP3 SWAP2 POP POP JUMP JUMPDEST PUSH0 DUP2 SWAP1 POP SWAP2 SWAP1 POP JUMP JUMPDEST PUSH2 0xCE3 DUP2 PUSH2 0xCD1 JUMP JUMPDEST DUP2 EQ PUSH2 0xCED JUMPI PUSH0 DUP1 REVERT JUMPDEST POP JUMP JUMPDEST PUSH0 DUP2 CALLDATALOAD SWAP1 POP PUSH2 0xCFE DUP2 PUSH2 0xCDA JUMP JUMPDEST SWAP3 SWAP2 POP POP JUMP JUMPDEST PUSH0 DUP1 PUSH1 0x40 DUP4 DUP6 SUB SLT ISZERO PUSH2 0xD1A JUMPI PUSH2 0xD19 PUSH2 0xC6F JUMP JUMPDEST JUMPDEST PUSH0 PUSH2 0xD27 DUP6 DUP3 DUP7 ADD PUSH2 0xCBD JUMP JUMPDEST SWAP3 POP POP PUSH1 0x20 PUSH2 0xD38 DUP6 DUP3 DUP7 ADD PUSH2 0xCF0 JUMP JUMPDEST SWAP2 POP POP SWAP3 POP SWAP3 SWAP1 POP JUMP JUMPDEST PUSH2 0xD4B DUP2 PUSH2 0xCD1 JUMP JUMPDEST DUP3 MSTORE POP POP JUMP JUMPDEST PUSH2 0xD5A DUP2 PUSH2 0xC96 JUMP JUMPDEST DUP3 MSTORE POP POP JUMP JUMPDEST PUSH0 DUP2 MLOAD SWAP1 POP SWAP2 SWAP1 POP JUMP JUMPDEST PUSH0 DUP3 DUP3 MSTORE PUSH1 0x20 DUP3 ADD SWAP1 POP SWAP3 SWAP2 POP POP JUMP JUMPDEST DUP3 DUP2 DUP4 MCOPY PUSH0 DUP4 DUP4 ADD MSTORE POP POP POP JUMP JUMPDEST PUSH0 PUSH1 0x1F NOT PUSH1 0x1F DUP4 ADD AND SWAP1 POP SWAP2 SWAP1 POP JUMP JUMPDEST PUSH0 PUSH2 0xDA2 DUP3 PUSH2 0xD60 JUMP JUMPDEST PUSH2 0xDAC DUP2 DUP6 PUSH2 0xD6A JUMP JUMPDEST SWAP4 POP PUSH2 0xDBC DUP2 DUP6 PUSH1 0x20 DUP7 ADD PUSH2 0xD7A JUMP JUMPDEST PUSH2 0xDC5 DUP2 PUSH2 0xD88 JUMP JUMPDEST DUP5 ADD SWAP2 POP POP SWAP3 SWAP2 POP POP JUMP JUMPDEST PUSH0 PUSH1 0xA0 DUP3 ADD SWAP1 POP PUSH2 0xDE3 PUSH0 DUP4 ADD DUP9 PUSH2 0xD42 JUMP JUMPDEST PUSH2 0xDF0 PUSH1 0x20 DUP4 ADD DUP8 PUSH2 0xD51 JUMP JUMPDEST DUP2 DUP2 SUB PUSH1 0x40 DUP4 ADD MSTORE PUSH2 0xE02 DUP2 DUP7 PUSH2 0xD98 JUMP JUMPDEST SWAP1 POP PUSH2 0xE11 PUSH1 0x60 DUP4 ADD DUP6 PUSH2 0xD42 JUMP JUMPDEST PUSH2 0xE1E PUSH1 0x80 DUP4 ADD DUP5 PUSH2 0xD42 JUMP JUMPDEST SWAP7 SWAP6 POP POP POP POP POP POP JUMP JUMPDEST PUSH0 PUSH1 0x20 DUP3 DUP5 SUB SLT ISZERO PUSH2 0xE3D JUMPI PUSH2 0xE3C PUSH2 0xC6F JUMP JUMPDEST JUMPDEST PUSH0 PUSH2 0xE4A DUP5 DUP3 DUP6 ADD PUSH2 0xCBD JUMP JUMPDEST SWAP2 POP POP SWAP3 SWAP2 POP POP JUMP JUMPDEST PUSH0 DUP2 MLOAD SWAP1 POP SWAP2 SWAP1 POP JUMP JUMPDEST PUSH0 DUP3 DUP3 MSTORE PUSH1 0x20 DUP3 ADD SWAP1 POP SWAP3 SWAP2 POP POP JUMP JUMPDEST PUSH0 DUP2 SWAP1 POP PUSH1 0x20 DUP3 ADD SWAP1 POP SWAP2 SWAP1 POP JUMP JUMPDEST PUSH2 0xE85 DUP2 PUSH2 0xCD1 JUMP JUMPDEST DUP3 MSTORE POP POP JUMP JUMPDEST PUSH2 0xE94 DUP2 PUSH2 0xC96 JUMP JUMPDEST DUP3 MSTORE POP POP JUMP JUMPDEST PUSH0 DUP3 DUP3 MSTORE PUSH1 0x20 DUP3 ADD SWAP1 POP SWAP3 SWAP2 POP POP JUMP JUMPDEST PUSH0 PUSH2 0xEB4 DUP3 PUSH2 0xD60 JUMP JUMPDEST PUSH2 0xEBE DUP2 DUP6 PUSH2 0xE9A JUMP JUMPDEST SWAP4 POP PUSH2 0xECE DUP2 DUP6 PUSH1 0x20 DUP7 ADD PUSH2 0xD7A JUMP JUMPDEST PUSH2 0xED7 DUP2 PUSH2 0xD88 JUMP JUMPDEST DUP5 ADD SWAP2 POP POP SWAP3 SWAP2 POP POP JUMP JUMPDEST PUSH0 PUSH1 0xA0 DUP4 ADD PUSH0 DUP4 ADD MLOAD PUSH2 0xEF7 PUSH0 DUP7 ADD DUP3 PUSH2 0xE7C JUMP JUMPDEST POP PUSH1 0x20 DUP4 ADD MLOAD PUSH2 0xF0A PUSH1 0x20 DUP7 ADD DUP3 PUSH2 0xE8B JUMP JUMPDEST POP PUSH1 0x40 DUP4 ADD MLOAD DUP5 DUP3 SUB PUSH1 0x40 DUP7 ADD MSTORE PUSH2 0xF22 DUP3 DUP3 PUSH2 0xEAA JUMP JUMPDEST SWAP2 POP POP PUSH1 0x60 DUP4 ADD MLOAD PUSH2 0xF37 PUSH1 0x60 DUP7 ADD DUP3 PUSH2 0xE7C JUMP JUMPDEST POP PUSH1 0x80 DUP4 ADD MLOAD PUSH2 0xF4A PUSH1 0x80 DUP7 ADD DUP3 PUSH2 0xE7C JUMP JUMPDEST POP DUP1 SWAP2 POP POP SWAP3 SWAP2 POP POP JUMP JUMPDEST PUSH0 PUSH2 0xF60 DUP4 DUP4 PUSH2 0xEE2 JUMP JUMPDEST SWAP1 POP SWAP3 SWAP2 POP POP JUMP JUMPDEST PUSH0 PUSH1 0x20 DUP3 ADD SWAP1 POP SWAP2 SWAP1 POP JUMP JUMPDEST PUSH0 PUSH2 0xF7E DUP3 PUSH2 0xE53 JUMP JUMPDEST PUSH2 0xF88 DUP2 DUP6 PUSH2 0xE5D JUMP JUMPDEST SWAP4 POP DUP4 PUSH1 0x20 DUP3 MUL DUP6 ADD PUSH2 0xF9A DUP6 PUSH2 0xE6D JUMP JUMPDEST DUP1 PUSH0 JUMPDEST DUP6 DUP2 LT ISZERO PUSH2 0xFD5 JUMPI DUP5 DUP5 SUB DUP10 MSTORE DUP2 MLOAD PUSH2 0xFB6 DUP6 DUP3 PUSH2 0xF55 JUMP JUMPDEST SWAP5 POP PUSH2 0xFC1 DUP4 PUSH2 0xF68 JUMP JUMPDEST SWAP3 POP PUSH1 0x20 DUP11 ADD SWAP10 POP POP PUSH1 0x1 DUP2 ADD SWAP1 POP PUSH2 0xF9D JUMP JUMPDEST POP DUP3 SWAP8 POP DUP8 SWAP6 POP POP POP POP POP POP SWAP3 SWAP2 POP POP JUMP JUMPDEST PUSH0 PUSH1 0x20 DUP3 ADD SWAP1 POP DUP2 DUP2 SUB PUSH0 DUP4 ADD MSTORE PUSH2 0xFFF DUP2 DUP5 PUSH2 0xF74 JUMP JUMPDEST SWAP1 POP SWAP3 SWAP2 POP POP JUMP JUMPDEST PUSH0 PUSH2 0xFFFF DUP3 AND SWAP1 POP SWAP2 SWAP1 POP JUMP JUMPDEST PUSH2 0x101D DUP2 PUSH2 0x1007 JUMP JUMPDEST DUP2 EQ PUSH2 0x1027 JUMPI PUSH0 DUP1 REVERT JUMPDEST POP JUMP JUMPDEST PUSH0 DUP2 CALLDATALOAD SWAP1 POP PUSH2 0x1038 DUP2 PUSH2 0x1014 JUMP JUMPDEST SWAP3 SWAP2 POP POP JUMP JUMPDEST PUSH0 PUSH1 0x20 DUP3 DUP5 SUB SLT ISZERO PUSH2 0x1053 JUMPI PUSH2 0x1052 PUSH2 0xC6F JUMP JUMPDEST JUMPDEST PUSH0 PUSH2 0x1060 DUP5 DUP3 DUP6 ADD PUSH2 0x102A JUMP JUMPDEST SWAP2 POP POP SWAP3 SWAP2 POP POP JUMP JUMPDEST PUSH2 0x1072 DUP2 PUSH2 0x1007 JUMP JUMPDEST DUP3 MSTORE POP POP JUMP JUMPDEST PUSH0 PUSH1 0x20 DUP3 ADD SWAP1 POP PUSH2 0x108B PUSH0 DUP4 ADD DUP5 PUSH2 0x1069 JUMP JUMPDEST SWAP3 SWAP2 POP POP JUMP JUMPDEST PUSH0 DUP1 REVERT JUMPDEST PUSH0 DUP1 REVERT JUMPDEST PUSH32 0x4E487B7100000000000000000000000000000000000000000000000000000000 PUSH0 MSTORE PUSH1 0x41 PUSH1 0x4 MSTORE PUSH1 0x24 PUSH0 REVERT JUMPDEST PUSH2 0x10CF DUP3 PUSH2 0xD88 JUMP JUMPDEST DUP2 ADD DUP2 DUP2 LT PUSH8 0xFFFFFFFFFFFFFFFF DUP3 GT OR ISZERO PUSH2 0x10EE JUMPI PUSH2 0x10ED PUSH2 0x1099 JUMP JUMPDEST JUMPDEST DUP1 PUSH1 0x40 MSTORE POP POP POP JUMP JUMPDEST PUSH0 PUSH2 0x1100 PUSH2 0xC66 JUMP JUMPDEST SWAP1 POP PUSH2 0x110C DUP3 DUP3 PUSH2 0x10C6 JUMP JUMPDEST SWAP2 SWAP1 POP JUMP JUMPDEST PUSH0 PUSH8 0xFFFFFFFFFFFFFFFF DUP3 GT ISZERO PUSH2 0x112B JUMPI PUSH2 0x112A PUSH2 0x1099 JUMP JUMPDEST JUMPDEST PUSH2 0x1134 DUP3 PUSH2 0xD88 JUMP JUMPDEST SWAP1 POP PUSH1 0x20 DUP2 ADD SWAP1 POP SWAP2 SWAP1 POP JUMP JUMPDEST DUP3 DUP2 DUP4 CALLDATACOPY PUSH0 DUP4 DUP4 ADD MSTORE POP POP POP JUMP JUMPDEST PUSH0 PUSH2 0x1161 PUSH2 0x115C DUP5 PUSH2 0x1111 JUMP JUMPDEST PUSH2 0x10F7 JUMP JUMPDEST SWAP1 POP DUP3 DUP2 MSTORE PUSH1 0x20 DUP2 ADD DUP5 DUP5 DUP5 ADD GT ISZERO PUSH2 0x117D JUMPI PUSH2 0x117C PUSH2 0x1095 JUMP JUMPDEST JUMPDEST PUSH2 0x1188 DUP5 DUP3 DUP6 PUSH2 0x1141 JUMP JUMPDEST POP SWAP4 SWAP3 POP POP POP JUMP JUMPDEST PUSH0 DUP3 PUSH1 0x1F DUP4 ADD SLT PUSH2 0x11A4 JUMPI PUSH2 0x11A3 PUSH2 0x1091 JUMP JUMPDEST JUMPDEST DUP2 CALLDATALOAD PUSH2 0x11B4 DUP5 DUP3 PUSH1 0x20 DUP7 ADD PUSH2 0x114F JUMP JUMPDEST SWAP2 POP POP SWAP3 SWAP2 POP POP JUMP JUMPDEST PUSH0 PUSH1 0x20 DUP3 DUP5 SUB SLT ISZERO PUSH2 0x11D2 JUMPI PUSH2 0x11D1 PUSH2 0xC6F JUMP JUMPDEST JUMPDEST PUSH0 DUP3 ADD CALLDATALOAD PUSH8 0xFFFFFFFFFFFFFFFF DUP2 GT ISZERO PUSH2 0x11EF JUMPI PUSH2 0x11EE PUSH2 0xC73 JUMP JUMPDEST JUMPDEST PUSH2 0x11FB DUP5 DUP3 DUP6 ADD PUSH2 0x1190 JUMP JUMPDEST SWAP2 POP POP SWAP3 SWAP2 POP POP JUMP JUMPDEST PUSH0 PUSH1 0x20 DUP3 ADD SWAP1 POP PUSH2 0x1217 PUSH0 DUP4 ADD DUP5 PUSH2 0xD51 JUMP JUMPDEST SWAP3 SWAP2 POP POP JUMP JUMPDEST PUSH0 PUSH1 0x20 DUP3 DUP5 SUB SLT ISZERO PUSH2 0x1232 JUMPI PUSH2 0x1231 PUSH2 0xC6F JUMP JUMPDEST JUMPDEST PUSH0 PUSH2 0x123F DUP5 DUP3 DUP6 ADD PUSH2 0xCF0 JUMP JUMPDEST SWAP2 POP POP SWAP3 SWAP2 POP POP JUMP JUMPDEST PUSH0 PUSH1 0xA0 DUP4 ADD PUSH0 DUP4 ADD MLOAD PUSH2 0x125D PUSH0 DUP7 ADD DUP3 PUSH2 0xE7C JUMP JUMPDEST POP PUSH1 0x20 DUP4 ADD MLOAD PUSH2 0x1270 PUSH1 0x20 DUP7 ADD DUP3 PUSH2 0xE8B JUMP JUMPDEST POP PUSH1 0x40 DUP4 ADD MLOAD DUP5 DUP3 SUB PUSH1 0x40 DUP7 ADD MSTORE PUSH2 0x1288 DUP3 DUP3 PUSH2 0xEAA JUMP JUMPDEST SWAP2 POP POP PUSH1 0x60 DUP4 ADD MLOAD PUSH2 0x129D PUSH1 0x60 DUP7 ADD DUP3 PUSH2 0xE7C JUMP JUMPDEST POP PUSH1 0x80 DUP4 ADD MLOAD PUSH2 0x12B0 PUSH1 0x80 DUP7 ADD DUP3 PUSH2 0xE7C JUMP JUMPDEST POP DUP1 SWAP2 POP POP SWAP3 SWAP2 POP POP JUMP JUMPDEST PUSH0 PUSH1 0x20 DUP3 ADD SWAP1 POP DUP2 DUP2 SUB PUSH0 DUP4 ADD MSTORE PUSH2 0x12D3 DUP2 DUP5 PUSH2 0x1248 JUMP JUMPDEST SWAP1 POP SWAP3 SWAP2 POP POP JUMP JUMPDEST PUSH32 0x4E487B7100000000000000000000000000000000000000000000000000000000 PUSH0 MSTORE PUSH1 0x22 PUSH1 0x4 MSTORE PUSH1 0x24 PUSH0 REVERT JUMPDEST PUSH0 PUSH1 0x2 DUP3 DIV SWAP1 POP PUSH1 0x1 DUP3 AND DUP1 PUSH2 0x131F JUMPI PUSH1 0x7F DUP3 AND SWAP2 POP JUMPDEST PUSH1 0x20 DUP3 LT DUP2 SUB PUSH2 0x1332 JUMPI PUSH2 0x1331 PUSH2 0x12DB JUMP JUMPDEST JUMPDEST POP SWAP2 SWAP1 POP JUMP JUMPDEST PUSH32 0x596F7520617265206E6F7420746865206F776E65720000000000000000000000 PUSH0 DUP3 ADD MSTORE POP JUMP JUMPDEST PUSH0 PUSH2 0x136C PUSH1 0x15 DUP4 PUSH2 0xD6A JUMP JUMPDEST SWAP2 POP PUSH2 0x1377 DUP3 PUSH2 0x1338 JUMP JUMPDEST PUSH1 0x20 DUP3 ADD SWAP1 POP SWAP2 SWAP1 POP JUMP JUMPDEST PUSH0 PUSH1 0x20 DUP3 ADD SWAP1 POP DUP2 DUP2 SUB PUSH0 DUP4 ADD MSTORE PUSH2 0x1399 DUP2 PUSH2 0x1360 JUMP JUMPDEST SWAP1 POP SWAP2 SWAP1 POP JUMP JUMPDEST PUSH32 0x4E487B7100000000000000000000000000000000000000000000000000000000 PUSH0 MSTORE PUSH1 0x32 PUSH1 0x4 MSTORE PUSH1 0x24 PUSH0 REVERT JUMPDEST PUSH32 0x545745455420646F6573206E6F74206578697374000000000000000000000000 PUSH0 DUP3 ADD MSTORE POP JUMP JUMPDEST PUSH0 PUSH2 0x1401 PUSH1 0x14 DUP4 PUSH2 0xD6A JUMP JUMPDEST SWAP2 POP PUSH2 0x140C DUP3 PUSH2 0x13CD JUMP JUMPDEST PUSH1 0x20 DUP3 ADD SWAP1 POP SWAP2 SWAP1 POP JUMP JUMPDEST PUSH0 PUSH1 0x20 DUP3 ADD SWAP1 POP DUP2 DUP2 SUB PUSH0 DUP4 ADD MSTORE PUSH2 0x142E DUP2 PUSH2 0x13F5 JUMP JUMPDEST SWAP1 POP SWAP2 SWAP1 POP JUMP JUMPDEST PUSH32 0x4E487B7100000000000000000000000000000000000000000000000000000000 PUSH0 MSTORE PUSH1 0x11 PUSH1 0x4 MSTORE PUSH1 0x24 PUSH0 REVERT JUMPDEST PUSH0 PUSH2 0x146C DUP3 PUSH2 0xCD1 JUMP JUMPDEST SWAP2 POP PUSH32 0xFFFFFFFFFFFFFFFFFFFFFFFFFFFFFFFFFFFFFFFFFFFFFFFFFFFFFFFFFFFFFFFF DUP3 SUB PUSH2 0x149E JUMPI PUSH2 0x149D PUSH2 0x1435 JUMP JUMPDEST JUMPDEST PUSH1 0x1 DUP3 ADD SWAP1 POP SWAP2 SWAP1 POP JUMP JUMPDEST PUSH0 PUSH1 0x80 DUP3 ADD SWAP1 POP PUSH2 0x14BC PUSH0 DUP4 ADD DUP8 PUSH2 0xD51 JUMP JUMPDEST PUSH2 0x14C9 PUSH1 0x20 DUP4 ADD DUP7 PUSH2 0xD51 JUMP JUMPDEST PUSH2 0x14D6 PUSH1 0x40 DUP4 ADD DUP6 PUSH2 0xD42 JUMP JUMPDEST PUSH2 0x14E3 PUSH1 0x60 DUP4 ADD DUP5 PUSH2 0xD42 JUMP JUMPDEST SWAP6 SWAP5 POP POP POP POP POP JUMP JUMPDEST PUSH32 0x547765657420697320746F6F206C6F6E67000000000000000000000000000000 PUSH0 DUP3 ADD MSTORE POP JUMP JUMPDEST PUSH0 PUSH2 0x1520 PUSH1 0x11 DUP4 PUSH2 0xD6A JUMP JUMPDEST SWAP2 POP PUSH2 0x152B DUP3 PUSH2 0x14EC JUMP JUMPDEST PUSH1 0x20 DUP3 ADD SWAP1 POP SWAP2 SWAP1 POP JUMP JUMPDEST PUSH0 PUSH1 0x20 DUP3 ADD SWAP1 POP DUP2 DUP2 SUB PUSH0 DUP4 ADD MSTORE PUSH2 0x154D DUP2 PUSH2 0x1514 JUMP JUMPDEST SWAP1 POP SWAP2 SWAP1 POP JUMP JUMPDEST PUSH0 DUP2 SWAP1 POP DUP2 PUSH0 MSTORE PUSH1 0x20 PUSH0 KECCAK256 SWAP1 POP SWAP2 SWAP1 POP JUMP JUMPDEST PUSH0 PUSH1 0x20 PUSH1 0x1F DUP4 ADD DIV SWAP1 POP SWAP2 SWAP1 POP JUMP JUMPDEST PUSH0 DUP3 DUP3 SHL SWAP1 POP SWAP3 SWAP2 POP POP JUMP JUMPDEST PUSH0 PUSH1 0x8 DUP4 MUL PUSH2 0x15B0 PUSH32 0xFFFFFFFFFFFFFFFFFFFFFFFFFFFFFFFFFFFFFFFFFFFFFFFFFFFFFFFFFFFFFFFF DUP3 PUSH2 0x1575 JUMP JUMPDEST PUSH2 0x15BA DUP7 DUP4 PUSH2 0x1575 JUMP JUMPDEST SWAP6 POP DUP1 NOT DUP5 AND SWAP4 POP DUP1 DUP7 AND DUP5 OR SWAP3 POP POP POP SWAP4 SWAP3 POP POP POP JUMP JUMPDEST PUSH0 DUP2 SWAP1 POP SWAP2 SWAP1 POP JUMP JUMPDEST PUSH0 PUSH2 0x15F5 PUSH2 0x15F0 PUSH2 0x15EB DUP5 PUSH2 0xCD1 JUMP JUMPDEST PUSH2 0x15D2 JUMP JUMPDEST PUSH2 0xCD1 JUMP JUMPDEST SWAP1 POP SWAP2 SWAP1 POP JUMP JUMPDEST PUSH0 DUP2 SWAP1 POP SWAP2 SWAP1 POP JUMP JUMPDEST PUSH2 0x160E DUP4 PUSH2 0x15DB JUMP JUMPDEST PUSH2 0x1622 PUSH2 0x161A DUP3 PUSH2 0x15FC JUMP JUMPDEST DUP5 DUP5 SLOAD PUSH2 0x1581 JUMP JUMPDEST DUP3 SSTORE POP POP POP POP JUMP JUMPDEST PUSH0 SWAP1 JUMP JUMPDEST PUSH2 0x1636 PUSH2 0x162A JUMP JUMPDEST PUSH2 0x1641 DUP2 DUP5 DUP5 PUSH2 0x1605 JUMP JUMPDEST POP POP POP JUMP JUMPDEST JUMPDEST DUP2 DUP2 LT ISZERO PUSH2 0x1664 JUMPI PUSH2 0x1659 PUSH0 DUP3 PUSH2 0x162E JUMP JUMPDEST PUSH1 0x1 DUP2 ADD SWAP1 POP PUSH2 0x1647 JUMP JUMPDEST POP POP JUMP JUMPDEST PUSH1 0x1F DUP3 GT ISZERO PUSH2 0x16A9 JUMPI PUSH2 0x167A DUP2 PUSH2 0x1554 JUMP JUMPDEST PUSH2 0x1683 DUP5 PUSH2 0x1566 JUMP JUMPDEST DUP2 ADD PUSH1 0x20 DUP6 LT ISZERO PUSH2 0x1692 JUMPI DUP2 SWAP1 POP JUMPDEST PUSH2 0x16A6 PUSH2 0x169E DUP6 PUSH2 0x1566 JUMP JUMPDEST DUP4 ADD DUP3 PUSH2 0x1646 JUMP JUMPDEST POP POP JUMPDEST POP POP POP JUMP JUMPDEST PUSH0 DUP3 DUP3 SHR SWAP1 POP SWAP3 SWAP2 POP POP JUMP JUMPDEST PUSH0 PUSH2 0x16C9 PUSH0 NOT DUP5 PUSH1 0x8 MUL PUSH2 0x16AE JUMP JUMPDEST NOT DUP1 DUP4 AND SWAP2 POP POP SWAP3 SWAP2 POP POP JUMP JUMPDEST PUSH0 PUSH2 0x16E1 DUP4 DUP4 PUSH2 0x16BA JUMP JUMPDEST SWAP2 POP DUP3 PUSH1 0x2 MUL DUP3 OR SWAP1 POP SWAP3 SWAP2 POP POP JUMP JUMPDEST PUSH2 0x16FA DUP3 PUSH2 0xD60 JUMP JUMPDEST PUSH8 0xFFFFFFFFFFFFFFFF DUP2 GT ISZERO PUSH2 0x1713 JUMPI PUSH2 0x1712 PUSH2 0x1099 JUMP JUMPDEST JUMPDEST PUSH2 0x171D DUP3 SLOAD PUSH2 0x1308 JUMP JUMPDEST PUSH2 0x1728 DUP3 DUP3 DUP6 PUSH2 0x1668 JUMP JUMPDEST PUSH0 PUSH1 0x20 SWAP1 POP PUSH1 0x1F DUP4 GT PUSH1 0x1 DUP2 EQ PUSH2 0x1759 JUMPI PUSH0 DUP5 ISZERO PUSH2 0x1747 JUMPI DUP3 DUP8 ADD MLOAD SWAP1 POP JUMPDEST PUSH2 0x1751 DUP6 DUP3 PUSH2 0x16D6 JUMP JUMPDEST DUP7 SSTORE POP PUSH2 0x17B8 JUMP JUMPDEST PUSH1 0x1F NOT DUP5 AND PUSH2 0x1767 DUP7 PUSH2 0x1554 JUMP JUMPDEST PUSH0 JUMPDEST DUP3 DUP2 LT ISZERO PUSH2 0x178E JUMPI DUP5 DUP10 ADD MLOAD DUP3 SSTORE PUSH1 0x1 DUP3 ADD SWAP2 POP PUSH1 0x20 DUP6 ADD SWAP5 POP PUSH1 0x20 DUP2 ADD SWAP1 POP PUSH2 0x1769 JUMP JUMPDEST DUP7 DUP4 LT ISZERO PUSH2 0x17AB JUMPI DUP5 DUP10 ADD MLOAD PUSH2 0x17A7 PUSH1 0x1F DUP10 AND DUP3 PUSH2 0x16BA JUMP JUMPDEST DUP4 SSTORE POP JUMPDEST PUSH1 0x1 PUSH1 0x2 DUP9 MUL ADD DUP9 SSTORE POP POP POP JUMPDEST POP POP POP POP POP POP JUMP JUMPDEST PUSH0 PUSH1 0x80 DUP3 ADD SWAP1 POP PUSH2 0x17D3 PUSH0 DUP4 ADD DUP8 PUSH2 0xD42 JUMP JUMPDEST PUSH2 0x17E0 PUSH1 0x20 DUP4 ADD DUP7 PUSH2 0xD51 JUMP JUMPDEST DUP2 DUP2 SUB PUSH1 0x40 DUP4 ADD MSTORE PUSH2 0x17F2 DUP2 DUP6 PUSH2 0xD98 JUMP JUMPDEST SWAP1 POP PUSH2 0x1801 PUSH1 0x60 DUP4 ADD DUP5 PUSH2 0xD42 JUMP JUMPDEST SWAP6 SWAP5 POP POP POP POP POP JUMP JUMPDEST PUSH32 0x545745455420686173206E6F206C696B65730000000000000000000000000000 PUSH0 DUP3 ADD MSTORE POP JUMP JUMPDEST PUSH0 PUSH2 0x183E PUSH1 0x12 DUP4 PUSH2 0xD6A JUMP JUMPDEST SWAP2 POP PUSH2 0x1849 DUP3 PUSH2 0x180A JUMP JUMPDEST PUSH1 0x20 DUP3 ADD SWAP1 POP SWAP2 SWAP1 POP JUMP JUMPDEST PUSH0 PUSH1 0x20 DUP3 ADD SWAP1 POP DUP2 DUP2 SUB PUSH0 DUP4 ADD MSTORE PUSH2 0x186B DUP2 PUSH2 0x1832 JUMP JUMPDEST SWAP1 POP SWAP2 SWAP1 POP JUMP JUMPDEST PUSH0 PUSH2 0x187C DUP3 PUSH2 0xCD1 JUMP JUMPDEST SWAP2 POP PUSH0 DUP3 SUB PUSH2 0x188E JUMPI PUSH2 0x188D PUSH2 0x1435 JUMP JUMPDEST JUMPDEST PUSH1 0x1 DUP3 SUB SWAP1 POP SWAP2 SWAP1 POP JUMP INVALID LOG2 PUSH5 0x6970667358 0x22 SLT KECCAK256 PUSH14 0x5E1229945497D8E3733631A671E8 0xD MLOAD 0xD 0xB2 0xF8 JUMPI SWAP4 CHAINID 0xC3 GT RETURNDATACOPY 0xAA 0x2F KECCAK256 0xB9 SHL 0xB3 PUSH5 0x736F6C6343 STOP ADDMOD BYTE STOP CALLER "
				},
				"gasEstimates": {
					"creation": {
						"codeDepositCost": "1270200",
						"executionCost": "49851",
						"totalCost": "1320051"
					},
					"external": {
						"MAX_TWEET_LENGTH()": "2463",
						"changeTweetLength(uint16)": "26887",
						"createTweet(string)": "infinite",
						"getAllTweets(address)": "infinite",
						"getTweet(uint256)": "infinite",
						"likeTweet(address,uint256)": "infinite",
						"owner()": "2552",
						"tweets(address,uint256)": "infinite",
						"unLikeTweet(address,uint256)": "infinite"
					}
				},
				"methodIdentifiers": {
					"MAX_TWEET_LENGTH()": "6eb10797",
					"changeTweetLength(uint16)": "58bfa4ab",
					"createTweet(string)": "7c9cd2bc",
					"getAllTweets(address)": "12e7ee1c",
					"getTweet(uint256)": "c3ad5ecb",
					"likeTweet(address,uint256)": "63378216",
					"owner()": "8da5cb5b",
					"tweets(address,uint256)": "05a1b4a9",
					"unLikeTweet(address,uint256)": "9ef8633f"
				}
			},
			"storageLayout": {
				"storage": [
					{
						"astId": 4,
						"contract": "contracts/TwitterStruct.sol:TwitterStruct",
						"label": "MAX_TWEET_LENGTH",
						"offset": 0,
						"slot": "0",
						"type": "t_uint16"
					},
					{
						"astId": 21,
						"contract": "contracts/TwitterStruct.sol:TwitterStruct",
						"label": "tweets",
						"offset": 0,
						"slot": "1",
						"type": "t_mapping(t_address,t_array(t_struct(Tweet)15_storage)dyn_storage)"
					},
					{
						"astId": 23,
						"contract": "contracts/TwitterStruct.sol:TwitterStruct",
						"label": "owner",
						"offset": 0,
						"slot": "2",
						"type": "t_address"
					}
				],
				"types": {
					"t_address": {
						"encoding": "inplace",
						"label": "address",
						"numberOfBytes": "20"
					},
					"t_array(t_struct(Tweet)15_storage)dyn_storage": {
						"base": "t_struct(Tweet)15_storage",
						"encoding": "dynamic_array",
						"label": "struct TwitterStruct.Tweet[]",
						"numberOfBytes": "32"
					},
					"t_mapping(t_address,t_array(t_struct(Tweet)15_storage)dyn_storage)": {
						"encoding": "mapping",
						"key": "t_address",
						"label": "mapping(address => struct TwitterStruct.Tweet[])",
						"numberOfBytes": "32",
						"value": "t_array(t_struct(Tweet)15_storage)dyn_storage"
					},
					"t_string_storage": {
						"encoding": "bytes",
						"label": "string",
						"numberOfBytes": "32"
					},
					"t_struct(Tweet)15_storage": {
						"encoding": "inplace",
						"label": "struct TwitterStruct.Tweet",
						"members": [
							{
								"astId": 6,
								"contract": "contracts/TwitterStruct.sol:TwitterStruct",
								"label": "id",
								"offset": 0,
								"slot": "0",
								"type": "t_uint256"
							},
							{
								"astId": 8,
								"contract": "contracts/TwitterStruct.sol:TwitterStruct",
								"label": "author",
								"offset": 0,
								"slot": "1",
								"type": "t_address"
							},
							{
								"astId": 10,
								"contract": "contracts/TwitterStruct.sol:TwitterStruct",
								"label": "content",
								"offset": 0,
								"slot": "2",
								"type": "t_string_storage"
							},
							{
								"astId": 12,
								"contract": "contracts/TwitterStruct.sol:TwitterStruct",
								"label": "timestamp",
								"offset": 0,
								"slot": "3",
								"type": "t_uint256"
							},
							{
								"astId": 14,
								"contract": "contracts/TwitterStruct.sol:TwitterStruct",
								"label": "likes",
								"offset": 0,
								"slot": "4",
								"type": "t_uint256"
							}
						],
						"numberOfBytes": "160"
					},
					"t_uint16": {
						"encoding": "inplace",
						"label": "uint16",
						"numberOfBytes": "2"
					},
					"t_uint256": {
						"encoding": "inplace",
						"label": "uint256",
						"numberOfBytes": "32"
					}
				}
			},
			"userdoc": {
				"kind": "user",
				"methods": {},
				"version": 1
			}
		}
	}
}